:100000000C9462000C94C0050C9499050C948A0021
:100010000C948A000C948A000C948A000C948A0038
:100020000C948A000C948A000C948A000C948A0028
:100030000C948A000C948A000C948A000C948A0018
:100040000C944F050C948A000C940D060C94E70553
:100050000C948A000C948A000C948A000C948A00F8
:100060000C943F060C948A00000000002400270036
:100070002A0000000000250028002B0000000008D6
:10008000000201000003040700000000000000005F
:10009000010204081020408001020408102001021F
:1000A000040810200000000023002600290004049A
:1000B0000404040404040202020202020303030310
:1000C00003035E0711241FBECFEFD8E0DEBFCDBF14
:1000D00023E0A2E8B1E001C01D92A035B207E1F72C
:1000E00011E0A0E0B1E0EAE1F9E102C005900D9273
:1000F000A238B107D9F710E0C2E6D0E004C02197DA
:10010000FE010E94930AC136D107C9F70E94480830
:100110000C948B0C0C94000090E0FC01E458FF4F11
:100120002491FC01E057FF4F3491FC01E255FF4F51
:10013000E491EE23C9F0222339F0233001F1A8F431
:10014000213019F1223029F1F0E0EE0FFF1FEE58B7
:10015000FF4FA591B4918FB7F894EC91611126C02F
:1001600030953E233C938FBF08952730A9F0283067
:10017000C9F0243049F7809180008F7D03C08091C1
:1001800080008F7780938000DFCF84B58F7784BD28
:10019000DBCF84B58F7DFBCF8091B0008F778093CC
:1001A000B000D2CF8091B0008F7DF9CF3E2BDACF57
:1001B000CF93DF9390E0FC01E057FF4F24918255ED
:1001C0009F4FFC0184918823C9F090E0880F991F0C
:1001D000FC01E859FF4FA591B491FC01EE58FF4F87
:1001E000C591D49161110DC09FB7F8948C91209561
:1001F00082238C938881282328839FBFDF91CF910E
:100200000895623051F49FB7F8943C91822F809505
:1002100083238C93E8812E2BEFCF8FB7F894EC914A
:100220002E2B2C938FBFEACF3FB7F89480913B02DF
:1002300090913C02A0913D02B0913E0226B5A89B50
:1002400005C02F3F19F00196A11DB11D3FBFBA2F68
:10025000A92F982F8827BC01CD01620F711D811D28
:10026000911D42E0660F771F881F991F4A95D1F7AD
:1002700008958F929F92AF92BF92CF92DF92EF92AA
:10028000FF926B017C010E9414014B015C01C114BF
:10029000D104E104F104B9F00E941401681979094C
:1002A0008A099B09683E73408105910580F321E02E
:1002B000C21AD108E108F10888EE880E83E0981E82
:1002C000A11CB11CE4CFFF90EF90DF90CF90BF90C6
:1002D000AF909F908F9008950895AF92BF92CF9264
:1002E000DF92EF92FF920F931F93CF93DF936C01F6
:1002F0007B018B01040F151FEB015E01AE18BF08D7
:10030000C017D10759F06991D601ED91FC91019088
:10031000F081E02DC6010995892B79F7C501DF91A0
:10032000CF911F910F91FF90EF90DF90CF90BF90F2
:10033000AF900895FC01448155816081718180E412
:1003400093E00C946D0108950895FC01538D448D44
:10035000252F30E0842F90E0821B930B541710F070
:10036000CF96089501970895FC01918D828D98177D
:1003700061F0A28DAE0FBF2FB11D5D968C91928D55
:100380009F5F9F73928F90E008958FEF9FEF089586
:10039000FC01918D828D981731F0828DE80FF11D4F
:1003A000858D90E008958FEF9FEF0895FC01918D6A
:1003B000228D892F90E0805C9F4F821B91098F7363
:1003C0009927089583E492E00E94D60121E0892BC9
:1003D00009F420E0822F089580E090E0892B29F035
:1003E0000E94E20181110C9400000895FC01A48D8B
:1003F000A80FB92FB11DA35ABF4F2C91848D90E047
:1004000001968F739927848FA689B7892C93A08929
:10041000B1898C91837080648C93938D848D9813B3
:1004200006C00288F389E02D80818F7D8083089546
:10043000EF92FF920F931F93CF93DF93EC0181E034
:10044000888F9B8D8C8D98131AC0E889F9898081DB
:1004500085FF15C09FB7F894EE89FF896083E8890E
:10046000F98980818370806480839FBF81E090E000
:10047000DF91CF911F910F91FF90EF900895F62E8D
:100480000B8D10E00F5F1F4F0F731127E02E8C8D27
:100490008E110CC00FB607FCFACFE889F98980816C
:1004A00085FFF5CFCE010E94F601F1CFEB8DEC0F69
:1004B000FD2FF11DE35AFF4FF0829FB7F8940B8F89
:1004C000EA89FB8980818062CFCFCF93DF93EC01F3
:1004D000888D8823B9F0AA89BB89E889F9898C912C
:1004E00085FD03C0808186FD0DC00FB607FCF7CFE8
:1004F0008C9185FFF2CF808185FFEDCFCE010E94E8
:10050000F601E9CFDF91CF91089585ED8093BC008E
:100510008091BC0084FDFCCF10923102089520919F
:10052000E401260F3327331F21323105ECF42091EB
:100530003102FC0190E080E0243069F082E008950F
:10054000A091E4012191AC014C535E4FA40FB52F53
:10055000B11D2C930196861798F38091E401680FE2
:100560006093E40180E0089581E00895CF93DF93E4
:10057000EC018881998162E0911101C060E00E94E4
:10058000D8002FB7F8948091370290913802A0914B
:100590003902B0913A022FBF8C839D83AE83BF8313
:1005A0002FB7F8948091370290913802A0913902C8
:1005B000B0913A022FBF8A879B87AC87BD872FB740
:1005C000F8948091370290913802A0913902B0914D
:1005D0003A022FBF8E879F87A88BB98BDF91CF916F
:1005E000089508950895E091350280913402E81746
:1005F00030F4F0E0EE57FE4F808190E008958FEFE9
:100600009FEF089590913502809134022FEF3FEFD4
:10061000981748F4E92FF0E0EE57FE4F208130E0C4
:100620009F5F90933502C9010895809134029091A3
:100630003502891B990B0895CF92DF92EF92FF92BA
:100640000F931F93CF93DF937C01CB018A012091FD
:10065000A201222389F0EB016B01C40ED51ECC153B
:10066000DD0569F06991D701ED91FC910190F08170
:10067000E02DC7010995F3CF642F0E948F02C801B6
:10068000DF91CF911F910F91FF90EF90DF90CF906E
:100690000895CF93DF931F92CDB7DEB76983209182
:1006A000A2012223F9F020913202203258F021E0F9
:1006B00030E0FC013383228390E080E00F90DF91F3
:1006C000CF91089580913302E82FF0E0ED55FE4F71
:1006D000998190838F5F809333028093320281E00F
:1006E00090E0ECCF61E0CE0101960E948F02F7CF3F
:1006F000CF93FC01C48121E02093A201C093C301E8
:1007000010923302109232028385682B80EE92E0C1
:100710000E94490390913202913208F03FC08091CB
:1007200031028111FCCF82E08093310281E080931D
:1007300030028FEF809307021092290290932802D3
:10074000A3EAB1E0E8E0F2E080E098132FC0109255
:100750002A0280912A02CC0FC82BC0932A028091D2
:100760002F02813039F510922F0280912A02809356
:10077000BB008091BC0083FDF8CF85EC8093BC006A
:10078000809131028230E1F3809107028F3F31F096
:1007900080910702803211F080910702109233029B
:1007A000109232021092A201CF9108952D912193BF
:1007B0008F5FCBCF85EEE2CF90E080E00895DC0143
:1007C000ED91FD918081ED91FD919081ED91FD91F3
:1007D0006C9163708E2309F064609F2309F0686058
:1007E000ECEFF3E0E60FF11D659565956D936D9166
:1007F0007D918D919D91099423C01AC012C016C09D
:1008000010C01EC009C014C013C006C019C009C062
:100810000DC007C00DC014C06250704080409040B1
:100820000BC0615070408040904006C06E5F01C0B8
:100830006F5F7F4F8F4F9F4F9E938E937E936E93EC
:10084000089580913F02909140020C94DF038091C3
:100850004102909142020C94DF03FC01808191815E
:10086000009711F00C94350B0895823021F08330FD
:10087000B9F080E0089584E393E090934002809380
:100880003F0281E294E09093010180930001809106
:1008900069008C7F816080936900E89A81E0089507
:1008A00084E393E0909342028093410287E294E0D4
:1008B000909303018093020180916900837F84609B
:1008C00080936900E99AEACF0F931F93CF938C012D
:1008D000C62F0E9478036C2F6460C8010E947803C1
:1008E0006C2F6B7FC8010E94780383EC90E0019726
:1008F000F1F7CF911F910F9108950F931F93CF930D
:10090000DF938C01D62FC42F607F642B0E94640478
:1009100080E1D89FB00111246C2BC801DF91CF91E9
:100920001F910F910C946404CF93DF93CDB7DEB782
:1009300028970FB6F894DEBF0FBECDBF98E0EAE06F
:10094000F1E0DE01119601900D929A95E1F79091F8
:100950004903981710F48FEF890F90E0880F991FC3
:1009600021E030E02C0F3D1F820F931FFC016081BE
:10097000606840E080E493E028960FB6F894DEBF0C
:100980000FBECDBFDF91CF910C947D0441E00E945A
:100990007D0481E090E008950F931F93CF93DF9340
:1009A000EC0188819981009759F02A813B812617B3
:1009B000370730F081E0DF91CF911F910F910895BB
:1009C0008B016F5F7F4F0E94BE0B009759F0998398
:1009D00088831B830A832C813D81232B59F7FC01DB
:1009E0001082E8CF80E0E7CFCF93DF93EC0170E097
:1009F00060E00E94CC042881398181110FC021154B
:100A0000310519F0C9010E94350B198218821D8227
:100A10001C821B821A82DF91CF9108951D821C8255
:100A20006BE671E0C901DF91CF910C94840CEF92D9
:100A3000FF920F931F93CF93DF93EC017B01FB0198
:100A400001900020E9F731978F01061B170BB801C1
:100A50000E94CC0428813981811113C021153105F0
:100A600019F0C9010E94350B198218821D821C825F
:100A70001B821A82DF91CF911F910F91FF90EF900F
:100A800008951D830C83B701C901DF91CF911F9198
:100A90000F91FF90EF900C94840C0C94540A1F92C9
:100AA0000F920FB60F9211242F933F938F939F9322
:100AB000AF93BF938091370290913802A091390291
:100AC000B0913A023091360223E0230F2D3758F5CA
:100AD0000196A11DB11D2093360280933702909399
:100AE0003802A0933902B0933A0280913B02909170
:100AF0003C02A0913D02B0913E020196A11DB11DA4
:100B000080933B0290933C02A0933D02B0933E023F
:100B1000BF91AF919F918F913F912F910F900FBEF9
:100B20000F901F90189526E8230F0296A11DB11D66
:100B3000D2CF1F920F920FB60F9211242F933F9393
:100B40004F935F936F937F938F939F93AF93BF93D5
:100B5000EF93FF93E0910201F09103010995FF915A
:100B6000EF91BF91AF919F918F917F916F915F9125
:100B70004F913F912F910F900FBE0F901F9018959E
:100B80001F920F920FB60F9211242F933F934F9302
:100B90005F936F937F938F939F93AF93BF93EF93E5
:100BA000FF93E0910001F09101010995FF91EF9110
:100BB000BF91AF919F918F917F916F915F914F9175
:100BC0003F912F910F900FBE0F901F9018951F927D
:100BD0000F920FB60F9211242F933F934F935F9371
:100BE0006F937F938F939F93AF93BF93EF93FF93F5
:100BF00083E492E00E94F601FF91EF91BF91AF91E3
:100C00009F918F917F916F915F914F913F912F9124
:100C10000F900FBE0F901F9018951F920F920FB656
:100C20000F9211242F938F939F93EF93FF93E09153
:100C30005302F09154028081E0915902F0915A02DE
:100C400082FD1BC0908180915C028F5F8F73209129
:100C50005D02821741F0E0915C02F0E0ED5BFD4F38
:100C6000958F80935C02FF91EF919F918F912F91CF
:100C70000F900FBE0F901F9018958081F4CF1F9298
:100C80000F920FB60F9211242F933F934F935F93C0
:100C90006F937F938F939F93AF93BF93EF93FF9344
:100CA0008091B900887F803609F44AC0F0F5883217
:100CB00009F4A7C018F5803109F49BC0B8F4882363
:100CC00009F4F9C0883009F494C0FF91EF91BF9105
:100CD000AF919F918F917F916F915F914F913F91D4
:100CE0002F910F900FBE0F901F901895883109F427
:100CF00088C0803251F78093070214C0803409F411
:100D00009DC040F48033B9F38833F9F6809307022D
:100D100085ECB0C0803509F485C0883509F496C0EB
:100D2000883499F60E948502D0CF883909F48CC0A6
:100D300038F5883729F050F4883611F0803729F6D5
:100D400083E0809331021092060257C0883809F47C
:100D50007BC0803919F0803809F0B7CF8091060246
:100D6000803208F071C0E091060281E08E0F80931E
:100D700006028091BB00F0E0EA51FE4F80833DC047
:100D8000803B39F0E0F4803A09F479C0883A09F000
:100D90009CCF84E0809331021092E5011092E4012F
:100DA000E0912D02F0912E0209958091E4018111CC
:100DB0000FC081E08093E4011092C40109C0803C1F
:100DC00009F4A6CF883C09F4A3CF883B09F07DCF76
:100DD000E091E50181E08E0F8093E501F0E0EC53B6
:100DE000FE4F80818093BB009091E5018091E401EA
:100DF00029C080912A028093BB0085EC8093BC00BF
:100E000064CF9091290280912802981758F5E091BB
:100E1000290281E08E0F80932902F0E0E85FFD4F08
:100E20008081E9CFE091290281E08E0F8093290231
:100E30008091BB00F0E0E85FFD4F80839091290234
:100E4000809128029817C8F285E8D8CFE09129024E
:100E500081E08E0F809329028091BB00F0E0E85F73
:100E6000FD4F80838091300281115CCF81E08093BF
:100E70002F0284EA8093BC001092310226CF85ECC9
:100E80008093BC001092310280910602803230F4CF
:100E9000E0910602F0E0EA51FE4F108260910602F6
:100EA00070E0E0912B02F0912C0286EE91E0099522
:100EB000109206020ACF1092070234CFCF93DF932D
:100EC000109246021092450288EE93E0A0E0B0E056
:100ED0008093470290934802A0934902B0934A023C
:100EE00026E131E0309344022093430225EC30E0C8
:100EF0003093500220934F0224EC30E030935202A2
:100F00002093510220EC30E030935402209353029E
:100F100021EC30E0309356022093550222EC30E071
:100F2000309358022093570226EC30E030935A0257
:100F30002093590210925C0210925D0210925E02A0
:100F400010925F021092E3021092E2028093E40298
:100F50009093E502A093E602B093E70288E291E065
:100F60009093E1028093E0021092430310924203B7
:100F70008AE391E0909341038093400387E280935A
:100F8000440384E18093480384E0809349031092F2
:100F90004A0388E080934B0362E083E00E94D8001C
:100FA00062E082E00E94D800E1EBF0E0E491F0E042
:100FB000EE0FFF1FEC55FF4FA591B491B093350391
:100FC000A0933403E3E9F0E0449140933803E0EB6D
:100FD000F0E0E491F0E0EE0FFF1FEC55FF4FC591FC
:100FE000D491D0933703C0933603E2E9F0E0E49163
:100FF000E093390310923B0310923C0310923D039F
:1010000010923E032BE33FE1C9010197F1F79C9158
:10101000842F892391E009F490E08881E82309F086
:10102000926090933A0383E00E94350480933F03DB
:1010300082E00E94350490913F03890F80933F0323
:1010400085E08093220381E08093230310922403A0
:1010500080932A0396E090931003809311031092DB
:1010600012038093180397E09093FE028093FF028F
:1010700010920003809306039EE09093EC0280930D
:10108000ED021092EE028093F402DF91CF91089569
:10109000CF93DF93CDB7DEB768970FB6F894DEBF76
:1010A0000FBECDBF789484B5826084BD84B5816065
:1010B00084BD85B5826085BD85B5816085BD809123
:1010C0006E00816080936E0010928100809181009B
:1010D0008260809381008091810081608093810093
:1010E000809180008160809380008091B100846055
:1010F0008093B1008091B00081608093B0008091B6
:101100007A00846080937A0080917A008260809374
:101110007A0080917A00816080937A0080917A00D1
:10112000806880937A001092C100E0915302F091A0
:10113000540282E08083E0914F02F09150021082CD
:10114000E0915102F09152028FEC808310925B0289
:10115000E0915702F091580286E08083E0915502B9
:10116000F0915602808180618083E0915502F09178
:101170005602808188608083E0915502F09156028A
:10118000808180688083E0915502F09156028081D1
:101190008F7D808382E293E00E94B60280E193E03B
:1011A0000E94B6028EEF92E00E94B6028CEE92E0B0
:1011B0000E94B60261E08CE00E94D80061E08DE000
:1011C0000E94D8001092350210923402109233021D
:1011D000109232021092310281E08093300210921C
:1011E0002F0261E082E10E948C0061E083E10E94B5
:1011F0008C008091B9008E7F8093B9008091B900F6
:101200008D7F8093B90088E48093B80085E4809353
:10121000BC0083EA91E090932E0280932D0284EA31
:1012200091E090932C0280932B02109245038091C1
:101230004903823018F098E09093450390914A0357
:10124000992339F0813029F480914503846080939B
:10125000450362E370E080E090E00E943901609114
:101260004B0380E493E00E94780368EE73E080E033
:1012700090E00E94390160E380E493E00E946404FE
:101280000BE416E4C8010197F1F760E380E493E012
:101290000E946404C8010197F1F760E380E493E0E1
:1012A0000E94640483E592E00197F1F760E280E434
:1012B00093E00E94640460914503606240E080E432
:1012C00093E00E947D0484E08093460340E06CE05C
:1012D00080E493E00E947D0440E061E080E493E0DC
:1012E0000E947D040BE31FE1C8010197F1F782E042
:1012F0008093470340E066E080E493E00E947D0431
:1013000040E062E080E493E00E947D04C801019720
:10131000F1F788E080934B0360E080E493E00E9463
:10132000780368EC70E080E090E00E94390161E0B1
:101330008CE00E948C0068E270E080E090E00E9407
:10134000390160E08CE00E948C0068EC70E080E085
:1013500090E00E94390161E08CE00E948C0068E21C
:1013600070E080E090E00E94390160E08CE00E9433
:101370008C0060ED77E080E090E00E94390161E050
:101380008CE00E948C0065E070E080E090E00E94BC
:10139000390160E08CE00E948C0000E010E0809158
:1013A0003F03823008F07EC0F89484E393E00E940B
:1013B000DF0378941A8219821C821B821E821D828E
:1013C000CE0101960E94F40418861F821A8619869F
:1013D0001C861B86CE0107960E94F4041E861D867D
:1013E000188A1F861A8A198ACE010D960E94F40463
:1013F0001C8A1B8A1E8A1D8A188E1F8ACE0143965C
:101400000E94F40462E471E0CE0101960E94170587
:1014100067E571E0CE0107960E9417056CE671E062
:10142000CE0107960E94170567E571E0CE010D9683
:101430000E94170580E00E949404CE0101960E944C
:101440009A0181E00E949404CE0107960E949A01BD
:1014500082E00E949404CE010D960E949A0183E0DE
:101460000E949404CE0143960E949A01CE014396B5
:101470000E942D04CE010D960E942D04CE010796E8
:101480000E942D04CE0101960E942D040115110524
:1014900009F485CF0E94E201882309F480CF0E94DD
:1014A00000007DCFF89485CFF999FECF92BD81BD24
:1014B000F89A992780B508952F923F924F925F92A4
:1014C0006F927F928F929F92AF92BF92CF92DF9254
:1014D000EF92FF920F931F93CF93DF93CDB7DEB7B9
:1014E000CA1BDB0B0FB6F894DEBF0FBECDBF09944D
:1014F0002A88398848885F846E847D848C849B84A4
:10150000AA84B984C884DF80EE80FD800C811B81B1
:10151000AA81B981CE0FD11D0FB6F894DEBF0FBEE0
:10152000CDBFED010895EE0FFF1F0590F491E02D62
:1015300009940F931F93CF93DF938230910510F49A
:1015400082E090E0E0914E03F0914F0330E020E024
:10155000B0E0A0E0309799F42115310509F44AC0B4
:10156000281B390B24303105D8F58A819B81611500
:10157000710589F1FB0193838283FE0111C04081D3
:1015800051810281138148175907E0F04817590724
:1015900099F4109761F012960C93129713961C937E
:1015A0003296CF01DF91CF911F910F910895009353
:1015B0004E0310934F03F4CF2115310551F042171C
:1015C000530738F0A901DB019A01BD01DF01F801E1
:1015D000C1CFEF01F9CF90934F0380934E03CDCF4E
:1015E000FE01E20FF31F8193919322503109398359
:1015F0002883D7CF20914C0330914D03232B41F406
:10160000209106013091070130934D0320934C0344
:1016100020910401309105012115310541F42DB7C8
:101620003EB74091080150910901241B350BE09110
:101630004C03F0914D03E217F307A0F42E1B3F0B70
:101640002817390778F0AC014E5F5F4F2417350734
:1016500048F04E0F5F1F50934D0340934C0381930E
:1016600091939FCFF0E0E0E09CCFCF93DF93009782
:10167000E9F0FC01329713821282A0914E03B091DF
:101680004F03ED0130E020E01097A1F4208131817B
:10169000820F931F20914C0330914D032817390777
:1016A00009F061C0F0934D03E0934C03DF91CF91BB
:1016B0000895EA01CE17DF07E8F54A815B819E01B4
:1016C00041155105B1F7E901FB83EA83499159912D
:1016D000C40FD51FEC17FD0761F48081918102963C
:1016E000840F951FE90199838883828193819B836D
:1016F0008A83F0E0E0E012968D919C911397009719
:10170000B9F52D913C911197CD010296820F931F4F
:1017100020914C0330914D032817390739F6309743
:1017200051F510924F0310924E03B0934D03A093C6
:101730004C03BCCFD383C28340815181840F951F5A
:10174000C817D90761F44E5F5F4F88819981480FB0
:10175000591F518340838A819B8193838283211502
:10176000310509F0B0CFF0934F03E0934E039ECFC5
:10177000FD01DC01C0CF13821282D7CFB0E0A0E020
:10178000E4ECFBE00C945E0A8C01009751F4CB0171
:101790000E94990A8C01C801CDB7DEB7E0E10C9434
:1017A0007A0AFC01E60FF71F9C0122503109E2176B
:1017B000F30708F49DC0D901CD91DC911197C617AC
:1017C000D70798F0C530D10530F3CE0104978617BE
:1017D000970708F3C61BD70B2297C193D1936D933C
:1017E0007C93CF010E94350BD6CF5B01AC1ABD0AAA
:1017F0004C018C0E9D1EA0914E03B0914F03512CB5
:10180000412CF12CE12C109731F580914C039091F3
:101810004D038815990509F05CC04616570608F077
:1018200058C08091040190910501009741F48DB753
:101830009EB74091080150910901841B950BE81750
:10184000F90708F055C0F0934D03E0934C03F901FC
:1018500071836083A0CF8D919C91119712966C90AB
:10186000129713967C901397A815B90559F56C013A
:1018700042E0C40ED11CCA14DB0420F1AC014A19A9
:101880005B09DA011296159780F0628273825183A8
:101890004083D9016D937C93E114F10471F0D70179
:1018A0001396FC93EE93129776CF22968C0F9D1F82
:1018B000F90191838083F301EFCFF0934F03E0931D
:1018C0004E0369CF4816590608F42C017D01D30157
:1018D0009ACFCB010E94990A7C01009749F0AE0192
:1018E000B8010E947B0CC8010E94350B870153CFC1
:1018F00010E000E050CFFB01DC0102C001900D922E
:1019000041505040D8F70895FB01DC0101900D9241
:0A1910000020E1F70895F894FFCFDE
:10191A006C016C01000050038000000040001400BC
:10192A0054000000000018026D01A5016502D601ED
:10193A00B401C8010000000049031C03DC03F202E1
:10194A0015030203F30200000000C6046D01DC0364
:10195A00F1022020202043686F7365204D6F646573
:10196A003A20202020200020202020202020202073
:10197A00202020202020202020202000203E205629
:10198A004356202020202042504150202020202051
:02199A0000004B
:00000001FF
