:100000000C94DF000C9490070C9469070C94070182
:100010000C9407010C9407010C9407010C94070140
:100020000C9407010C9407010C9407010C94070130
:100030000C9407010C9407010C9407010C94070120
:100040000C941F070C9407010C94DD070C94B70760
:100050000C9407010C9407010C9407010C94070100
:100060000C940F080C94070100407A10F35A00A07A
:10007000724E18090010A5D4E80000E87648170071
:1000800000E40B54020000CA9A3B000000E1F505B1
:10009000000080969800000040420F000000A086FB
:1000A00001000000102700000000E803000000002D
:1000B0006400000000000A000000000001000000D1
:1000C00000002C76D888DC674F0823DFC1DFAE59EB
:1000D000E1B1B796E5E3E453C63AE651997696E87E
:1000E000E6C28426EB898C9B62ED407C6FFCEFBC02
:1000F0009C9F40F2BAA56FA5F490055A2AF75C932D
:100100006B6CF9676DC11BFCE0E40D47FEF520E662
:10011000B500D0ED902E0300943577050080841E45
:10012000080000204E0A000000C80C333333330FA0
:10013000986E12831141EF8D2114893BE65516CF3D
:10014000FEE6DB18D1844B381BF77C1D901DA4BB49
:10015000E424203284725E228100C9F124ECA1E5FE
:100160003D2700000000240027002A0000000000B6
:10017000250028002B0000000008000201000003F9
:100180000407000000000000000001020408102025
:100190004080010204081020010204081020000021
:1001A00000002300260029000404040404040404BD
:1001B0000202020202020303030303032E091124B5
:1001C0001FBECFEFD8E0DEBFCDBF23E0AEE9B1E088
:1001D00001C01D92AE3AB207E1F711E0A0E0B1E034
:1001E000E6ECFFE202C005900D92AE39B107D9F7F7
:1001F00010E0CFEDD0E004C02197FE010E94E91588
:10020000CE3DD107C9F70E94D90A0C94E1170C948E
:1002100000002091740281E0213208F044C08091F6
:1002200050028111FCCF8091730292E090935002B2
:1002300091E090934F029FEF90934E0210924D02E7
:1002400020934C02A3E5B2E0ECE2F2E090E0291347
:1002500031C010922B0290912B02880F892B809332
:100260002B0280912A02813049F510922A02809156
:100270002B028093BB008091BC0083FDF8CF85ECFE
:100280008093BC00809150028230E1F380914E0255
:100290008F3FB1F080914E028032A1F080914E02EA
:1002A000803391F084E01092520210927402109206
:1002B000510208953D9131939F5FC9CF85EEE0CF04
:1002C00080E0F1CF82E0EFCF83E0EDCF833081F0AB
:1002D00028F4813099F08230A9F008958730A9F090
:1002E0008830C9F08430B1F4809180008F7D03C0E4
:1002F000809180008F7780938000089584B58F77F8
:1003000084BD089584B58F7DFBCF8091B0008F7739
:100310008093B00008958091B0008F7DF9CFCF9386
:10032000DF93282F30E0F901EA58FE4F8491F9015C
:10033000E657FE4FD491F901E855FE4FC491CC2306
:10034000A1F081110E946601EC2FF0E0EE0FFF1F7B
:10035000E256FE4FA591B491EC91ED2381E090E03F
:1003600009F480E0DF91CF91089580E090E0FACF2A
:100370001F93CF93DF93282F30E0F901EA58FE4F07
:100380008491F901E657FE4FD491F901E855FE4FEB
:10039000C491CC23A9F0162F81110E946601EC2F85
:1003A000F0E0EE0FFF1FE459FE4FA591B4918FB717
:1003B000F894EC91111108C0D095DE23DC938FBF27
:1003C000DF91CF911F910895DE2BF8CFCF93DF936C
:1003D00090E0FC01E657FE4F249188559E4FFC01AA
:1003E00084918823C9F090E0880F991FFC01EE5991
:1003F000FE4FA591B491FC01E459FE4FC591D491F3
:1004000061110DC09FB7F8948C91209582238C9335
:100410008881282328839FBFDF91CF910895623080
:1004200051F49FB7F8943C91822F809583238C934D
:10043000E8812E2BEFCF8FB7F894EC912E2B2C93D5
:100440008FBFEACF3FB7F8948091260290912702A0
:10045000A0912802B091290226B5A89B05C02F3F84
:1004600019F00196A11DB11D3FBFBA2FA92F982FDA
:100470008827BC01CD01620F711D811D911D42E0D5
:10048000660F771F881F991F4A95D1F708958F929D
:100490009F92AF92BF92CF92DF92EF92FF924B0169
:1004A0005C010E9422026B017C010E9422026C19F5
:1004B0007D098E099F09683E734081059105A8F367
:1004C00021E0821A9108A108B10888EEC80E83E0E5
:1004D000D81EE11CF11C81149104A104B10429F778
:1004E000FF90EF90DF90CF90BF90AF909F908F9054
:1004F00008952FB7F89460912202709123028091A1
:100500002402909125022FBF089508950895AF9277
:10051000BF92CF92DF92EF92FF920F931F93CF93F0
:10052000DF936C017B018B01040F151FEB015E0152
:10053000AE18BF08C017D10759F06991D601ED91E7
:10054000FC910190F081E02DC6010995892B79F786
:10055000C501DF91CF911F910F91FF90EF90DF9038
:10056000CF90BF90AF90089508950895FC01538DEA
:10057000448D252F30E0842F90E0821B930B54177D
:1005800010F0CF96089501970895FC01918D828D0A
:10059000981761F0A28DAE0FBF2FB11D5D968C91A3
:1005A000928D9F5F9F73928F90E008958FEF9FEFE2
:1005B0000895FC01918D828D981731F0828DE80F9E
:1005C000F11D858D90E008958FEF9FEF0895FC0158
:1005D000918D228D892F90E0805C9F4F821B910925
:1005E0008F739927089585E792E00E94E70221E042
:1005F000892B09F420E0822F089580E090E0892B78
:1006000029F00E94F30281110C9400000895FC016E
:10061000A48DA80FB92FB11DA35ABF4F2C91848D63
:1006200090E001968F739927848FA689B7892C93C0
:10063000A089B1898C91837080648C93938D848D13
:10064000981306C00288F389E02D80818F7D808316
:100650000895EF92FF920F931F93CF93DF93EC01D6
:1006600081E0888F9B8D8C8D98131AC0E889F98959
:10067000808185FF15C09FB7F894EE89FF8960835C
:10068000E889F98980818370806480839FBF81E0DD
:1006900090E0DF91CF911F910F91FF90EF9008951F
:1006A000F62E0B8D10E00F5F1F4F0F731127E02EFA
:1006B0008C8D8E110CC00FB607FCFACFE889F98932
:1006C000808185FFF5CFCE010E940703F1CFEB8D2E
:1006D000EC0FFD2FF11DE35AFF4FF0829FB7F89406
:1006E0000B8FEA89FB8980818062CFCFCF93DF9324
:1006F000EC01888D8823B9F0AA89BB89E889F9893A
:100700008C9185FD03C0808186FD0DC00FB607FC6E
:10071000F7CF8C9185FFF2CF808185FFEDCFCE01A1
:100720000E940703E9CFDF91CF91089585ED809373
:10073000BC008091BC0084FDFCCF10925002089553
:100740002091DE01260F3327331F21323105ECF4CF
:1007500020915002FC0190E080E0243069F082E0BA
:100760000895A091DE012191AC0142545E4FA40F87
:10077000B52FB11D2C930196861798F38091DE0159
:10078000680F6093DE0180E0089581E0089562E0E3
:10079000FC0182810C94E601CF93DF93EC018A8106
:1007A0000E948F01388121E03817190609F420E0F2
:1007B000822FDF91CF9108950F931F93CF93DF93F3
:1007C000EC011B820E9479020C811D812E813F81E8
:1007D000601B710B820B930B688779878A879B87D5
:1007E0008A810E948F0128812817190619F48981AE
:1007F0008823D9F088859985AA85BB85843691059B
:10080000A105B10594F081E089838A810E948F015E
:1008100028812817190649F489818B8319820E943F
:1008200079026C837D838E839F838B81DF91CF914F
:100830001F910F9108950895E0910602809105029D
:10084000E81730F4F0E0E256FE4F808190E0089522
:100850008FEF9FEF089590910602809105022FEF90
:100860003FEF981748F4E92FF0E0E256FE4F208161
:1008700030E09F5F90930602C901089580910502C0
:1008800090910602891B990B0895CF92DF92EF9207
:10089000FF920F931F93CF93DF937C01CB018A01CB
:1008A00020915102222389F0EB016B01C40ED51E69
:1008B000CC15DD0569F06991D701ED91FC910190AE
:1008C000F081E02DC7010995F3CF642F0E94A003AA
:1008D000C801DF91CF911F910F91FF90EF90DF90B2
:1008E000CF900895CF93DF931F92CDB7DEB7698382
:1008F000209151022223F9F020917402203258F005
:1009000021E030E0FC013383228390E080E00F900F
:10091000DF91CF91089580915202E82FF0E0ED5AD7
:10092000FD4F998190838F5F809352028093740270
:1009300081E090E0ECCF61E0CE0101960E94A0033F
:10094000F7CF682F82E193E00C94720481E08093EA
:10095000510288E080937302109252021092740246
:1009600080910401909105016AE070E00E94801579
:10097000CB010E94A104809102019091030164E6E1
:1009800070E00E948015CB010E94A10480910001BB
:10099000909101010E94A1040C940901FC012481A1
:1009A00031E0309351022093730210925202109260
:1009B00074028385862B90E00E94A1040C940901A7
:1009C00090E080E0089561E08CE00E94B80168EC5E
:1009D00070E080E090E00E94470260E08CE00C94C0
:1009E000B801DC01ED91FD918081ED91FD91908147
:1009F000ED91FD916C9163708E2309F064609F23EB
:100A000009F06860EEE0F5E0E60FF11D659565958B
:100A10006D936D917D918D919D91099423C01AC024
:100A200012C016C010C01EC009C014C013C006C03A
:100A300019C009C00DC007C00DC014C0625070407D
:100A4000804090400BC0615070408040904006C094
:100A50006E5F01C06F5F7F4F8F4F9F4F9E938E934E
:100A60007E936E93089580911E0390911F030C94C2
:100A7000F10480912003909121030C94F1040F93D1
:100A80001F93CF938C01C62F0E94CE046C2F6460FD
:100A9000C8010E94CE046C2F6B7FC8010E94CE0457
:100AA00083EC90E00197F1F7CF911F910F9108959A
:100AB0000F931F93CF93DF938C01D62FC42F607FAA
:100AC000642B0E943F0580E1D89FB00111246C2B5C
:100AD000C801DF91CF911F910F910C943F05CF93E7
:100AE000DF93CDB7DEB728970FB6F894DEBF0FBE01
:100AF000CDBF98E0E0E1F1E0DE01119601900D92AA
:100B00009A95E1F790919B03961708F46FEF262FC3
:100B100030E0220F331F41E050E04C0F5D1F240FE7
:100B2000351FF9016081680F606840E082E993E059
:100B300028960FB6F894DEBF0FBECDBFDF91CF91E0
:100B40000C94580541E00E94580581E090E008951A
:100B5000FB0101900020E9F73197AF01461B570BCD
:100B6000DC01ED91FC910280F381E02D09940F935B
:100B70001F93CF93DF938C01EB01FC018081918166
:100B80000097E1F06881798161157105A9F04281D2
:100B900053812C813D814217530770F00E94DA1770
:100BA0008C819D81F801958384831D821C82DF9155
:100BB000CF911F910F9108950E948B168881998182
:100BC000F801918380838A819B81938382838C81C6
:100BD0009D8195838483198218821B821A82E5CFB6
:100BE000CF93DF93EC0188819981009711F00E94E7
:100BF0008B16198218821D821C821B821A82DF9139
:100C0000CF910895FC0180819181009711F00C949F
:100C10008B1608950F931F93CF93DF93EC01888178
:100C20009981009759F02A813B812617370730F0C8
:100C300081E0DF91CF911F910F9108958B016F5F3C
:100C40007F4F0E941417009759F0998388831B8364
:100C50000A832C813D81232B59F7FC011082E8CFB8
:100C600080E0E7CFEF92FF920F931F93CF93DF9334
:100C70006115710541F480E0DF91CF911F910F91D3
:100C8000FF90EF90089541155105B1F07B01EC0103
:100C90000C811D81040F151FB8010E940A068823CC
:100CA00051F3288139818C819D81B701820F931F77
:100CB0000E94DA171D830C8381E0DECFCF93DF9390
:100CC000EC01FB0101900020E9F73197AF01461BD1
:100CD000570B0E943206811103C0CE010E94F0051D
:100CE000CE01DF91CF910895CF93DF93EC01FB010B
:100CF00044815581608171810E943206811103C057
:100D0000CE010E94F005CE01DF91CF910895EF92C0
:100D1000FF920F931F93CF93DF93EC017B018A0126
:100D2000BA010E940A0681110BC0CE010E94F00593
:100D3000CE01DF91CF911F910F91FF90EF90089519
:100D40001D830C83B701888199810E94DA17F0CF47
:100D5000FB0101900020E9F73197AF01461B570BCB
:100D60000C9487060F931F93CF93DF93CDB7DEB715
:100D700062970FB6F894DEBF0FBECDBF8C01CB01DA
:100D8000F8011182108213821282158214824AE0C5
:100D9000BE016F5F7F4F0E945D10BE016F5F7F4F8E
:100DA000C8010E94A80662960FB6F894DEBF0FBE77
:100DB000CDBFDF91CF911F910F910895CF93DF9316
:100DC000EC01FB018617970749F06081718161157D
:100DD000710541F0448155810E948706CE01DF9163
:100DE000CF9108950E94F005F9CFFC011182108285
:100DF0001382128215821482FB0101900020E9F710
:100E00003197AF01461B570B0C948706FF920F9347
:100E10001F93CF93DF93EC01F62E08811981C8014F
:100E20000E941914F81621F06F2DC8010E94211498
:100E3000CE01DF91CF911F910F91FF9008951F92E6
:100E40000F920FB60F9211242F933F938F939F937E
:100E5000AF93BF938091220290912302A09124022C
:100E6000B09125023091210223E0230F2D3758F550
:100E70000196A11DB11D209321028093220290931F
:100E80002302A0932402B093250280912602909120
:100E90002702A0912802B09129020196A11DB11D3F
:100EA0008093260290932702A0932802B0932902F0
:100EB000BF91AF919F918F913F912F910F900FBE56
:100EC0000F901F90189526E8230F0296A11DB11DC3
:100ED000D2CF1F920F920FB60F9211242F933F93F0
:100EE0004F935F936F937F938F939F93AF93BF9332
:100EF000EF93FF93E0910801F09109010995FF91AB
:100F0000EF91BF91AF919F918F917F916F915F9181
:100F10004F913F912F910F900FBE0F901F901895FA
:100F20001F920F920FB60F9211242F933F934F935E
:100F30005F936F937F938F939F93AF93BF93EF9341
:100F4000FF93E0910601F09107010995FF91EF9160
:100F5000BF91AF919F918F917F916F915F914F91D1
:100F60003F912F910F900FBE0F901F9018951F92D9
:100F70000F920FB60F9211242F933F934F935F93CD
:100F80006F937F938F939F93AF93BF93EF93FF9351
:100F900085E792E00E940703FF91EF91BF91AF9127
:100FA0009F918F917F916F915F914F913F912F9181
:100FB0000F900FBE0F901F9018951F920F920FB6B3
:100FC0000F9211242F938F939F93EF93FF93E091B0
:100FD0008502F09186028081E0918B02F0918C0273
:100FE00082FD1BC0908180918E028F5F8F73209154
:100FF0008F02821741F0E0918E02F0E0EB58FD4F36
:10100000958F80938E02FF91EF919F918F912F91F9
:101010000F900FBE0F901F9018958081F4CF1F92F4
:101020000F920FB60F9211242F933F934F935F931C
:101030006F937F938F939F93AF93BF93EF93FF93A0
:101040008091B900887F803609F44AC0F0F5883273
:1010500009F4A7C018F5803109F49BC0B8F48823BF
:1010600009F4F9C0883009F494C0FF91EF91BF9161
:10107000AF919F918F917F916F915F914F913F9130
:101080002F910F900FBE0F901F901895883109F483
:1010900088C0803251F780934E0214C0803409F426
:1010A0009DC040F48033B9F38833F9F680934E0243
:1010B00085ECB0C0803509F485C0883509F496C048
:1010C000883499F60E949603D0CF883909F48CC0F1
:1010D00038F5883729F050F4883611F0803729F632
:1010E00083E0809350021092000257C0883809F4C0
:1010F0007BC0803919F0803809F0B7CF80910002A9
:10110000803208F071C0E091000281E08E0F809380
:1011100000028091BB00F0E0E052FE4F80833DC0B2
:10112000803B39F0E0F4803A09F479C0883A09F05C
:101130009CCF84E0809350021092DF011092DE0178
:10114000E0910302F091040209958091DE01811182
:101150000FC081E08093DE011092BE0109C0803C87
:1011600009F4A6CF883C09F4A3CF883B09F07DCFD2
:10117000E091DF0181E08E0F8093DF01F0E0E25427
:10118000FE4F80818093BB009091DF018091DE0152
:1011900029C080912B028093BB0085EC8093BC001A
:1011A00064CF90914D0280914C02981758F5E091D0
:1011B0004D0281E08E0F80934D02F0E0E45DFD4F23
:1011C0008081E9CFE0914D0281E08E0F80934D0246
:1011D0008091BB00F0E0E45DFD4F808390914D0273
:1011E00080914C029817C8F285E8D8CFE0914D0263
:1011F00081E08E0F80934D028091BB00F0E0E45DB2
:10120000FD4F808380914F0281115CCF81E08093FC
:101210002A0284EA8093BC001092500226CF85EC0B
:101220008093BC001092500280910002803230F412
:10123000E0910002F0E0E052FE4F10826091000267
:1012400070E0E0910102F091020280EE91E00995D8
:10125000109200020ACF10924E0234CFCF93DF9348
:10126000109278021092770288EE93E0A0E0B0E04E
:101270008093790290937A02A0937B02B0937C02D0
:101280002CE131E0309376022093750225EC30E0BA
:10129000309382022093810224EC30E03093840268
:1012A0002093830220EC30E0309386022093850265
:1012B00021EC30E0309388022093870222EC30E06A
:1012C00030938A022093890226EC30E030938C021E
:1012D00020938B0210928E0210928F021092900235
:1012E000109291021092150310921403809316032A
:1012F00090931703A0931803B09319038EE291E023
:10130000909313038093120362E083E00E94E6014E
:1013100062E082E00E94E601EBEAF1E0E491F0E0B5
:10132000EE0FFF1FE256FE4FA591B491B0939F03BD
:10133000A0939E03EDE8F1E044914093A203EAEA12
:10134000F1E0E491F0E0EE0FFF1FE256FE4FC59191
:10135000D491D093A103C093A003ECE8F1E0E49111
:10136000E093A3031092A5031092A6031092A70383
:101370001092A8032BE33FE1C9010197F1F79C917B
:10138000842F892391E009F490E08881E82309F013
:1013900092602EE933E09093A403309321032093CD
:1013A000200389E395E090930901809308018091DF
:1013B0006900837F846080936900E99A81E080936B
:1013C000A90330931F0320931E0383E395E09093BA
:1013D000070180930601809169008C7F8160809372
:1013E0006900E89A82E08093A90310929503109215
:1013F000940320E431E0309393032093920397E227
:101400009093960390E190939A0380939B0310929C
:101410009C0388E080939D0395E090938403109251
:101420008303109286031092870310928803109210
:10143000890310928A0310928B0310928C031092EE
:101440008D0310928E0310928F03109290031092CE
:10145000910396E0909374031092730310927603B5
:1014600010927703109278031092790310927A0306
:1014700010927B0310927C0310927D0310927E03E6
:1014800010927F03109280031092810397E0909353
:101490006403109263031092660310926703109224
:1014A00068031092690310926A0310926B03109202
:1014B0006C0310926D0310926E0310926F031092E2
:1014C000700310927103809354031092530310928F
:1014D000560310925703109258031092590310921A
:1014E0005A0310925B0310925C0310925D031092FA
:1014F0005E0310925F03109260031092610389E013
:1015000080934403109243031092460310924703C2
:10151000109248031092490310924A0310924B0311
:1015200010924C0310924D0310924E0310924F03F1
:1015300010925003109251038BE080933403109269
:10154000330310923603109237031092380310922F
:10155000390310923A0310923B0310923C0310920D
:101560003D0310923E0310923F03109240031092ED
:1015700041038AE0809324031092230310922603F0
:1015800010922703109228031092290310922A0325
:1015900010922B0310922C0310922D0310922E0305
:1015A00010922F031092300310923103DF91CF91EC
:1015B0000895CF93DF93CDB7DEB7C054D1090FB6EE
:1015C000F894DEBF0FBECDBF789484B5826084BD31
:1015D00084B5816084BD85B5826085BD85B5816037
:1015E00085BD80916E00816080936E0010928100B5
:1015F0008091810082608093810080918100816070
:101600008093810080918000816080938000809130
:10161000B10084608093B1008091B00081608093BC
:10162000B00080917A00846080937A0080917A0083
:10163000826080937A0080917A00816080937A0042
:1016400080917A00806880937A001092C100E091C6
:101650008502F091860282E08083E0918102F09120
:1016600082021082E0918302F09184028FEC8083E9
:1016700010928D02E0918902F0918A0286E08083C7
:10168000E0918702F0918802808180618083E091FF
:101690008702F0918802808188608083E0918702D0
:1016A000F0918802808180688083E0918702F091C8
:1016B000880280818F7D808310920602109205023D
:1016C00010925202109274021092500281E08093A4
:1016D0004F0210922A0261E082E10E94B80161E0AB
:1016E00083E10E94B8018091B9008E7F8093B90098
:1016F0008091B9008D7F8093B90088E48093B80011
:1017000085E48093BC0084EB92E090930402809384
:10171000030285EB92E09093020280930102109203
:10172000970380919B03823018F098E09093970381
:1017300090919C03992339F0813029F4809197038B
:1017400084608093970362E370E080E090E00E9401
:10175000470260919D0382E993E00E94CE0468EE07
:1017600073E080E090E00E94470260E382E993E04A
:101770000E943F050BE416E4C8010197F1F760E30E
:1017800082E993E00E943F05C8010197F1F760E309
:1017900082E993E00E943F0583E592E00197F1F72B
:1017A00060E282E993E00E943F05609197036062E6
:1017B00040E082E993E00E94580584E0809398031A
:1017C00040E06CE082E993E00E94580540E061E06F
:1017D00082E993E00E9458050BE31FE1C8010197DD
:1017E000F1F782E08093990340E066E082E993E0BC
:1017F0000E94580540E062E082E993E00E945805AB
:10180000C8010197F1F788E080939D0360E082E9C9
:1018100093E00E94CE0461E08CE00E94E60161E06A
:101820008DE00E94E6011092320360E08091340363
:101830000E94E6011092220360E0809124030E943E
:10184000E60111E01093820382E893E00E94C7034F
:101850001093720382E793E00E94C7031093620320
:1018600082E693E00E94C7031093520382E593E05F
:101870000E94C7031093420382E493E00E94C703CF
:101880000E94E30460E081E00E946F0568E471E07B
:1018900082E993E00E94A8058AE090E00E94191472
:1018A0002AE0829F70011124F0920501E092040168
:1018B0008BE090E00E94191434E6839F800111248C
:1018C00010930301009302018CE090E00E94191430
:1018D00090E09093010180930001F0921302E09256
:1018E0001202109311020093100290930F02809342
:1018F0000E0260ED77E080E090E00E9447020E94D7
:10190000A6040E94E30460E081E00E946F0569E59F
:1019100071E082E993E00E94A80561E081E00E9405
:101920006F0569E671E082E993E00E94A80568EB23
:101930007BE080E090E00E94470222E0222E312CE2
:10194000412C512C3BE0A32EB12C4CE0842E912C49
:10195000772473948091A903823008F028C2F89408
:101960008EE993E00E94F1046091A5037091A603B3
:101970008091A7039091A8037894A20191010E94FD
:10198000941569017A01C0921D02D0921E02E09264
:101990001F02F092200282E693E00E94CC0388238B
:1019A00009F407C282E593E00E94CC03811101C2D1
:1019B00082E493E00E94CC038111FBC10E94790272
:1019C0006093190270931A0280931B0290931C0279
:1019D000709218028091140290911502A091160243
:1019E000B0911702C816D906EA06FB0609F036C2FE
:1019F00082E893E00E94DC03882309F4CBC269E704
:101A000071E085E792E00E94A80562E871E085E751
:101A100092E00E94A8058091120290911302909387
:101A2000050180930401209110023091110230933E
:101A300003012093020120910E0230910F02309396
:101A40000101209300012AE030E03A8329836AE013
:101A500070E00E948015CE0101960E9406078091D9
:101A600002019091030164E670E00E948015BA8241
:101A7000A982CE0101960E940607609100019A8218
:101A80008982CE0101960E9406070E94A604109248
:101A90001802809112029091130290930D0280938C
:101AA0000C02809110029091110290930B0280938E
:101AB0000A0280910E0290910F0290930902809386
:101AC000080264E871E0CE01CB960E94F50664E856
:101AD00071E0CE01C5960E94F50664E871E0CE0182
:101AE0008F960E94F50664E871E0CE0189960E9407
:101AF000F50660910C0270910D02CE0101960E94D4
:101B0000B206BE016F5F7F4FCE01CB960E94B70534
:101B1000CE0101960E94020660910A0270910B02AA
:101B2000072E000C880B990B0E94FC1220E030E07D
:101B30004AE754E40E94D3141CA21BA21EA21DA2B9
:101B400018A61FA28E010F5F1F4F22E044E00E94E3
:101B50003F10009709F468C2BC01CE0183960E9431
:101B6000A806BE016D5D7F4FCE01C5960E94B705E8
:101B7000CE0183960E94020689AD9AAD049728F0A3
:101B8000EDA9FEA9309709F054C210920702E7E0D0
:101B9000F2E083E78083809108029091090280FD42
:101BA0004AC297FD0196BC0175956795CE010196D5
:101BB0000E94B20665E871E0CE0183960E94F506A8
:101BC000BE016F5F7F4FCE0183960E94740665E66B
:101BD00071E00E945E06BC01CE018F960E94DE0677
:101BE000CE0183960E940206CE0101960E94020653
:101BF00060910A0270910B02072E000C880B990B62
:101C00000E94FC1220E030E04AE754E40E94D31422
:101C10006B017C016091080270910902072E000C93
:101C2000880B990B0E94FC1220E030E040E05FE35B
:101C30000E945B13A70196010E945B13A701960106
:101C40000E9467149B01AC0160E070E080E792E4C1
:101C50000E94D3146B017C0120E030E0A9010E94B6
:101C60007B1520E030E040E05FE387FD03C2C70161
:101C7000B6010E9467140E9445151CA21BA21EA259
:101C80001DA218A61FA22AE0AE014F5F5F4F0E945F
:101C90006810BE016F5F7F4FCE0183960E94A80639
:101CA0006EE871E0CE0101960E94F506BE016D5D01
:101CB0007F4FCE0101960E947406BC01CE01899629
:101CC0000E94DE06CE0101960E940206CE01839696
:101CD0000E94020660E080E00E946F0563E971E007
:101CE000CE0101960E94F506BE01655C7F4FCE01D4
:101CF00001960E94740667E971E00E945E06BE01CB
:101D00006B5C7F4F0E947406FC01448155816081A9
:101D1000718182E993E00E948702CE0101960E94C0
:101D2000020661E080E00E946F051A8219821C821F
:101D30001B821E821D82BE01615D7F4FCE01019616
:101D40000E94DE06BE01675D7F4FCE0101960E94B4
:101D5000740666E671E00E945E06FC0144815581CE
:101D60006081718182E993E00E948702CE01019631
:101D70000E940206CE0189960E940206CE018F962D
:101D80000E940206CE01C5960E940206CE01CB96A5
:101D90000E94020680E090E0892B09F4DBCD0E94CE
:101DA000F302882309F4D4CD0E940000D1CDF89429
:101DB000DBCD82E693E00E94CC03882309F48FC038
:101DC00082E693E00E94CC038111DBC082E593E0C0
:101DD0000E94CC038111D5C082E493E00E94CC0321
:101DE000882309F4CEC00E9479026093190270938F
:101DF0001A0280931B0290931C0270921802809129
:101E0000140290911502A0911602B0911702C81603
:101E1000D906EA06FB0609F4EBCDF601E81BF90B3F
:101E2000CF0120910E0230910F02C0921402D09285
:101E30001502E0921602F0921702820F931F89306A
:101E4000910514F088E090E08230910514F482E06E
:101E500090E090930F0280930E0228C0B701A60174
:101E6000481B590B6A0B7B0B2AE0249FC001259F5E
:101E7000900D11242091120230911302C09214028D
:101E8000D0921502E0921602F0921702820F931F71
:101E9000893AE2E09E0714F088EA92E097FF02C0D8
:101EA00090E080E0909313028093120280911802D8
:101EB00081119ECD809104019091050190930D02B6
:101EC00080930C02809102019091030190930B0288
:101ED00080930A028091000190910101EECD82E58C
:101EE00093E00E94CC03882309F46ACF82E493E054
:101EF0000E94CC03811164CF0E9479026093190281
:101F000070931A0280931B0290931C027092180225
:101F10008091140290911502A0911602B0911702BF
:101F2000C816D906EA06FB0609F462CDB701A60178
:101F3000481B590B6A0B7B0B24E6249FC001259F8D
:101F4000900D11242091100230911102C0921402C0
:101F5000D0921502E0921602F0921702820F931FA0
:101F6000893BFBE09F0714F088EB9BE0803223E085
:101F7000920714F480E293E0909311028093100290
:101F800095CFC0921402D0921502E0921602F09200
:101F900017028CCF82E793E00E94DC03882379F15B
:101FA00069E771E085E792E00E94A80562E871E0C8
:101FB00085E792E00E94A8058091040190910501B7
:101FC0009093130280931202809102019091030179
:101FD0009093110280931002809100019091010171
:101FE00090930F0280930E020E947902609319026F
:101FF00070931A0280931B0290931C0248CD0E949A
:1020000079020091190210911A0220911B0230915D
:102010001C02601B710B820B930B60327E448105A6
:10202000910508F0BDCF35CDCE0183960E94F00515
:1020300098CD3396AECDBC016150710977FDBC01DE
:1020400075956795CE0101960E94B20665E871E02C
:10205000CE0183960E94F506BE016F5F7F4FCE01D1
:1020600083960E9474066BE871E00E945E0667E644
:1020700071E0AFCDC701B6010E946614FCCDEF92AE
:102080000F931F93CF93DF93E80134E047FD34E1D2
:10209000042E000C550B57FF03C051954195510973
:1020A000E32E022F242FAE010E94B310CE01DF9148
:1020B000CF911F910F91EF900895BB274A3031F4D3
:1020C000992322F4BDE2909581959F4F0C949A102C
:1020D000BB272A3051F4992342F4BDE290958095B4
:1020E000709561957F4F8F4F9F4F0C947810BB2751
:1020F000FA01A62F6217710581059105330B30FB9C
:1021000066F0AA27660F771F881F991FAA1FA217BC
:1021100010F0A21B63953850A9F7A05DAA3308F010
:10212000A95DA19336F7B111B1931082CA010C9445
:10213000EA12BB27FB015527AA27880F991FAA1F60
:10214000A41710F0A41B83955051B9F7A05DAA33D2
:1021500008F0A95DA193009779F7B111B19311929D
:10216000CB010C94EA12A9E0B0E0E9EBF0E10C94A9
:1021700035146A01F22EB02E102FFBE3AF2EA016FD
:1021800008F41BE31F5F012F27E0AE014F5F5F4F95
:102190000E941212BC018981982F9970913009F424
:1021A0003FC09BE2E1FC04C09E2D9170E0FC3AC070
:1021B0005E2D5071E82FE87083FF46C084E09111D6
:1021C00001C083E0EF2DE81B8F1508F0E0E0D60199
:1021D0008E2F20E2552351F1992329F0D6019C93AB
:1021E000C60101966C0196012D5F3F4FE2FE24C0AF
:1021F0008EE4D6018C9391E411969C9311971296DC
:102200008C93D9018E2F90E281111BC0E20FF32F26
:10221000F11D10828EEF9FEF2996ECE00C94511483
:102220009DE2C6CF90E2C4CF2D9381508111FCCFA7
:10223000CE0ED11CE0E0D0CF8EE6D6018C9391E695
:10224000DBCF9D938150E0CF482F447082FF3DC08B
:1022500084E0911101C083E08F1510F4EF2DE81B8D
:10226000D6018E2F20E2552309F1992329F0D601BA
:102270009C93C60101966C0196012D5F3F4FE2FED3
:102280001BC089E4D6018C938EE411968C93119730
:1022900086E412968C93D9018E2F90E2882309F45C
:1022A000B5CF9D938150FACF2D9381508111FCCFF2
:1022B000CE0ED11CE0E0D9CF89E6D6018C938EE614
:1022C00011968C93119786E6E4CF9B0177FF02C0AD
:1022D00030E020E0A1E0B0E0911102C0B0E0A0E069
:1022E000F9013196AE0FBF1F8B2C912CBB2009F446
:1022F00061C05401EFEFAE1ABE0AAA0DBB1DFA165B
:102300001B0619F014F04F2D4A1B511188C0E3FC35
:1023100059C07601A42FB0E2A1114FC0C40ED11C48
:10232000992309F45BC040E0D6011196F601908331
:102330006D01552309F448C0012F060F9A81582FCB
:10234000507184FF03C0913309F4015010160CF052
:1023500047C0093008F008E0EEE2FE2E5B01A01A4B
:10236000B10885019194819491082F3F320729F497
:10237000D601FC92F60131966F016217730794F152
:10238000021713077CF5DB01A21BB30BAA24A3944D
:10239000B12CAC0EBD1EAA0DBB1D11968C91215007
:1023A0003109D601119628153905F4F0F60180831C
:1023B0006D01DBCFB12CA12CA0CFF701B1937F0130
:1023C000A150AACF9111B0CFD601942F50E302C0F3
:1023D0005D9391509111FCCFC40ED11C40E0ACCF65
:1023E00001E0BACF80E3DBCF6217730731F4963395
:1023F00088F4953311F4552369F0F6018083FD01CB
:10240000842F90E2811108C0A40FB11D1C9290E0AE
:1024100080E002CF81E3F1CF91938150F3CF91110E
:1024200083CF8ACF283008F027E03327DA01990FCD
:10243000311D87FD916000966105710539F43260A8
:102440002E5F3D9330E32A95E1F708959F3F30F0EA
:1024500080387105610509F03C5F3C5F3D93913028
:1024600008F08068911DDF93CF931F930F93FF9225
:10247000EF92192F987F9695E92F96959695E90FEB
:10248000FF27EE53FF4F99273327EE24FF24A701A0
:10249000E70105900894079428F4360FE71EF81E0C
:1024A000491F511D660F771F881F991F0694A1F7BA
:1024B0000590079428F4E70EF81E491F561FC11D0A
:1024C000770F881F991F661F0694A1F70590079440
:1024D00028F4F80E491F561FC71FD11D880F991FDA
:1024E000661F771F0694A1F70590079420F4490F03
:1024F000561FC71FD81F990F661F771F881F069486
:10250000A9F784911095177041F0D695C795579506
:102510004795F794E7941A95C1F7E8E6F0E06894D8
:102520001590159135916591959105907FE2739580
:10253000E118F10A430B560BC90BD009C0F7E10CA7
:10254000F11E431F561FC91FD01D7EF4703311F4B6
:102550008A95E6CFE894015030F0080F0AF400277E
:10256000021708F4202F2395022F7A3328F079E3FD
:102570007D932A95E9F710C07D932A9589F60694F4
:1025800097956795379517951794E118F10A430BBE
:10259000560BC90BD00998F023957E9173957A3329
:1025A00008F070E37C932013B8F77E9170617D93FF
:1025B00030F0839571E37D9370E32A95E1F7112460
:1025C000EF90FF900F911F91CF91DF91992787FD99
:1025D00090950895DC01FC01672F71917723E1F755
:1025E000329704C07C916D9370836291AE17BF07E0
:1025F000C8F30895E89409C097FB3EF49095809540
:10260000709561957F4F8F4F9F4F9923A9F0F92FB8
:1026100096E9BB279395F695879577956795B79536
:10262000F111F8CFFAF4BB0F11F460FF1BC06F5F1C
:102630007F4F8F4F9F4F16C0882311F096E911C02E
:10264000772321F09EE8872F762F05C0662371F04F
:1026500096E8862F70E060E02AF09A95660F771F63
:10266000881FDAF7880F9695879597F90895990F3F
:102670000008550FAA0BE0E8FEEF16161706E8074C
:10268000F907C0F012161306E407F50798F0621B6D
:10269000730B840B950B39F40A2661F0232B242B42
:1026A000252B21F408950A2609F4A140A6958FEF61
:1026B000811D811D08950E946E130C94DF130E94EA
:1026C000D11338F00E94D81320F0952311F00C9408
:1026D000C8130C94CE1311240C9413140E94F013FD
:1026E00070F3959FC1F3950F50E0551F629FF00165
:1026F000729FBB27F00DB11D639FAA27F00DB11D7E
:10270000AA1F649F6627B00DA11D661F829F222706
:10271000B00DA11D621F739FB00DA11D621F839F8D
:10272000A00D611D221F749F3327A00D611D231F63
:10273000849F600D211D822F762F6A2F11249F57B1
:1027400050409AF0F1F088234AF0EE0FFF1FBB1FB4
:10275000661F771F881F91505040A9F79E3F510573
:1027600080F00C94C8130C9413145F3FE4F3983E6C
:10277000D4F3869577956795B795F795E7959F5F1D
:10278000C1F7FE2B880F911D9695879597F90895AF
:1027900097F99F6780E870E060E008959FEF80EC14
:1027A000089500240A9416161706180609060895B7
:1027B00000240A9412161306140605060895092E1D
:1027C0000394000C11F4882352F0BB0F40F4BF2B8C
:1027D00011F460FF04C06F5F7F4F8F4F9F4F0895CC
:1027E00057FD9058440F551F59F05F3F71F04795C2
:1027F000880F97FB991F61F09F3F79F087950895A7
:10280000121613061406551FF2CF4695F1DF08C0C5
:10281000161617061806991FF1CF869571056105E2
:1028200008940895E894BB2766277727CB0197F98A
:102830000895F999FECF92BD81BDF89A992780B588
:102840000895262FF999FECF1FBA92BD81BD20BDF4
:102850000FB6F894FA9AF99A0FBE019608952F923E
:102860003F924F925F926F927F928F929F92AF9220
:10287000BF92CF92DF92EF92FF920F931F93CF936D
:10288000DF93CDB7DEB7CA1BDB0B0FB6F894DEBF04
:102890000FBECDBF09942A88398848885F846E842A
:1028A0007D848C849B84AA84B984C884DF80EE8074
:1028B000FD800C811B81AA81B981CE0FD11D0FB67D
:1028C000F894DEBF0FBECDBFED0108955058BB2771
:1028D000AA270E947E140C94DF130E94D11338F0B3
:1028E0000E94D81320F039F49F3F19F426F40C9479
:1028F000CE130EF4E095E7FB0C94C813E92F0E9469
:10290000F01358F3BA17620773078407950720F08E
:1029100079F4A6F50C9412140EF4E0950B2EBA2F50
:10292000A02D0B01B90190010C01CA01A0011124D5
:10293000FF27591B99F0593F50F4503E68F11A1681
:10294000F040A22F232F342F4427585FF3CF469512
:1029500037952795A795F0405395C9F77EF41F1634
:10296000BA0B620B730B840BBAF09150A1F0FF0FFE
:10297000BB1F661F771F881FC2F70EC0BA0F621FEA
:10298000731F841F48F4879577956795B795F795DA
:102990009E3F08F0B0CF9395880F08F09927EE0F6F
:1029A0009795879508950E94E7140C94DF130E9471
:1029B000D81358F00E94D11340F029F45F3F29F05A
:1029C0000C94C81351110C9413140C94CE130E9440
:1029D000F01368F39923B1F3552391F3951B550B2D
:1029E000BB27AA2762177307840738F09F5F5F4FE2
:1029F000220F331F441FAA1FA9F335D00E2E3AF021
:102A0000E0E832D091505040E695001CCAF72BD038
:102A1000FE2F29D0660F771F881FBB1F2617370789
:102A20004807AB07B0E809F0BB0B802DBF01FF27BB
:102A300093585F4F3AF09E3F510578F00C94C813BD
:102A40000C9413145F3FE4F3983ED4F38695779586
:102A50006795B795F7959F5FC9F7880F911D969574
:102A6000879597F90895E1E0660F771F881FBB1FD0
:102A7000621773078407BA0720F0621B730B840B7D
:102A8000BA0BEE1F88F7E09508950E944C156894E4
:102A9000B1110C94131408950E94F81388F09F57F5
:102AA00098F0B92F9927B751B0F0E1F0660F771F72
:102AB000881F991F1AF0BA95C9F714C0B13091F068
:102AC0000E941214B1E008950C941214672F782F0D
:102AD0008827B85F39F0B93FCCF38695779567952D
:102AE000B395D9F73EF490958095709561957F4F99
:102AF0008F4F9F4F08950E94371308F48FEF08956A
:102B000097FB072E16F4009407D077FD09D00E949A
:102B1000B31507FC05D03EF4909581959F4F08951D
:102B2000709561957F4F0895052E97FB1EF40094D4
:102B30000E94AB1557FD07D00E94C71507FC03D0B4
:102B40004EF40C94AB1550954095309521953F4F20
:102B50004F4F5F4F089590958095709561957F4F89
:102B60008F4F9F4F0895AA1BBB1B51E107C0AA1F9F
:102B7000BB1FA617B70710F0A61BB70B881F991F1E
:102B80005A95A9F780959095BC01CD010895A1E2D1
:102B90001A2EAA1BBB1BFD010DC0AA1FBB1FEE1FD7
:102BA000FF1FA217B307E407F50720F0A21BB30B22
:102BB000E40BF50B661F771F881F991F1A9469F79E
:102BC00060957095809590959B01AC01BD01CF01FA
:102BD0000895EE0FFF1F0590F491E02D09940F93D7
:102BE0001F93CF93DF938230910510F482E090E041
:102BF000E091AC03F091AD0330E020E0B0E0A0E064
:102C0000309799F42115310509F44AC0281B390B76
:102C100024303105D8F58A819B816115710589F1D0
:102C2000FB0193838283FE0111C0408151810281A7
:102C3000138148175907E0F04817590799F410977E
:102C400061F012960C93129713961C933296CF0153
:102C5000DF91CF911F910F9108950093AC031093D2
:102C6000AD03F4CF2115310551F04217530738F069
:102C7000A901DB019A01BD01DF01F801C1CFEF011C
:102C8000F9CF9093AD038093AC03CDCFFE01E20F5B
:102C9000F31F819391932250310939832883D7CF31
:102CA0002091AA033091AB03232B41F420910C0116
:102CB00030910D013093AB032093AA0320910A01B8
:102CC00030910B012115310541F42DB73EB74091EC
:102CD0000E0150910F01241B350BE091AA03F091D6
:102CE000AB03E217F307A0F42E1B3F0B281739079D
:102CF00078F0AC014E5F5F4F2417350748F04E0F58
:102D00005F1F5093AB034093AA03819391939FCF8E
:102D1000F0E0E0E09CCFCF93DF930097E9F0FC0177
:102D2000329713821282A091AC03B091AD03ED01F2
:102D300030E020E01097A1F420813181820F931FB1
:102D40002091AA033091AB032817390709F061C01D
:102D5000F093AB03E093AA03DF91CF910895EA01CA
:102D6000CE17DF07E8F54A815B819E0141155105C9
:102D7000B1F7E901FB83EA8349915991C40FD51F4B
:102D8000EC17FD0761F4808191810296840F951FF5
:102D9000E90199838883828193819B838A83F0E010
:102DA000E0E012968D919C9113970097B9F52D91C3
:102DB0003C911197CD010296820F931F2091AA0397
:102DC0003091AB032817390739F6309751F5109237
:102DD000AD031092AC03B093AB03A093AA03BCCF96
:102DE000D383C28340815181840F951FC817D907AF
:102DF00061F44E5F5F4F88819981480F591F51835D
:102E000040838A819B81938382832115310509F058
:102E1000B0CFF093AD03E093AC039ECFFD01DC0196
:102E2000C0CF13821282D7CFB0E0A0E0EAE1F7E191
:102E30000C9431148C01009751F4CB010E94EF15D2
:102E40008C01C801CDB7DEB7E0E10C944D14FC0154
:102E5000E60FF71F9C0122503109E217F30708F42F
:102E60009DC0D901CD91DC911197C617D70798F075
:102E7000C530D10530F3CE0104978617970708F3C4
:102E8000C61BD70B2297C193D1936D937C93CF012F
:102E90000E948B16D6CF5B01AC1ABD0A4C018C0E7A
:102EA0009D1EA091AC03B091AD03512C412CF12C8F
:102EB000E12C109731F58091AA039091AB0388150E
:102EC000990509F05CC04616570608F058C0809175
:102ED0000A0190910B01009741F48DB79EB7409184
:102EE0000E0150910F01841B950BE817F90708F0AC
:102EF00055C0F093AB03E093AA03F901718360839B
:102F0000A0CF8D919C91119712966C901297139669
:102F10007C901397A815B90559F56C0142E0C40ED1
:102F2000D11CCA14DB0420F1AC014A195B09DA0197
:102F30001296159780F06282738251834083D90183
:102F40006D937C93E114F10471F0D7011396FC9317
:102F5000EE93129776CF22968C0F9D1FF9019183E5
:102F60008083F301EFCFF093AD03E093AC0369CF1F
:102F70004816590608F42C017D01D3019ACFCB01E4
:102F80000E94EF157C01009749F0AE01B8010E9444
:102F9000D117C8010E948B16870153CF10E000E0C3
:102FA00050CFFB01DC0102C001900D924150504016
:102FB000D8F70895FB01DC0101900D920020E1F7A4
:062FC0000895F894FFCF14
:102FC6000200E8036400850285020000AE0380006B
:102FD600000040001400540000000000290387028E
:102FE600B6027603E702C502D902000000007204A9
:102FF6004504E0041B043E042B041C0400000000EE
:10300600A2058702E0048602202053544152544907
:103016004E472E2E2E2020200020202020205245F4
:10302600414459202020202000434845434B20534B
:10303600455454494E475320005052657373696E88
:1030460067000D0A0049453D313A002E35004250D1
:0E3056004D3D0054563D006D6C2054493D0028
:00000001FF
