:100000000C9450010C941C130C94F5120C94CE1209
:100010000C94A7120C9478010C9478010C94801223
:100020000C9478010C9478010C9443130C94B21343
:100030000C9478010C9478010C9478010C9478015C
:100040000C9478010C9478010C9478010C9478014C
:100050000C9478010C9478010C9478010C9436126D
:100060000C9478010C9478010C9478010C9478012C
:100070000C9478010C9478010C9478010C9478011C
:100080000C9478010C9478010C9478010C9478010C
:100090000C94E4150C9478010C9478010C9478017C
:1000A0000C9478010C9478010C94780100407A103B
:1000B000F35A00A0724E18090010A5D4E80000E819
:1000C0007648170000E40B54020000CA9A3B000077
:1000D00000E1F505000080969800000040420F0006
:1000E0000000A08601000000102700000000E803C7
:1000F000000000006400000000000A000000000092
:100100000100000000002C76D888DC674F0823DF50
:10011000C1DFAE59E1B1B796E5E3E453C63AE65123
:10012000997696E8E6C28426EB898C9B62ED407C4A
:100130006FFCEFBC9C9F40F2BAA56FA5F490055AE6
:100140002AF75C936B6CF9676DC11BFCE0E40D470B
:10015000FEF520E6B500D0ED902E0300943577052E
:100160000080841E080000204E0A000000C80C33E6
:100170003333330F986E12831141EF8D2114893B75
:10018000E65516CFFEE6DB18D1844B381BF77C1DF5
:10019000901DA4BBE424203284725E228100C9F148
:1001A00024ECA1E53D27080B00020202000009042F
:1001B00000000102020000052400100105240101D5
:1001C000010424020605240600010705810310002E
:1001D0004009040100020A00000007050202400075
:1001E0000007058302400000040309041201000215
:1001F000EF020140412341800001010203014172ED
:100200006475696E6F204C4C430041726475696E71
:100210006F2059756E0000000000240027002A009E
:100220002D00300000000000250028002B002E00CB
:1002300031000000000200090F0000030401000C5F
:1002400000000000000000000000000000000000AE
:1002500000040802011040804010204080408008C7
:100260000204018040201002011080102040402034
:10027000000000002300260029002C002F000404A9
:10028000040404030405020202020403020202023F
:10029000060606060606040402020204040003170A
:1002A00011241FBECFEFDAE0DEBFCDBF26E0A6E00F
:1002B000B4E001C01D92AD33B207E1F714E0A0E055
:1002C000B1E0E8EDFCE402C005900D92A630B10764
:1002D000D9F711E0C0E5D1E004C02197FE010E94EA
:1002E0003C24CF34D107C9F70E9451180C946A26D8
:1002F0000C9400008230B1F140F4882309F446C028
:10030000813009F457C080E008958330B1F0873020
:10031000D1F781E296E090931C0580931B058BE456
:1003200098E0909318018093170180916A008F7C68
:10033000806180936A00EE9A13C081E296E0909308
:1003400014058093130583E398E090931001809344
:100350000F01809169008C7F816080936900E89A29
:1003600081E0089581E296E090931605809315054B
:1003700089E398E0909312018093110180916900C4
:10038000837F846080936900E99AEACF81E296E0F6
:1003900090931805809317058FE398E090931401CC
:1003A00080931301809169008F7C80618093690044
:1003B000EA9AD6CF21E236E030931A052093190548
:1003C00025E438E0309316012093150190916900DF
:1003D0009F73906490936900EB9A089520911205A1
:1003E00081E0213208F044C08091EE048111FCCFFD
:1003F0008091110592E09093EE0491E09093ED04CA
:100400009FEF9093EC041092EB042093EA04A1EF89
:10041000B4E0EAECF4E090E0291331C01092C90492
:100420009091C904880F892B8093C9048091C804D6
:10043000813049F51092C8048091C9048093BB00B3
:100440008091BC0083FDF8CF85EC8093BC00809147
:10045000EE048230E1F38091EC048F3FB1F08091A3
:10046000EC048032A1F08091EC04803391F084E0C0
:100470001092F004109212051092EF0408953D912D
:1004800031939F5FC9CF85EEE0CF80E0F1CF82E06E
:10049000EFCF83E0EDCFFC018091B104882311F10F
:1004A0003FB7F89482E08093E9002091F200822F18
:1004B00090E01816190614F481E090E0882339F0D2
:1004C000289844E64093B0044091F10040832223F1
:1004D00039F02091F200211103C02BE62093E800AF
:1004E0003FBF08958FEF9FEF08952FB7F89483E0F3
:1004F0008093E9009091E800892F807295FF04C0F5
:100500009091F20080E4891B2FBF08958091A80488
:1005100081110DC082E08093A40484E08093A5043F
:100520001092A7041092A60481E08093A80484EAA4
:1005300094E0089581508F3008F047C0E82FF0E034
:10054000EC55FD4F0C943C24C102C502B302B90224
:10055000BD02E502E502E502C802CE02D202D602E1
:10056000DC02E502E002809180008F7780938000BA
:100570000895809180008F7DF9CF80918000877FE2
:10058000F5CF84B58F7784BD089584B58F7DFBCF7B
:10059000809190008F7780939000089580919000D3
:1005A0008F7DF9CF80919000877FF5CF8091C0003B
:1005B0008F778093C00008958091C0008F7DF9CF20
:1005C0008091C200877F8093C2000895CF93DF930C
:1005D000282F30E0F901EE5CFD4F8491F901EF5ACC
:1005E000FD4FD491F901E258FD4FC491CC23A1F005
:1005F00081110E949A02EC2FF0E0EE0FFF1FE059EC
:10060000FD4FA591B491EC91ED2381E090E009F4C8
:1006100080E0DF91CF91089580E090E0FACF1F93C2
:10062000CF93DF93282F30E0F901EE5CFD4F8491EA
:10063000F901EF5AFD4FD491F901E258FD4FC491F1
:10064000CC23A9F0162F81110E949A02EC2FF0E022
:10065000EE0FFF1FEC5DFD4FA591B4918FB7F8949D
:10066000EC91111108C0D095DE23DC938FBFDF9190
:10067000CF911F910895DE2BF8CFCF93DF9390E0B9
:10068000FC01EF5AFD4F249182589D4FFC0184914B
:100690008823C9F090E0880F991FFC01EA5EFD4FA6
:1006A000A591B491FC01EC5DFD4FC591D491611110
:1006B0000DC09FB7F8948C91209582238C938881EC
:1006C000282328839FBFDF91CF910895623051F492
:1006D0009FB7F8943C91822F809583238C93E88177
:1006E0002E2BEFCF8FB7F894EC912E2B2C938FBF3E
:1006F000EACF3FB7F8948091A0049091A104A09113
:10070000A204B091A30426B5A89B05C02F3F19F001
:100710000196A11DB11D3FBFBA2FA92F982F882781
:10072000BC01CD01620F711D811D911D42E0660F5C
:10073000771F881F991F4A95D1F708958F929F922E
:10074000AF92BF92CF92DF92EF92FF926B017C014A
:100750000E9479034B015C01C114D104E104F1044E
:10076000B9F00E947903681979098A099B09683EE2
:1007700073408105910580F321E0C21AD108E10898
:10078000F10888EE880E83E0981EA11CB11CE4CF0E
:10079000FF90EF90DF90CF90BF90AF909F908F90A1
:1007A000089568EC70E080E090E00E949E0361E0B4
:1007B0008CE00E940F0368E270E080E090E00E940D
:1007C0009E0360E08CE00E940F0368EC70E080E024
:1007D00090E00E949E0361E08CE00E940F0368E2BB
:1007E00070E080E090E00E949E0360E08CE00C945A
:1007F0000F032FB7F89460919C0470919D04809131
:100800009E0490919F042FBF08950895FC012481B8
:1008100035816217730720F480819181009729F454
:1008200010929A048AE994E00895860F971F08951C
:100830004091940450919504209192043091930436
:1008400042175307B4F49091E8009570E1F390914A
:10085000E80092FD19C08093F1008091940490917A
:10086000950401968F739927892B19F48EEF809345
:10087000E8008091940490919504019690939504DA
:100880008093940481E0089580E00895EF92FF92B0
:100890000F931F93CF93DF93F82E192FE62E042F7B
:1008A00081E0860F880F0E94180483E00E941804DC
:1008B000CF2DD12FEC0EFD2EF11CCE15DF05B9F09A
:1008C00007FF13C0FE0184910E941804182F80E0D6
:1008D0000E941804812321968111EFCFDF91CF91DF
:1008E0001F910F91FF90EF9008958881EDCF81E0E7
:1008F000F5CFDF92EF92FF920F931F93CF93DF9389
:10090000D82E8A01EB017B01E40EF51ECE15DF0522
:1009100059F0D7FE12C0FE0184910E94180421965E
:100920008111F4CF0FEF1FEFC801DF91CF911F911D
:100930000F91FF90EF90DF9008958881EECF0F9395
:100940001F93CF93DF931F92CDB7DEB782E08983E9
:1009500042E450E066EA71E080E80E9479040E9477
:100960008602DC0112960D911C910115110589F08A
:10097000D801ED91FC910280F381E02DBE016F5F03
:100980007F4FC801099597FD04C0F80100851185C6
:10099000ECCF89810F90DF91CF911F910F91089536
:1009A000615030F02091F100FC0120830196F8CFD6
:1009B000289884E68093B0040895AF92BF92CF92B6
:1009C000DF92EF92FF920F931F93CF93DF936C010F
:1009D0007B018B01040F151FEB015E01AE18BF08F0
:1009E000C017D10759F06991D601ED91FC910190A2
:1009F000F081E02DC6010995892B79F7C501DF91BA
:100A0000CF911F910F91FF90EF90DF90CF90BF900B
:100A1000AF900895FC0144815581608171818DE220
:100A200096E00C94DD04089508958F929F92AF9202
:100A3000BF92CF92DF92EF92FF920F931F93CF93CB
:100A4000DF936C017B018A0180910D01882309F4F9
:100A50005CC08091B104882309F457C08091980448
:100A600080FF05C08091E00082608093E000E80193
:100A7000B12C8AEFA82E93E0892E2AE3922E20979C
:100A800011F4BB20D9F10E94750281110AC0AA9409
:100A9000AA20D9F161E070E080E090E00E949E031E
:100AA000EECF8C171D0611F00CF08C2F9FB7F89429
:100AB0008092E9002091E80025FD02C09FBFDFCFB2
:100AC000282F30E0C21BD30BF701815020F0419159
:100AD0004093F100FACFE20EF31EBB2021F090927A
:100AE000E800B12CEBCF8091E80085FDE7CF909234
:100AF000E800BB24B394209709F3F3CF5D9884E614
:100B000080939904101611063CF081E090E0F60104
:100B10009383828310E000E0C801DF91CF911F91A1
:100B20000F91FF90EF90DF90CF90BF90AF909F908C
:100B30008F900895CF93DF931F92CDB7DEB769836F
:100B4000DC01ED91FC910280F381E02D41E050E069
:100B5000BE016F5F7F4F09950F90DF91CF91089590
:100B600083E08093E9008091F200882319F08AE302
:100B70008093E80008950E94750290E00895CF9355
:100B8000DF931F92CDB7DEB7FC018485958597FD75
:100B900008C02FEF3FEF358724870F90DF91CF916B
:100BA0000895CE0101960E944B02019719F48981A4
:100BB00090E0F3CF8FEF9FEFF0CF0F931F93CF9382
:100BC000DF931F92CDB7DEB78C01FC01848595853C
:100BD00097FF0BC0CE0101960E944B02019771F462
:100BE000898190E0F80195878487F801848595854F
:100BF0000F90DF91CF911F910F9108958FEF9FEF8D
:100C0000F1CFFC018485958597FD0BC09FB7F894C3
:100C100082E08093E9008091F2009FBF90E001960E
:100C200008959FB7F89482E08093E9008091F200E4
:100C30009FBF90E0089585ED8093BC008091BC003B
:100C400084FDFCCF1092EE04089520914604260FF7
:100C50003327331F21323105ECF42091EE04FC01DF
:100C600090E080E0243069F082E00895A09146048D
:100C70002191AC014A5D5B4FA40FB52FB11D2C93A0
:100C80000196861798F380914604680F6093460496
:100C900080E0089581E008950F931F93CF93DF9331
:100CA000EC011B8288810E94E6022981281719061F
:100CB000D9F08A81811112C00E94F9030C811D8133
:100CC0002E813F81601B710B820B930B6436710583
:100CD0008105910518F081E08B838A838B81DF91F8
:100CE000CF911F910F9108950E94F9036C837D832A
:100CF0008E839F831A82F2CFCF93DF93EC0188819A
:100D0000998162E0911101C060E00E943D030E9460
:100D1000F9036C837D838E839F830E94F9036A8726
:100D20007B878C879D870E94F903688F798F8A8FD4
:100D30009B8FDF91CF91089508950895E0916E04FF
:100D400080916D04E81730F4F0E0EA5FFB4F80819A
:100D500090E008958FEF9FEF089590916E04809139
:100D60006D042FEF3FEF981748F4E92FF0E0EA5FAA
:100D7000FB4F208130E09F5F90936E04C90108957E
:100D800080916D0490916E04891B990B0895CF9208
:100D9000DF92EF92FF920F931F93CF93DF937C012B
:100DA000CB018A012091EF04222389F0EB016B0132
:100DB000C40ED51ECC15DD0569F06991D701ED9102
:100DC000FC910190F081E02DC7010995F3CF642FCC
:100DD0000E942506C801DF91CF911F910F91FF90CE
:100DE000EF90DF90CF900895CF93DF931F92CDB710
:100DF000DEB769832091EF042223F9F020911205D8
:100E0000203258F021E030E0FC013383228390E06F
:100E100080E00F90DF91CF9108958091F004E82F4A
:100E2000F0E0EF50FB4F998190838F5F8093F00447
:100E30008093120581E090E0ECCF61E0CE01019655
:100E40000E942506F7CF682F8DE695E00C94F406F6
:100E5000CF93DF9381E08093EF0488E080931105C6
:100E60001092F0041092120580910E0190E00E9401
:100E70002307CCEBD4E0888199810E9423076A8103
:100E80007B81072E000C880B990B0E9485212DEC8D
:100E90003CEC4CEC5DE30E94E4210E94CE23CB01AC
:100EA0000E9423078C819D810E94230720E030E06F
:100EB00040E251E46E817F81888599850E94E4211A
:100EC0000E94CE23CB010E9423078A859B850E9426
:100ED0002307C2EBD4E0888199810E9423078A818D
:100EE0009B810E9423078C819D810E94230720E023
:100EF00030E040E251E46E817F81888599850E94CF
:100F0000E4210E94CE23CB010E942307DF91CF91E1
:100F10000C94EE01FC01248131E03093EF04209326
:100F200011051092F004109212058385862B90E033
:100F30000E9423070C94EE0190E080E00895EAE718
:100F4000F4E0ACEBB4E08D919C9111979183808398
:100F500012968D919C9113979383828314968D9111
:100F60009C9115979583848316964D915D916D9113
:100F70007C91199746835783608771871A968D9164
:100F80009C9193878287EFE6F4E0A2EBB4E08D9129
:100F90009C9111979183808312968D919C911397C8
:100FA0009383828314968D919C9115979583848366
:100FB00016968D919D910D90BC91A02D868397835F
:100FC000A087B187089561E08CE00E940F0365E07F
:100FD00070E080E090E00E949E0360E08CE00C9462
:100FE0000F03DC01ED91FD918081ED91FD919081E8
:100FF000ED91FD916C9163708E2309F064609F23E5
:1010000009F06860EEE0F8E0E60FF11D6595659582
:101010006D936D917D918D919D91099423C01AC01E
:1010200012C016C010C01EC009C014C013C006C034
:1010300019C009C00DC007C00DC014C06250704077
:10104000804090400BC0615070408040904006C08E
:101050006E5F01C06F5F7F4F8F4F9F4F9E938E9348
:101060007E936E93089580911305909114050C94CE
:10107000F10780911505909116050C94F107809168
:101080001705909118050C94F1078091190590911E
:101090001A050C94F10780911B0590911C050C9486
:1010A000F1070F931F93CF93DF93EC018881998110
:1010B000009759F02A813B812617370730F081E0ED
:1010C000DF91CF911F910F9108958B016F5F7F4F3B
:1010D0000E949D25009759F0998388831B830A837A
:1010E0002C813D81232B59F7FC011082E8CF80E051
:1010F000E7CFEF92FF920F931F93CF93DF9361158A
:10110000710541F480E0DF91CF911F910F91FF9025
:10111000EF90089541155105B1F07B01EC010C8170
:101120001D81040F151FB8010E945108882351F337
:10113000288139818C819D81B701820F931F0E9484
:1011400063261D830C8381E0DECFCF93DF93EC0118
:1011500088819981009711F00E94142519821882C4
:101160001D821C821B821A82DF91CF910895CF933A
:10117000DF93EC01FB0101900020E9F73197AF010B
:10118000461B570B0E947908811103C0CE010E94B3
:10119000A508CE01DF91CF910895CF93DF93EC01A5
:1011A000FB0144815581608171810E947908811120
:1011B00003C0CE010E94A508CE01DF91CF91089512
:1011C000EF92FF920F931F93CF93DF93EC017B017C
:1011D0008A01BA010E94510881110BC0CE010E9400
:1011E000A508CE01DF91CF911F910F91FF90EF9055
:1011F00008951D830C83B701888199810E9463261D
:10120000F0CFFB0101900020E9F73197AF01461BB9
:10121000570B0C94E0080F931F93CF93DF93CDB738
:10122000DEB762970FB6F894DEBF0FBECDBF8C015C
:10123000CB01F8011182108213821282158214826E
:101240004AE0BE016F5F7F4F0E94121FBE016F5FB9
:101250007F4FC8010E94010962960FB6F894DEBF65
:101260000FBECDBFDF91CF911F910F910895CF9306
:10127000DF93EC01FB018617970749F060817181CC
:101280006115710541F0448155810E94E008CE014D
:10129000DF91CF9108950E94A508F9CFFC0111823A
:1012A00010821382128215821482FB0101900020A9
:1012B000E9F73197AF01461B570B0C94E008FC018E
:1012C00080819181009711F00C94142508950F935B
:1012D0001F93CF938C01C62F0E948A076C2F6460E6
:1012E000C8010E948A076C2F6B7FC8010E948A0781
:1012F00083EC90E00197F1F7CF911F910F91089542
:101300000F931F93CF93DF938C01D62FC42F607F51
:10131000642B0E94670980E1D89FB00111246C2BD7
:10132000C801DF91CF911F910F910C946709CF9362
:10133000DF93CDB7DEB728970FB6F894DEBF0FBEA8
:10134000CDBF98E0EFE1F1E0DE01119601900D9242
:101350009A95E1F790913606981710F48FEF890F60
:1013600090E0880F991F21E030E02C0F3D1F820F85
:10137000931FFC016081606840E08DE296E0289652
:101380000FB6F894DEBF0FBECDBFDF91CF910C94A6
:10139000800941E00E94800981E090E008951F9358
:1013A000CF93DF93EC01162F0E94A222181739F079
:1013B000612FCE01DF91CF911F910C94AA22DF9172
:1013C000CF911F9108950C94A2228AE090E00E9490
:1013D000E30991E0811101C090E090930E018BE050
:1013E00090E00E94E30990E09093BD048093BC04D8
:1013F0008CE090E00E94E309682F70E090E080E0CC
:101400000E9485212DEC3CEC4CEC5DE30E945C23BA
:101410000E94CE237093BF046093BE048DE090E0E1
:101420000E94E30990E09093C1048093C0048EE091
:1014300090E00E94E309682F70E090E080E00E9455
:10144000852120E030E040E251E40E945C2360937B
:10145000C2047093C3048093C4049093C5048FE0C6
:1014600090E00E94E30990E09093C7048093C60443
:1014700080E190E00E94E30990E09093B3048093B0
:10148000B20481E190E00E94E30990E09093B504FA
:101490008093B40482E190E00E94E30990E090938D
:1014A000B7048093B60483E190E00E94E309682FBB
:1014B00070E090E080E00E94852120E030E040E292
:1014C00051E40E945C236093B8047093B904809344
:1014D000BA049093BB040895FF920F931F93CF9388
:1014E000DF93CDB7DEB7C155D1090FB6F894DEBF93
:1014F0000FBECDBFF82E6CE971E0CE0182960E943E
:101500004E096CE971E0CE0188960E944E096CE9A3
:1015100071E0CE018E960E944E096CE971E0CE0119
:10152000C4960E944E09609180047091810480915C
:1015300082049091830428961FAE1EAE28972A96A7
:101540001FAE1EAE2A972C961FAE1EAE2C978E0194
:101550000F5F1F4F22E044E00E94F41E009709F441
:10156000B6C0BC01CE018A5B9F4F0E94010963E0B7
:1015700070E0CE018A5B9F4F0E94060410E2FC01DE
:10158000108320E030E040E251E4609180047091EB
:10159000810480918204909183040E94E4210E943E
:1015A000CE23CB016AE070E00E940924892B91F4DC
:1015B00061E070E0CE018A5B9F4F0E940604FC014F
:1015C000108362E070E0CE018A5B9F4F0E940604A8
:1015D000FC0110836091750470917604809177040A
:1015E000909178042E961FAE1EAE2E9760961FAE79
:1015F0001EAE609762961FAE1EAE62978E010F5FA1
:101600001F4F22E044E00E94F41E009709F465C0D9
:10161000BC01CE01845B9F4F0E94010963E070E032
:10162000CE01845B9F4F0E94060413E7FC011083E8
:1016300020E030E040E251E460917504709176045E
:1016400080917704909178040E94E4210E94CE2337
:10165000CB016AE070E00E940924892BE1F461E08B
:1016600070E0CE01845B9F4F0E940604FC01108352
:1016700062E070E0CE01845B9F4F0E94060410E29E
:10168000FC01108363E070E0CE01845B9F4F0E94F9
:101690000604FC011083F1E1FF1508F4F9C0EF2DF9
:1016A000F0E0EB5AF44F0C943C24730B8C0BA10B21
:1016B000B00B8B0CCB0C180D8C0D0D0E220EB50E35
:1016C000CA0EB30F1E10E210B311C2112112CE01C7
:1016D0008A5B9F4F0E94A5084ACFCE01845B9F4F33
:1016E0000E94A5089BCF6EE571E0CE0182960E9414
:1016F000010963E771E0CE0188960E94010968E85C
:1017000071E0CE018E960E9401096DE971E0CE0173
:10171000C4960E940109BCC062EB71E0CE018296C2
:101720000E94010968E871E0CE0188960E940109D3
:1017300067EC71E0CE018E960E94010968E871E0C5
:10174000E6CF62EB71E0CE0182960E94010968E863
:1017500071E0CE0188960E9401096CED71E0EACF3C
:1017600061EF71E0CE0182960E94010960917A04D6
:1017700070917B04CE01CA960E940B0966E072E06C
:10178000CE0101960E944E09BE01665C7F4FCE01DC
:1017900001960E94CD086BE472E00E94B708BC017C
:1017A000CE0188960E943709CE0101960E945F09FA
:1017B000CE01CA960E945F0960917E0470917F04F9
:1017C000CE01805C9F4F0E940B0960917C04709158
:1017D0007D04CE01CA960E940B096BEB72E0CE012C
:1017E00001960E944E09BE01665C7F4FCE010196B4
:1017F0000E94CD086BE072E00E94B708BE01605CF9
:101800007F4F0E94CD086AE971E00E94B708BC01D1
:10181000CE018E960E943709CE0101960E945F0983
:10182000CE01CA960E945F09CE01805C9F4F0E9444
:101830005F096091840470918504CE01CA960E946C
:101840000B0960EB72E0CE0101960E944E09BE01C9
:101850006A5B7F4FCE0101960E94CD0862E273E081
:101860000E94B708BE01665C7F4F0E94CD0869E9FF
:1018700073E00E94B708BC01CE01C4960E943709EC
:10188000CE0101960E945F09CE01CA960E945F09AF
:1018900080E00E949709CE0182960E940A0581E0AD
:1018A0000E949709CE0188960E940A0582E00E9454
:1018B0009709CE018E960E940A0583E00E9497093F
:1018C000CE01C4960E940A05CE01845B9F4F0E9400
:1018D0005F09CE018A5B9F4F0E945F09CE01C496CB
:1018E0000E945F09CE018E960E945F09CE01889604
:1018F0000E945F09CE0182960E945F09CF5ADF4F96
:101900000FB6F894DEBF0FBECDBFDF91CF911F9110
:101910000F91FF90089561EF71E0CE0182960E94D1
:10192000010960917A0470917B04CE01CA960E94ED
:101930000B0965E172E0CE0101960E944E09BE01DD
:10194000665C7F4FCE0101960E94CD086BE472E089
:101950000E94B708BC01CE0188960E943709CE01CB
:1019600001960E945F09CE01CA960E945F096091AC
:101970007E0470917F04CE01805C9F4F0E940B0912
:1019800060917C0470917D04CE01CA960E940B097F
:101990006AE172E024CF61EF71E0CE0182960E948D
:1019A000010960917A0470917B04CE01CA960E946D
:1019B0000B0965E172E0CE0101960E944E09BE015D
:1019C000665C7F4FCE0101960E94CD086BE472E009
:1019D0000E94B708BC01CE0188960E943709CE014B
:1019E00001960E945F09CE01CA960E945F0960912C
:1019F0007E0470917F04CE01805C9F4F0E940B0992
:101A000060917C0470917D04CE01CA960E940B09FE
:101A10006BEB72E0CE0101960E944E09BE01665C3E
:101A20007F4FCE0101960E94CD086FE172E0E4CEB7
:101A300061EF71E0CE0182960E94010960917A0403
:101A400070917B04CE01CA960E940B0965E172E099
:101A5000CE0101960E944E09BE01665C7F4FCE0109
:101A600001960E94CD086BE472E00E94B708BC01A9
:101A7000CE0188960E943709CE0101960E945F0927
:101A8000CE01CA960E945F0960917E0470917F0426
:101A9000CE01805C9F4F0E940B0960917C04709185
:101AA0007D04CE01CA960E940B096BEB72E0CE0159
:101AB00001960E944E09BE01665C7F4FCE010196E1
:101AC0000E94CD086BE072E00E94B708BE01605C26
:101AD0007F4F0E94CD086AE971E00E94B708BC01FF
:101AE000CE018E960E943709CE0101960E945F09B1
:101AF000CE01CA960E945F09CE01805C9F4F0E9472
:101B00005F096091840470918504CE01CA960E9499
:101B10000B0969E272E097CE61EF71E0CE01829627
:101B20000E94010960917A0470917B04CE01CA96EB
:101B30000E940B0965E172E0CE0101960E944E09F8
:101B4000BE01665C7F4FCE0101960E94CD086BE41A
:101B500072E00E94B708BC01CE0188960E94370946
:101B6000CE0101960E945F09CE01CA960E945F09CC
:101B700060917E0470917F04CE01805C9F4F0E9433
:101B80000B0960917C0470917D04CE01CA960E947D
:101B90000B096BEB72E0CE0101960E944E09BE016B
:101BA000665C7F4FCE0101960E94CD086BE072E02B
:101BB0000E94B708BE01605C7F4F0E94CD086AE9B1
:101BC00071E00E94B708BC01CE018E960E943709D1
:101BD000CE0101960E945F09CE01CA960E945F095C
:101BE000CE01805C9F4F0E945F09609184047091D8
:101BF0008504CE01CA960E940B0960EB72E0CE010B
:101C000001960E944E09BE016A5B7F4FCE0101968C
:101C10000E94CD0861E573E023CE60E372E0CE015F
:101C200082960E94010965E472E0CE0188960E94C6
:101C300001096AE572E0CE018E960E9401096FE605
:101C400072E065CD64E872E0CE0182960E940109DF
:101C50006091840470918504CE01CA960E940B099C
:101C600062E273E0CE0101960E944E09BE01665CFD
:101C70007F4FCE0101960E94CD0869E972E00E9473
:101C8000B708BC01CE0188960E943709CE010196A3
:101C90000E945F09CE01CA960E945F0960917E048E
:101CA00070917F04CE01CA960E940B0967EA72E028
:101CB000CE0101960E944E09BE01665C7F4FCE01A7
:101CC00001960E94CD086CEA72E00E94B708BE013E
:101CD0006A5B7F4F0E94CD08BC01CE018E960E94A8
:101CE0003709CE0101960E945F09CE01CA960E9473
:101CF0005F0960917C0470917D04CE01805C9F4FF0
:101D00000E940B0960917A0470917B04CE01CA96FF
:101D10000E940B0965E172E0CE0101960E944E0916
:101D2000BE01665C7F4FCE0101960E94CD0867EB35
:101D300072E00E94B708BE01605C7F4F0E94CD0830
:101D400061E074E00E94B708BC01CE01C4960E9415
:101D50003709CE0101960E945F09CE01CA960E9402
:101D60005F09CE01805C9F4F91CD60EC72E0CE01A7
:101D700082960E94010968E871E0CE0188960E946F
:101D8000010965ED72E0CE018E960E9401096AEEAE
:101D900072E0BDCC6FEF72E0CE0182960E94010925
:101DA0006091710470917204CE01805C9F4F0E941B
:101DB0000B0960916F0470917004CE01CA960E9465
:101DC0000B0966E072E0CE0101960E944E09BE0149
:101DD000665C7F4FCE0101960E94CD0864E173E0FE
:101DE0000E94B708BE01605C7F4F0E94CD086BE681
:101DF00072E00E94B708BC01CE0188960E943709A4
:101E0000CE0101960E945F09CE01CA960E945F0929
:101E1000CE01805C9F4F0E945F0980916F0490917A
:101E200070040A97ECF56091710470917204CE0110
:101E3000805C9F4F0E940B0960916F047091700449
:101E4000CE01CA960E940B0966E072E0CE010196AF
:101E50000E944E09BE01665C7F4FCE0101960E9432
:101E6000CD086EE173E00E94B708BE01605C7F4F51
:101E70000E94CD086BE672E00E94B708BC01CE015B
:101E800088960E943709CE0101960E945F09CE0113
:101E9000CA960E945F09CE01805C9F4F0E945F0935
:101EA0006091730470917404CE01CA960E940B096C
:101EB00069E273E0CE0101960E944E09BE01665CA4
:101EC0007F4FCE0101960E94CD086EE273E00E9422
:101ED000B708BE01645B7F4F0E94CD086BE971E0DB
:101EE0000E94B708BC01CE018E960E943709CE0130
:101EF00001960E945F09CE01CA960E945F09609117
:101F00007304709174046A3071050CF017CCCE0123
:101F1000CA960E940B0969E273E0CE0101960E9405
:101F20004E09BE01665C7F4FCE0101960E94CD082E
:101F300068E373E00E94B708BE01645B7F4F0E94B4
:101F4000CD086BE971E00E94B708BC01CE018E9606
:101F50000E943709CE0101960E945F09CE01CA9600
:101F60000E945F09EBCB6FEF72E0CE0182960E9478
:101F700001096091710470917204CE01805C9F4FE1
:101F80000E940B0960916F0470917004CE01CA9693
:101F90000E940B0965E172E0CE0101960E944E0994
:101FA000BE01665C7F4FCE0101960E94CD0863E4BE
:101FB00073E00E94B708BE01605C7F4F0E94CD08AD
:101FC0006BE672E00E94B708BC01CE0188960E94C1
:101FD0003709CE0101960E945F09CE01CA960E9480
:101FE0005F09CE01805C9F4F0E945F0980916F0462
:101FF000909170040A970CF053CF60917104709126
:102000007204CE01805C9F4F0E940B0960916F04A7
:1020100070917004CE01CA960E940B0965E172E0CE
:10202000CE0101960E944E09BE01665C7F4FCE0133
:1020300001960E94CD086DE473E015CF6FEF72E05A
:10204000CE0182960E940109609171047091720420
:10205000CE01805C9F4F0E940B0960916F047091CC
:102060007004CE01CA960E940B0965E172E0CE01B0
:1020700001960E944E09BE01665C7F4FCE0101961B
:102080000E94CD0864E173E00E94B708BE01605C65
:102090007F4F0E94CD086BE672E00E94B708BC013A
:1020A000CE0188960E943709CE0101960E945F09F1
:1020B000CE01CA960E945F09CE01805C9F4F0E94AC
:1020C0005F0980916F04909170040A97ECF560911C
:1020D000710470917204CE01805C9F4F0E940B09C5
:1020E00060916F0470917004CE01CA960E940B0932
:1020F00065E172E0CE0101960E944E09BE01665C68
:102100007F4FCE0101960E94CD086EE173E00E94E0
:10211000B708BE01605C7F4F0E94CD086BE672E09D
:102120000E94B708BC01CE0188960E943709CE01F3
:1021300001960E945F09CE01CA960E945F09CE01F6
:10214000805C9F4F0E945F096091730470917404DA
:10215000CE01CA960E940B0968E573E0CE01019694
:102160000E944E09BE01665C7F4FCE0101960E941F
:10217000CD086EE273E00E94B708BE01645B7F4F3A
:102180000E94CD086BE971E00E94B708BC01CE0146
:102190008E960E943709CE0101960E945F09CE01FA
:1021A000CA960E945F0960917304709174046A304A
:1021B00071050CF0C3CACE01CA960E940B0968E5EE
:1021C00073E0ABCE6FEF72E0CE0182960E94010900
:1021D0006091710470917204CE01805C9F4F0E94E7
:1021E0000B0960916F0470917004CE01CA960E9431
:1021F0000B0965E172E0CE0101960E944E09BE0115
:10220000665C7F4FCE0101960E94CD0864E173E0C9
:102210000E94B708BE01605C7F4F0E94CD086BE64C
:1022200072E00E94B708BC01CE0188960E9437096F
:10223000CE0101960E945F09CE01CA960E945F09F5
:10224000CE01805C9F4F0E945F0980916F04909146
:1022500070040A97ECF56091710470917204CE01DC
:10226000805C9F4F0E940B0960916F047091700415
:10227000CE01CA960E940B0965E172E0CE0101967B
:102280000E944E09BE01665C7F4FCE0101960E94FE
:10229000CD086EE173E00E94B708BE01605C7F4F1D
:1022A0000E94CD086BE672E00E94B708BC01CE0127
:1022B00088960E943709CE0101960E945F09CE01DF
:1022C000CA960E945F09CE01805C9F4F0E945F0901
:1022D0006091730470917404CE01CA960E940B0938
:1022E00069E273E0CE0101960E944E09BE01665C70
:1022F0007F4FCE0101960E94CD086DE573E00E94EC
:10230000B708BE01645B7F4F0E94CD086BE971E0A6
:102310000E94B708BC01CE018E960E943709CE01FB
:1023200001960E945F09CE01CA960E945F096091E2
:102330007304709174046A3071050CF0FFC9CE010A
:10234000CA960E940B0969E273E0CE0101960E94D1
:102350004E09BE01665C7F4FCE0101960E94CD08FA
:1023600067E673E0E7CD62E773E0CE0182960E94F4
:10237000010965E472E0CE0188960E94010967E8D0
:1023800073E059CC6CE973E0CE0182960E9401099A
:1023900068E871E0CE0188960E940109609173049B
:1023A00070917404CE01CA960E940B0969E273E031
:1023B000CE0101960E944E09BE01665C7F4FCE01A0
:1023C00001960E94CD0868E373E00E94B708BE0141
:1023D000645B7F4F0E94CD08BC01CE018E960E94A7
:1023E0003709CE0101960E945F09CE01CA960E946C
:1023F0005F096091710470917204CE01805C9F4FFF
:102400000E940B0960916F0470917004CE01CA960E
:102410000E940B0965E172E0CE0101960E944E090F
:10242000BE01665C7F4FCE0101960E94CD086EE131
:1024300073E00E94B708BE01605C7F4F0E94CD0828
:1024400083CC61EB73E0CE0182960E94010966ECB9
:1024500073E0CE0188960E9401096BED73E0CE0116
:102460008E960E94010960EF73E051C91F920F928E
:102470000FB60F9211242F933F938F939F93AF9397
:10248000BF9380919C0490919D04A0919E04B09173
:102490009F0430919B0423E0230F2D3758F50196BC
:1024A000A11DB11D20939B0480939C0490939D04D7
:1024B000A0939E04B0939F048091A0049091A104E6
:1024C000A091A204B091A3040196A11DB11D809317
:1024D000A0049093A104A093A204B093A304BF917D
:1024E000AF919F918F913F912F910F900FBE0F90C1
:1024F0001F90189526E8230F0296A11DB11DD2CF7B
:102500001F920F920FB60F9211242F933F934F9368
:102510005F936F937F938F939F93AF93BF93EF934B
:10252000FF93E0911701F09118010995FF91EF9148
:10253000BF91AF919F918F917F916F915F914F91DB
:102540003F912F910F900FBE0F901F9018951F92E3
:102550000F920FB60F9211242F933F934F935F93D7
:102560006F937F938F939F93AF93BF93EF93FF935B
:10257000E0911501F09116010995FF91EF91BF913E
:10258000AF919F918F917F916F915F914F913F910B
:102590002F910F900FBE0F901F9018951F920F92C2
:1025A0000FB60F9211242F933F934F935F936F9326
:1025B0007F938F939F93AF93BF93EF93FF93E0919C
:1025C0001301F09114010995FF91EF91BF91AF9123
:1025D0009F918F917F916F915F914F913F912F913B
:1025E0000F900FBE0F901F9018951F920F920FB66D
:1025F0000F9211242F933F934F935F936F937F9389
:102600008F939F93AF93BF93EF93FF93E09111014B
:10261000F09112010995FF91EF91BF91AF919F91B8
:102620008F917F916F915F914F913F912F910F907B
:102630000FBE0F901F9018951F920F920FB60F921A
:1026400011242F933F934F935F936F937F938F93B7
:102650009F93AF93BF93EF93FF93E0910F01F0919E
:1026600010010995FF91EF91BF91AF919F918F91CB
:102670007F916F915F914F913F912F910F900FBE7E
:102680000F901F9018951F920F920FB60F92112462
:102690008F939F938091E1009091E100937F9093BD
:1026A000E10083FF0FC01092E90091E09093EB00EE
:1026B0001092EC0092E39093ED001092B10498E038
:1026C0009093F00082FF22C093E09093E9009091F4
:1026D000F200992319F09AE39093E80090919904FD
:1026E000992341F0909199049150909399049111FC
:1026F00001C05D9A9091B004992341F09091B0048B
:1027000091509093B004911101C0289A84FF18C091
:102710008091E2008E7E81608093E2008091E100F2
:102720008F7E8093E100809198048E7E80618093FB
:1027300098049F918F910F900FBE0F901F90189546
:1027400080FFF7CF8091E2008E7E80618093E2006F
:102750008091E1008E7E8093E100809198048E7ECE
:102760008160E5CF1F920F920FB60F921124CF9286
:10277000DF92EF92FF920F931F932F933F934F930C
:102780005F936F937F938F939F93AF93BF93EF93D9
:10279000FF93CF93DF93CDB7DEB76C97DEBFCDBF8E
:1027A0001092E9008091E80083FF25C068E0CE0127
:1027B00045960E94D00482EF8093E8008D8987FFC0
:1027C00039C09091E80090FFFCCF982F907609F0E7
:1027D00034C19E894F89588D2F89F88C911131C051
:1027E000803861F5809197048093F1001092F10098
:1027F0008EEF8093E8006C960FB6F894DEBF0FBEA4
:10280000CDBFDF91CF91FF91EF91BF91AF919F919C
:102810008F917F916F915F914F913F912F911F9178
:102820000F91FF90EF90DF90CF900F900FBE0F9021
:102830001F9018959EEF9093E800C7CF1092F1007B
:10284000D5CF913059F48111D3CF4130510581F664
:10285000809197048D7F80939704CACF933049F479
:102860008111C6CF4130510519F6809197048260DD
:10287000F2CF953041F48091E80080FFFCCF2068D2
:102880002093E300B5CF963009F0A9C00B8D1C8DC5
:1028900022E01092E9001092950410929404F21232
:1028A0002EC010929304109292040E949F041F82E3
:1028B00099E09983FA8291E09E8390EA98879AEF53
:1028C00099872091940430919504275F3F4F3C8372
:1028D0002B838D831092E90010929504109294043A
:1028E000109393040093920449E050E0BE016F5F9F
:1028F0007F4F80E00E9479040E949F0479CF10935B
:102900009304009392040E948602DC0112960D91BA
:102910001C910115110509F451C1D801ED91FC91EB
:102920000480F581E02DBE016B5E7F4FC8010995E3
:10293000009709F03EC1F80100851185EACFF3E068
:10294000FF120EC08F89882309F440C0823061F4E1
:1029500040E86BE08AE092E00E944604811148CF93
:1029600081E28093EB0047CF813029F440E86BE0AF
:102970008EEF91E0F1CF833099F70E948602DC015F
:102980001296ED90FC908E010F5F1F4F6801E114CD
:10299000F10479F0D701ED91FC910680F781E02DEB
:1029A000B801C7010995080F111DF701E084F184F2
:1029B000EECFD8011C92F60101900020E9F7319783
:1029C000BF016C197D0940E0C601C6CF68EE71E019
:1029D000FB01449150E080E80E94790409CF9730D0
:1029E00009F4BECF983021F481E08093F10000CF4C
:1029F000993009F0FDCE837009F0B2CFE8E2F1E042
:102A000081E031E096E32191222371F08093E90087
:102A10003093EB00DF0111972C912093EC00909301
:102A2000ED008F5F873079F78EE78093EA00109290
:102A3000EA008F898093B104DBCE8B8D9C8D109240
:102A4000E90010929504109294049093930480935B
:102A50009204898D811192C08E899D89913A49F4A1
:102A6000813209F07DCF47E050E066E071E080E020
:102A7000B3CF913209F074CF833269F48F89988D86
:102A8000B0E0A0E08093020190930301A0930401C1
:102A9000B0930501ADCE803269F48091E80082FFE9
:102AA000FCCF67E086E091E00E94D0048BEF80933A
:102AB000E8009ECE823209F09BCE8F8980930D0173
:102AC000EEEFFFE7859194918B3F9C4D51F1E0E053
:102AD000F8E08091060190910701A0910801B09162
:102AE0000901803B9440A105B105F1F480910D01ED
:102AF00080FD1AC0EE3F8AE0F80789F587E797E77F
:102B000091838083809160008093960488E19BE0AC
:102B10000FB6F894A895809360000FBE9093600064
:102B200067CEEEEFFAE0D5CF808191818737974766
:102B300009F05ECEA8958091600088618093600066
:102B40008091960480936000EE3F2AE0F20789F0BE
:102B50008091FE0A9091FF0A9183808349CE808103
:102B600091818737980751F29093FF0A8093FE0A6C
:102B7000C5CF1092FF0A1092FE0A3ACE0E9486023A
:102B8000DC0112960D911C910115110509F4E8CE96
:102B9000D801ED91FC910190F081E02DBE016B5EBA
:102BA0007F4FC8010995811123CEF8010085118559
:102BB000EBCF181619060CF41BCED2CEF1E0FF12A3
:102BC000BECE6CEE71E004CF1F920F920FB60F9243
:102BD00011242F933F934F935F936F937F938F9322
:102BE0009F93AF93BF93EF93FF938091B900887F3A
:102BF000803609F44AC0F0F5883209F4A7C018F508
:102C0000803109F49BC0B8F4882309F4F9C08830F6
:102C100009F494C0FF91EF91BF91AF919F918F9173
:102C20007F916F915F914F913F912F910F900FBEC8
:102C30000F901F901895883109F488C0803251F7A1
:102C40008093EC0414C0803409F49DC040F48033B8
:102C5000B9F38833F9F68093EC0485ECB0C0803585
:102C600009F485C0883509F496C0883499F60E9425
:102C70001B06D0CF883909F48CC038F5883729F085
:102C800050F4883611F0803729F683E08093EE0403
:102C90001092680457C0883809F47BC0803919F055
:102CA000803809F0B7CF80916804803208F071C095
:102CB000E091680481E08E0F809368048091BB00EE
:102CC000F0E0E85BFB4F80833DC0803B39F0E0F4EF
:102CD000803A09F479C0883A09F09CCF84E0809367
:102CE000EE041092470410924604E0916B04F091B8
:102CF0006C0409958091460481110FC081E0809396
:102D000046041092260409C0803C09F4A6CF883CF2
:102D100009F4A3CF883B09F07DCFE091470481E01F
:102D20008E0F80934704F0E0EA5DFB4F8081809333
:102D3000BB00909147048091460429C08091C9044A
:102D40008093BB0085EC8093BC0064CF9091EB0432
:102D50008091EA04981758F5E091EB0481E08E0F1A
:102D60008093EB04F0E0E653FB4F8081E9CFE091E4
:102D7000EB0481E08E0F8093EB048091BB00F0E0C8
:102D8000E653FB4F80839091EB048091EA049817FF
:102D9000C8F285E8D8CFE091EB0481E08E0F8093F4
:102DA000EB048091BB00F0E0E653FB4F8083809101
:102DB000ED0481115CCF81E08093C80484EA8093A4
:102DC000BC001092EE0426CF85EC8093BC001092DC
:102DD000EE0480916804803230F4E0916804F0E001
:102DE000E85BFB4F10826091680470E0E091690439
:102DF000F0916A0488E494E00995109268040ACF7F
:102E00001092EC0434CFCF93DF93109220051092F0
:102E10001F0588EE93E0A0E0B0E080932105909339
:102E20002205A0932305B093240522E331E03093DB
:102E30001E0520931D052FEF3FEF30932A052093A9
:102E400029051092700510926F058093710590937B
:102E50007205A0937305B093740584E491E0909398
:102E60006E0580936D051092300610922F0686E550
:102E700091E090932E0680932D0687E28093310691
:102E800084E18093350684E08093360610923706FD
:102E900088E08093380662E083E00E943D0362E0B0
:102EA00082E00E943D03E1E8F2E0E491F0E0EE0F01
:102EB000FF1FE059FD4FA591B491B0932206A09356
:102EC0002106E4E5F2E0449140932506E0E8F2E0D3
:102ED000E491F0E0EE0FFF1FE059FD4FC591D49152
:102EE000D0932406C0932306E3E5F2E0E491E09357
:102EF0002606109228061092290610922A06109291
:102F00002B062BE33FE1C9010197F1F79C91842F38
:102F1000892391E009F490E08881E82309F0926028
:102F20009093270683E00E947A0180932C0682E02A
:102F30000E947A0190912C06890F80932C0685E0DF
:102F40008093050681E08093060610921506109284
:102F50001606109217061092180610921906109273
:102F60001A0610921B0610921C06109207068093F8
:102F70000D06109213061092140696E09093E90540
:102F80008093EA051092F9051092FA051092FB055C
:102F90001092FC051092FD051092FE051092FF059F
:102FA000109200061092EB058093F1051092F70540
:102FB0001092F80597E09093CD058093CE0510927E
:102FC000DD051092DE051092DF051092E0051092EB
:102FD000E1051092E2051092E3051092E4051092CB
:102FE000CF058093D5051092DB051092DC0592E1A8
:102FF0009093B1058093B2051092C1051092C2055D
:103000001092C3051092C4051092C5051092C60512
:103010001092C7051092C8051092B3058093B905A8
:103020001092BF051092C0059BE090939505809388
:1030300096051092A5051092A6051092A70510926C
:10304000A8051092A9051092AA051092AB0510923E
:10305000AC051092970580939D051092A3051092E0
:10306000A4059AE09093790580937A0510928905DA
:1030700010928A0510928B0510928C0510928D0586
:1030800010928E0510928F051092900510927B057C
:10309000809381051092870510928805DF91CF916A
:1030A0000895789484B5826084BD84B5816084BDC0
:1030B00085B5826085BD85B5816085BD80916E00D6
:1030C000816080936E001092810080918100826007
:1030D0008093810080918100816080938100809144
:1030E0008000816080938000809191008260809355
:1030F0009100809191008160809391008091900077
:103100008160809390008091C10084608093C100B1
:103110008091C10082608093C1008091C100816074
:103120008093C1008091C30081608093C30080912F
:10313000C00082608093C0008091C2008160809353
:10314000C20080917A00846080937A0080917A0036
:10315000826080937A0080917A00816080937A0007
:1031600080917A00806880937A001092B104109266
:103170009704109298048091D70081608093D700C3
:1031800080EA8093D80089B5806189BD89B5826065
:1031900089BD09B400FEFDCF61E070E080E090E001
:1031A0000E949E038091D8008F7C80618093D8001C
:1031B0008091E000807F8093E0008091E1008E7E2E
:1031C0008093E1008DE08093E200559A209A8FEF82
:1031D0009FEF90932A058093290585E096E00E9451
:1031E0007C0689EE95E00E947C068DEC95E00E94BD
:1031F0007C0681EB95E00E947C0661E08CE00E94F9
:103200003D0361E08DE00E943D0360E08CE00E94A0
:103210000F0360E08DE00E940F0310926E04109285
:103220006D041092F004109212051092EE0481E0E9
:103230008093ED041092C80461E082E00E940F03C5
:1032400061E083E00E940F038091B9008E7F80933C
:10325000B9008091B9008D7F8093B90088E4809394
:10326000B80085E48093BC0083E195E090936C0402
:1032700080936B0484E195E090936A0480936904E1
:103280001092320680913606823018F098E09093C2
:10329000320690913706992339F0813029F48091D4
:1032A000320684608093320662E370E080E090E052
:1032B0000E949E03609138068DE296E00E948A0784
:1032C00068EE73E080E090E00E949E0360E38DE290
:1032D00096E00E946709CBE4D6E4CE010197F1F7AE
:1032E00060E38DE296E00E9467092197F1F760E3C1
:1032F0008DE296E00E94670983E592E00197F1F77D
:1033000060E28DE296E00E94670960913206606299
:1033100040E08DE296E00E94800984E080933306CD
:1033200040E06CE08DE296E00E94800940E061E0C0
:103330008DE296E00E948009CBE3DFE1CE010197A8
:10334000F1F782E08093340640E066E08DE296E09B
:103350000E94800940E062E08DE296E00E948009D0
:103360002197F1F788E08093380660E08DE296E0DF
:103370000E948A070E94E5090E949F070E94280771
:103380001092860480E00E946C0A0E94E5090E9467
:10339000D10360ED77E080E090E00E949E030E9400
:1033A000E30772E0872E912CA12CB12CC1E000E044
:1033B00010E050E1252E69E0362EDBE080912C06EE
:1033C000823008F05BC0F89481E296E00E94F10739
:1033D000609128067091290680912A0690912B060B
:1033E0007894A50194010E941D2469017A01C0927C
:1033F0008804D0928904E0928A04F0928B04809130
:103400008704882309F4D1C46090000180910101F0
:10341000882309F442C081E0611001C082E08093FA
:1034200086048DEC95E00E944C06882329F00E94CA
:10343000E3076C266092000185E096E00E944C064E
:10344000882301F10E94E30710920101809100019D
:103450008823B1F083E0809386046CE271E080E021
:1034600090E00E949E03809186040E946C0A0115E0
:10347000110509F4A3CF0E9400009BCFF894A8CFB8
:103480008BE0E9CF89EE95E00E944C06882359F342
:103490000E94E30710928704E6CF709086048DECBB
:1034A00095E0662009F4EAC20E944C06882351F098
:1034B0000E94E3070E949F0781E0870D883090F407
:1034C0008093860480918604853009F41AC260F4E2
:1034D000833009F44FC0843009F4C9C183E080937C
:1034E00086048DC083E0ECCF863009F44FC287306C
:1034F000A9F780918C0490918D04A0918E04B091D5
:103500008F04C816D906EA06FB0609F12091840447
:1035100030918504A601481B590BCA0150939104B0
:1035200040939004C0928C04D0928D04E0928E045B
:10353000F0928F04820F931F9093850480938404EC
:1035400005970B9710F40E94E307C09379048091CC
:103550008404909185048031910514F08FE090E00F
:103560008530910514F485E090E090938504809374
:10357000840445C080918C0490918D04A0918E04A8
:10358000B0918F04C816D906EA06FB0639F12091DE
:103590007A0430917B04A601481B590BCA01509351
:1035A000910440939004C0928C04D0928D04E092D8
:1035B0008E04F0928F0465E0689FA001699F500D12
:1035C0001124240F351F30937B0420937A042D336C
:1035D000310510F40E94E307C093790480917A04C6
:1035E00090917B048D33910514F08CE390E097FF6C
:1035F00002C090E080E090937B0480937A0485E0A1
:1036000096E00E944C06882309F49AC380917904BD
:10361000882309F4CAC0109213060E94E30710928F
:1036200013066091000160930E0180917A049091DD
:103630007B049093BD048093BC0480917C049091A2
:103640007D049093BF048093BE0480917E0490918A
:103650007F049093C1048093C00480918004909172
:103660008104A0918204B09183048093C20490935A
:10367000C304A093C404B093C504809184049091C2
:1036800085049093C7048093C60480916F04909141
:1036900070049093B3048093B2048091710490916C
:1036A00072049093B5048093B40480917304909154
:1036B00074049093B7048093B6048091750490913C
:1036C0007604A0917704B09178048093B804909325
:1036D000B904A093BA04B093BB048AE090E00E94BE
:1036E000CF096091BC048BE090E00E94CF0960910B
:1036F000BE047091BF04072E000C880B990B0E942A
:1037000085212DEC3CEC4CEC5DE30E94E4210E9411
:10371000CE238CE090E00E94CF096091C0048DE040
:1037200090E00E94CF0920E030E040E251E4609157
:10373000C2047091C3048091C4049091C5040E9496
:10374000E4210E94CE238EE090E00E94CF09609198
:10375000C6048FE090E00E94CF096091B20480E13E
:1037600090E00E94CF096091B40481E190E00E9452
:10377000CF096091B60482E190E00E94CF0920E079
:1037800030E040E251E46091B8047091B904809156
:10379000BA049091BB040E94E4210E94CE2383E1ED
:1037A00090E00E94CF0910927904809105060E9452
:1037B000E60230910606209114063817190609F41E
:1037C000D2C2211117C00E94F903C0901506D090F3
:1037D0001606E0901706F09018066C197D098E0900
:1037E0009F09623371058105910520F0C09314068D
:1037F000C09313060E94F9036093190670931A068A
:1038000080931B0690931C068091130681110AC0B9
:103810000E94F90360931D0670931E0680931F0695
:103820009093200680911406882309F41CCE809181
:103830001306882309F417CE0E94F903C0901D06D1
:10384000D0901E06E0901F06F09020066C197D09AE
:103850008E099F096C3D75408105910508F403CEE2
:10386000109213060E94D1030E94280713CE809164
:103870008C0490918D04A0918E04B0918F04C81691
:10388000D906EA06FB0649F120917C0430917D04BB
:10389000A601481B590BCA01509391044093900410
:1038A000C0928C04D0928D04E0928E04F0928F042A
:1038B00062E3689FA001699F500D1124240F351FFA
:1038C00030937D0420937C04245631092D3B3240F3
:1038D00010F40E94E307C093790480917C049091D6
:1038E0007D04813223E0920714F080E293E0843675
:1038F000910514F484E690E090937D0480937C0419
:103900007ECE80918C0490918D04A0918E04B09114
:103910008F04C816D906EA06FB0629F120917E0419
:1039200030917F04A601481B590BCA0150939104A2
:1039300040939004C0928C04D0928D04E0928E0447
:10394000F0928F04880F991F280F391F30937F043E
:1039500020937E042A5031092531310510F40E944C
:10396000E307C093790480917E0490917F048F31A6
:10397000910514F08EE190E08A30910514F48AE00C
:1039800090E090937F0480937E0439CE80918C04E4
:1039900090918D04A0918E04B0918F04C816D90621
:1039A000EA06FB06D1F140908004509081046090BB
:1039B000820470908304B601681B790B70939104A4
:1039C00060939004C0928C04D0928D04E0928E0497
:1039D000F0928F04072E000C880B990B0E94852112
:1039E00020E030E040E05FE30E94E421A301920187
:1039F0000E94F0226093800470938104809382047B
:103A0000909383040E94CE23615071096330710545
:103A100010F40E94E307C0937904C0908004D09012
:103A20008104E0908204F090830420E030E040E8DC
:103A30005FE3C701B6010E947E2187FD18C020E028
:103A400030E040E450E4C701B6010E940424181697
:103A50002CF4C12CD12C30E4E32EFE2CC092800437
:103A6000D0928104E0928204F0928304C8CDC12CEC
:103A7000D12C20E8E22E2FE3F22EF0CF0E944C064C
:103A8000882351F00E94E3070E949F0781E0870D81
:103A90008F3070F480938604809186048C3009F412
:103AA000C6C048F48B3009F47CC0D0938604A7CDFF
:103AB000D0938604F1CF8D3009F4FAC08E30A9F787
:103AC00080918C0490918D04A0918E04B0918F040C
:103AD000C816D906EA06FB06D1F14090750450904D
:103AE00076046090770470907804B601681B790BB7
:103AF0007093910460939004C0928C04D0928D04D2
:103B0000E0928E04F0928F04072E000C880B990B24
:103B10000E94852120E030E040E05FE30E94E42144
:103B2000A30192010E94F0226093750470937604C1
:103B300080937704909378040E94CE23615071099A
:103B40006330710510F40E94E307C0937904C090BC
:103B50007504D0907604E0907704F090780420E02B
:103B600030E040E85FE3C701B6010E947E2187FD97
:103B7000E0C020E030E040E450E4C701B6010E941C
:103B8000042418162CF4C12CD12C90E4E92EFE2C20
:103B9000C0927504D0927604E0927704F092780493
:103BA0002ECD80918C0490918D04A0918E04B091C3
:103BB0008F04C816D906EA06FB0639F120916F0476
:103BC00030917004A601481B590BCA01509391040F
:103BD00040939004C0928C04D0928D04E0928E04A5
:103BE000F0928F0465E0689FA001699F500D112439
:103BF000240F351F3093700420936F042D3331054B
:103C000010F40E94E307C093790480916F049091AF
:103C100070048D33910514F08CE390E097FF02C09F
:103C200090E080E09093700480936F04E8CC8091E2
:103C30008C0490918D04A0918E04B0918F04C816CD
:103C4000D906EA06FB0609F120917104309172044D
:103C5000A601481B590BCA0150939104409390044C
:103C6000C0928C04D0928D04E0928E04F0928F0466
:103C7000820F931F909372048093710405970B97A2
:103C800010F40E94E307C09379048091710490912D
:103C900072048031910514F08FE090E08530910539
:103CA00014F485E090E09093720480937104A7CCA3
:103CB00080918C0490918D04A0918E04B0918F041A
:103CC000C816D906EA06FB0609F120917304309163
:103CD0007404A601481B590BCA01509391044093E8
:103CE0009004C0928C04D0928D04E0928E04F092E5
:103CF0008F04820F931F9093740480937304029730
:103D00000D9710F40E94E307C09379048091730427
:103D1000909174048F30910514F08EE090E0823021
:103D2000910514F482E090E09093740480937304FE
:103D300066CCC12CD12C80E8E82E8FE3F82E28CF5A
:103D400089EE95E00E944C06882309F42ECD0E944E
:103D5000E30780917904882319F00E949F0723CDFF
:103D6000C093010122CD2223A9F00E94F903C09043
:103D70001906D0901A06E0901B06F0901C066C19EC
:103D80007D098E099F09623371058105910510F047
:103D9000109214060E94F90360931506709316069C
:103DA00080931706909318062FCDC0928C04D09262
:103DB0008D04E0928E04F0928F0480910E0188238E
:103DC00081F03092860489EE95E00E944C068823AB
:103DD00009F449CB0E94D103C093870410920101DA
:103DE00042CB20928604EFCFEF920F931F93CF9395
:103DF000DF93E80134E047FD34E1042E000C550B5D
:103E000057FF03C0519541955109E32E022F242FEE
:103E1000AE010E94371FCE01DF91CF911F910F910C
:103E2000EF900895BB274A3031F4992322F4BDE284
:103E3000909581959F4F0C941E1FBB27FB01552722
:103E4000AA27880F991FAA1FA41710F0A41B8395F7
:103E50005051B9F7A05DAA3308F0A95DA19300976E
:103E600079F7B111B1931192CB010C946E21A9E0B5
:103E7000B0E0EDE3FFE10C94BE226A01F22EB02E19
:103E8000102FFBE3AF2EA01608F41BE31F5F012FDA
:103E900027E0AE014F5F5F4F0E949620BC018981F1
:103EA000982F9970913009F43FC09BE2E1FC04C067
:103EB0009E2D9170E0FC3AC05E2D5071E82FE870A5
:103EC00083FF46C084E0911101C083E0EF2DE81B21
:103ED0008F1508F0E0E0D6018E2F20E2552351F136
:103EE000992329F0D6019C93C60101966C01960195
:103EF0002D5F3F4FE2FE24C08EE4D6018C9391E407
:103F000011969C93119712968C93D9018E2F90E263
:103F100081111BC0E20FF32FF11D10828EEF9FEF76
:103F20002996ECE00C94DA229DE2C6CF90E2C4CF51
:103F30002D9381508111FCCFCE0ED11CE0E0D0CF6B
:103F40008EE6D6018C9391E6DBCF9D938150E0CF36
:103F5000482F447082FF3DC084E0911101C083E08E
:103F60008F1510F4EF2DE81BD6018E2F20E255237C
:103F700009F1992329F0D6019C93C60101966C01A1
:103F800096012D5F3F4FE2FE1BC089E4D6018C9362
:103F90008EE411968C93119786E412968C93D90136
:103FA0008E2F90E2882309F4B5CF9D938150FACFEC
:103FB0002D9381508111FCCFCE0ED11CE0E0D9CFE2
:103FC00089E6D6018C938EE611968C93119786E63E
:103FD000E4CF9B0177FF02C030E020E0A1E0B0E039
:103FE000911102C0B0E0A0E0F9013196AE0FBF1F01
:103FF0008B2C912CBB2009F461C05401EFEFAE1A59
:10400000BE0AAA0DBB1DFA161B0619F014F04F2D9F
:104010004A1B511188C0E3FC59C07601A42FB0E2BD
:10402000A1114FC0C40ED11C992309F45BC040E01C
:10403000D6011196F60190836D01552309F448C00D
:10404000012F060F9A81582F507184FF03C09133BE
:1040500009F4015010160CF047C0093008F008E0D0
:10406000EEE2FE2E5B01A01AB108850191948194C5
:1040700091082F3F320729F4D601FC92F6013196C0
:104080006F016217730794F1021713077CF5DB01C8
:10409000A21BB30BAA24A394B12CAC0EBD1EAA0D77
:1040A000BB1D11968C9121503109D601119628150E
:1040B0003905F4F0F60180836D01DBCFB12CA12C22
:1040C000A0CFF701B1937F01A150AACF9111B0CF3A
:1040D000D601942F50E302C05D9391509111FCCF13
:1040E000C40ED11C40E0ACCF01E0BACF80E3DBCFFF
:1040F0006217730731F4963388F4953311F455231E
:1041000069F0F6018083FD01842F90E2811108C0DF
:10411000A40FB11D1C9290E080E002CF81E3F1CFAB
:1041200091938150F3CF911183CF8ACF283008F03B
:1041300027E03327DA01990F311D87FD9160009642
:104140006105710539F432602E5F3D9330E32A95A5
:10415000E1F708959F3F30F080387105610509F05F
:104160003C5F3C5F3D93913008F08068911DDF9388
:10417000CF931F930F93FF92EF92192F987F9695ED
:10418000E92F96959695E90FFF27EA5FFE4F99274D
:104190003327EE24FF24A701E70105900894079434
:1041A00028F4360FE71EF81E491F511D660F771FB2
:1041B000881F991F0694A1F70590079428F4E70E2D
:1041C000F81E491F561FC11D770F881F991F661FB4
:1041D0000694A1F70590079428F4F80E491F561F7E
:1041E000C71FD11D880F991F661F771F0694A1F75F
:1041F0000590079420F4490F561FC71FD81F990F29
:10420000661F771F881F0694A9F784911095177071
:1042100041F0D695C79557954795F794E7941A9529
:10422000C1F7ECEAF0E0689415901591359165912D
:10423000959105907FE27395E118F10A430B560BB7
:10424000C90BD009C0F7E10CF11E431F561FC91F4F
:10425000D01D7EF4703311F48A95E6CFE8940150B6
:1042600030F0080F0AF40027021708F4202F2395D6
:10427000022F7A3328F079E37D932A95E9F710C06D
:104280007D932A9589F606949795679537951795A6
:104290001794E118F10A430B560BC90BD00998F09B
:1042A00023957E9173957A3308F070E37C93201305
:1042B000B8F77E9170617D9330F0839571E37D93C3
:1042C00070E32A95E1F71124EF90FF900F911F9171
:1042D000CF91DF91992787FD90950895DC01FC012E
:1042E000672F71917723E1F7329704C07C916D932A
:1042F00070836291AE17BF07C8F308950E94C02172
:1043000008F481E00895E89409C097FB3EF4909585
:104310008095709561957F4F8F4F9F4F9923A9F09E
:10432000F92F96E9BB279395F6958795779567952D
:10433000B795F111F8CFFAF4BB0F11F460FF1BC071
:104340006F5F7F4F8F4F9F4F16C0882311F096E904
:1043500011C0772321F09EE8872F762F05C06623B2
:1043600071F096E8862F70E060E02AF09A95660F6B
:10437000771F881FDAF7880F9695879597F9089524
:10438000990F0008550FAA0BE0E8FEEF1616170666
:10439000E807F907C0F012161306E407F50798F0CE
:1043A000621B730B840B950B39F40A2661F0232BE7
:1043B000242B252B21F408950A2609F4A140A69563
:1043C0008FEF811D811D08950E94F7210C946822B2
:1043D0000E945A2238F00E94612220F0952311F0A9
:1043E0000C9451220C94572211240C949C220E946C
:1043F000792270F3959FC1F3950F50E0551F629F8E
:10440000F001729FBB27F00DB11D639FAA27F00D2D
:10441000B11DAA1F649F6627B00DA11D661F829F54
:104420002227B00DA11D621F739FB00DA11D621F39
:10443000839FA00D611D221F749F3327A00D611D56
:10444000231F849F600D211D822F762F6A2F112438
:104450009F5750409AF0F1F088234AF0EE0FFF1F6B
:10446000BB1F661F771F881F91505040A9F79E3FC2
:10447000510580F00C9451220C949C225F3FE4F390
:10448000983ED4F3869577956795B795F795E79518
:104490009F5FC1F7FE2B880F911D9695879597F921
:1044A000089597F99F6780E870E060E008959FEFB6
:1044B00080EC089500240A941616170618060906BB
:1044C000089500240A94121613061406050608958A
:1044D000092E0394000C11F4882352F0BB0F40F412
:1044E000BF2B11F460FF04C06F5F7F4F8F4F9F4F52
:1044F000089557FD9058440F551F59F05F3F71F0D4
:104500004795880F97FB991F61F09F3F79F087953A
:104510000895121613061406551FF2CF4695F1DFC3
:1045200008C0161617061806991FF1CF8695710553
:10453000610508940895E894BB2766277727CB0187
:1045400097F90895F999FECF92BD81BDF89A992700
:1045500080B50895262FF999FECF1FBA92BD81BD6F
:1045600020BD0FB6F894FA9AF99A0FBE01960895F5
:104570002F923F924F925F926F927F928F929F9273
:10458000AF92BF92CF92DF92EF92FF920F931F9361
:10459000CF93DF93CDB7DEB7CA1BDB0B0FB6F89412
:1045A000DEBF0FBECDBF09942A88398848885F8452
:1045B0006E847D848C849B84AA84B984C884DF80C3
:1045C000EE80FD800C811B81AA81B981CE0FD11DA7
:1045D0000FB6F894DEBF0FBECDBFED010895505861
:1045E000BB27AA270E9407230C9468220E945A2204
:1045F00038F00E94612220F039F49F3F19F426F42C
:104600000C9457220EF4E095E7FB0C945122E92F0D
:104610000E94792258F3BA17620773078407950737
:1046200020F079F4A6F50C949B220EF4E0950B2E65
:10463000BA2FA02D0B01B90190010C01CA01A001F4
:104640001124FF27591B99F0593F50F4503E68F14F
:104650001A16F040A22F232F342F4427585FF3CF90
:10466000469537952795A795F0405395C9F77EF461
:104670001F16BA0B620B730B840BBAF09150A1F0AA
:10468000FF0FBB1F661F771F881FC2F70EC0BA0F30
:10469000621F731F841F48F4879577956795B795B8
:1046A000F7959E3F08F0B0CF9395880F08F09927B3
:1046B000EE0F9795879508950E9470230C946822B9
:1046C0000E94612258F00E945A2240F029F45F3F74
:1046D00029F00C94512251110C949C220C945722D5
:1046E0000E94792268F39923B1F3552391F3951B26
:1046F000550BBB27AA2762177307840738F09F5F03
:104700005F4F220F331F441FAA1FA9F335D00E2E6F
:104710003AF0E0E832D091505040E695001CCAF7DC
:104720002BD0FE2F29D0660F771F881FBB1F26179F
:1047300037074807AB07B0E809F0BB0B802DBF0176
:10474000FF2793585F4F3AF09E3F510578F00C9445
:1047500051220C949C225F3FE4F3983ED4F386955B
:1047600077956795B795F7959F5FC9F7880F911D66
:104770009695879597F90895E1E0660F771F881F52
:10478000BB1F621773078407BA0720F0621B730B05
:10479000840BBA0BEE1F88F7E09508950E94D5238D
:1047A0006894B1110C949C2208950E94812288F093
:1047B0009F5798F0B92F9927B751B0F0E1F0660FE5
:1047C000771F881F991F1AF0BA95C9F714C0B13026
:1047D00091F00E949B22B1E008950C949B22672FD8
:1047E000782F8827B85F39F0B93FCCF38695779555
:1047F0006795B395D9F73EF490958095709561953E
:104800007F4F8F4F9F4F08950E94C02108F48FEF74
:10481000089597FB072E16F4009407D077FD09D072
:104820000E94422407FC05D03EF4909581959F4F4D
:104830000895709561957F4F0895052E97FB1EF49E
:1048400000940E94342457FD07D00E94562407FC90
:1048500003D04EF40C943424509540953095219516
:104860003F4F4F4F5F4F089590958095709561959C
:104870007F4F8F4F9F4F0895EE0FFF1F0590F491CC
:10488000E02D0994AA1BBB1B51E107C0AA1FBB1F47
:10489000A617B70710F0A61BB70B881F991F5A95CC
:1048A000A9F780959095BC01CD010895A1E21A2E3B
:1048B000AA1BBB1BFD010DC0AA1FBB1FEE1FFF1FC4
:1048C000A217B307E407F50720F0A21BB30BE40B14
:1048D000F50B661F771F881F991F1A9469F760955B
:1048E0007095809590959B01AC01BD01CF01089515
:1048F0000F931F93CF93DF938230910510F482E0E2
:1049000090E0E0913B06F0913C0630E020E0B0E022
:10491000A0E0309799F42115310509F44AC0281B0D
:10492000390B24303105D8F58A819B8161157105D9
:1049300089F1FB0193838283FE0111C04081518183
:104940000281138148175907E0F04817590799F475
:10495000109761F012960C93129713961C9332964F
:10496000CF01DF91CF911F910F91089500933B06E6
:1049700010933C06F4CF2115310551F0421753072F
:1049800038F0A901DB019A01BD01DF01F801C1CFB7
:10499000EF01F9CF90933C0680933B06CDCFFE010B
:1049A000E20FF31F819391932250310939832883B9
:1049B000D7CF2091390630913A06232B41F420912C
:1049C0001B0130911C0130933A0620933906209147
:1049D000190130911A012115310541F42DB73EB767
:1049E00040911D0150911E01241B350BE0913906A9
:1049F000F0913A06E217F307A0F42E1B3F0B28179D
:104A0000390778F0AC014E5F5F4F2417350748F047
:104A10004E0F5F1F50933A0640933906819391934E
:104A20009FCFF0E0E0E09CCFCF93DF930097E9F0D9
:104A3000FC01329713821282A0913B06B0913C0692
:104A4000ED0130E020E01097A1F420813181820F48
:104A5000931F2091390630913A062817390709F03B
:104A600061C0F0933A06E0933906DF91CF91089543
:104A7000EA01CE17DF07E8F54A815B819E01411507
:104A80005105B1F7E901FB83EA8349915991C40FBC
:104A9000D51FEC17FD0761F4808191810296840F88
:104AA000951FE90199838883828193819B838A83FF
:104AB000F0E0E0E012968D919C9113970097B9F584
:104AC0002D913C911197CD010296820F931F209159
:104AD000390630913A062817390739F6309751F5DB
:104AE00010923C0610923B06B0933A06A09339060A
:104AF000BCCFD383C28340815181840F951FC817D7
:104B0000D90761F44E5F5F4F88819981480F591F23
:104B1000518340838A819B81938382832115310550
:104B200009F0B0CFF0933C06E0933B069ECFFD0129
:104B3000DC01C0CF13821282D7CFB0E0A0E0E3EA5D
:104B4000F5E20C94BA228C01009751F4CB010E943B
:104B500078248C01C801CDB7DEB7E0E10C94D622F1
:104B6000FC01E60FF71F9C0122503109E217F30701
:104B700008F49DC0D901CD91DC911197C617D707D4
:104B800098F0C530D10530F3CE010497861797070A
:104B900008F3C61BD70B2297C193D1936D937C93D7
:104BA000CF010E941425D6CF5B01AC1ABD0A4C017F
:104BB0008C0E9D1EA0913B06B0913C06512C412CC1
:104BC000F12CE12C109731F58091390690913A063D
:104BD0008815990509F05CC04616570608F058C0BC
:104BE0008091190190911A01009741F48DB79EB7F9
:104BF00040911D0150911E01841B950BE817F90788
:104C000008F055C0F0933A06E0933906F901718334
:104C10006083A0CF8D919C91119712966C90129702
:104C200013967C901397A815B90559F56C0142E0CD
:104C3000C40ED11CCA14DB0420F1AC014A195B0973
:104C4000DA011296159780F0628273825183408355
:104C5000D9016D937C93E114F10471F0D70113969F
:104C6000FC93EE93129776CF22968C0F9D1FF9013D
:104C700091838083F301EFCFF0933C06E0933B06F2
:104C800069CF4816590608F42C017D01D3019ACF4B
:104C9000CB010E9478247C01009749F0AE01B80155
:104CA0000E945A26C8010E941425870153CF10E0A4
:104CB00000E050CFFB01DC0102C001900D92415099
:104CC0005040D8F70895FB01DC0101900D920020BF
:084CD000E1F70895F894FFCF0D
:104CD8000101FFFFFFFF00E10000000000000105E7
:104CE80004050405040504050400003D06800000D1
:104CF8000040001400540000C18081000000000042
:104D080000009A051505BB05B0050106BF05DD05C0
:104D180000000000F406C7069C079D06C006AD0605
:104D28009E0600000000C909DD049C079C0620209F
:104D38004C494256204F50454E20534F55524345FB
:104D48002020002056454E54494C41544F52205083
:104D5800524F4A4543542000202020202020202064
:104D6800202020202020202020202020002020205B
:104D78007777772E62766D76656E742E6F72672000
:104D880020002020202053656C656374204D6F64DB
:104D9800653A20202020002020203E56435620201F
:104DA8002020204250415020202020002020202078
:104DB800564356202020203E42504150202020209B
:104DC800005643562053657474696E673A20202054
:104DD8002020202020003E495020006D6C202052C9
:104DE800522020200020495020003E545620006DBB
:104DF8006C203E5252202020003E494520313A0086
:104E080020202020205643562041435455414C2011
:104E18002020202000205041203430636D202020A5
:104E2800202020202020202020002054562032300E
:104E3800306D6C2020504950203430636D200020A4
:104E480020203C5345452053455454494E473E2065
:104E580020202000202020202020564356204D4F7F
:104E6800444520202020202000636D202020202081
:104E78002020202020200020525220002020202006
:104E880020494520313A00636D20202054562000E7
:104E98002020203E3E3E20414C41524D203C3C3C8F
:104EA8002020202000204950205345543A20203407
:104EB80030306D6C202020202000204950204143B4
:104EC800544C3A203335306D6C20202020200020AF
:104ED8002020425041502053657474696E673A200F
:104EE80020202000636D2020504545502000636D30
:104EF8002020205045455020002054502000636D4C
:104F08002020465354202000636D2020204653540F
:104F1800202000636D203E504545502000636D20E1
:104F2800203E5045455020003E54502000636D20DF
:104F38003E465354202000636D20203E46535420A3
:104F48002000202020204250415020414354554108
:104F58004C202020202000205456203230306D6C08
:104F6800202020504950203430636D00202020201C
:104F78002042504150204D4F4445202020202020E1
:104F880000203E3E204250415020204649414C4599
:104F980044203C3C2000203E3E20564356204641BB
:104FA800494C53414645203C3C2000204143545540
:104FB800414C3A2020504120203430636D2020009D
:104FC800205456203230306D6C20504950203430F7
:064FD800306D6C200000AA
:00000001FF
