:100000000C94DF000C948E070C9467070C94070186
:100010000C9407010C9407010C9407010C94070140
:100020000C9407010C9407010C9407010C94070130
:100030000C9407010C9407010C9407010C94070120
:100040000C941D070C9407010C94DB070C94B50766
:100050000C9407010C9407010C9407010C94070100
:100060000C940D080C94070100407A10F35A00A07C
:10007000724E18090010A5D4E80000E87648170071
:1000800000E40B54020000CA9A3B000000E1F505B1
:10009000000080969800000040420F000000A086FB
:1000A00001000000102700000000E803000000002D
:1000B0006400000000000A000000000001000000D1
:1000C00000002C76D888DC674F0823DFC1DFAE59EB
:1000D000E1B1B796E5E3E453C63AE651997696E87E
:1000E000E6C28426EB898C9B62ED407C6FFCEFBC02
:1000F0009C9F40F2BAA56FA5F490055A2AF75C932D
:100100006B6CF9676DC11BFCE0E40D47FEF520E662
:10011000B500D0ED902E0300943577050080841E45
:10012000080000204E0A000000C80C333333330FA0
:10013000986E12831141EF8D2114893BE65516CF3D
:10014000FEE6DB18D1844B381BF77C1D901DA4BB49
:10015000E424203284725E228100C9F124ECA1E5FE
:100160003D2700000000240027002A0000000000B6
:10017000250028002B0000000008000201000003F9
:100180000407000000000000000001020408102025
:100190004080010204081020010204081020000021
:1001A00000002300260029000404040404040404BD
:1001B0000202020202020303030303032C091124B7
:1001C0001FBECFEFD8E0DEBFCDBF23E0A2E9B1E094
:1001D00001C01D92A23AB207E1F711E0A0E0B1E040
:1001E000ECE8FFE202C005900D92A239B107D9F701
:1001F00010E0CFEDD0E004C02197FE010E94CC15A5
:10020000CE3DD107C9F70E94D70A0C94C4170C94AD
:1002100000002091680281E0213208F044C0809102
:1002200044028111FCCF8091670292E090934402D6
:1002300091E0909343029FEF90934202109241020B
:1002400020934002A7E4B2E0E0E2F2E090E029135C
:1002500031C010921F0290911F02880F892B80934A
:100260001F0280911E02813049F510921E0280917A
:100270001F028093BB008091BC0083FDF8CF85EC0A
:100280008093BC00809144028230E1F3809142026D
:100290008F3FB1F0809142028032A1F08091420202
:1002A000803391F084E0109246021092680210921E
:1002B000450208953D9131939F5FC9CF85EEE0CF10
:1002C00080E0F1CF82E0EFCF83E0EDCF833081F0AB
:1002D00028F4813099F08230A9F008958730A9F090
:1002E0008830C9F08430B1F4809180008F7D03C0E4
:1002F000809180008F7780938000089584B58F77F8
:1003000084BD089584B58F7DFBCF8091B0008F7739
:100310008093B00008958091B0008F7DF9CFCF9386
:10032000DF93282F30E0F901EA58FE4F8491F9015C
:10033000E657FE4FD491F901E855FE4FC491CC2306
:10034000A1F081110E946601EC2FF0E0EE0FFF1F7B
:10035000E256FE4FA591B491EC91ED2381E090E03F
:1003600009F480E0DF91CF91089580E090E0FACF2A
:100370001F93CF93DF93282F30E0F901EA58FE4F07
:100380008491F901E657FE4FD491F901E855FE4FEB
:10039000C491CC23A9F0162F81110E946601EC2F85
:1003A000F0E0EE0FFF1FE459FE4FA591B4918FB717
:1003B000F894EC91111108C0D095DE23DC938FBF27
:1003C000DF91CF911F910895DE2BF8CFCF93DF936C
:1003D00090E0FC01E657FE4F249188559E4FFC01AA
:1003E00084918823C9F090E0880F991FFC01EE5991
:1003F000FE4FA591B491FC01E459FE4FC591D491F3
:1004000061110DC09FB7F8948C91209582238C9335
:100410008881282328839FBFDF91CF910895623080
:1004200051F49FB7F8943C91822F809583238C934D
:10043000E8812E2BEFCF8FB7F894EC912E2B2C93D5
:100440008FBFEACF3FB7F89480911A0290911B02B8
:10045000A0911C02B0911D0226B5A89B05C02F3F9C
:1004600019F00196A11DB11D3FBFBA2FA92F982FDA
:100470008827BC01CD01620F711D811D911D42E0D5
:10048000660F771F881F991F4A95D1F708958F929D
:100490009F92AF92BF92CF92DF92EF92FF924B0169
:1004A0005C010E9422026B017C010E9422026C19F5
:1004B0007D098E099F09683E734081059105A8F367
:1004C00021E0821A9108A108B10888EEC80E83E0E5
:1004D000D81EE11CF11C81149104A104B10429F778
:1004E000FF90EF90DF90CF90BF90AF909F908F9054
:1004F00008952FB7F89460911602709117028091B9
:100500001802909119022FBF089508950895AF928F
:10051000BF92CF92DF92EF92FF920F931F93CF93F0
:10052000DF936C017B018B01040F151FEB015E0152
:10053000AE18BF08C017D10759F06991D601ED91E7
:10054000FC910190F081E02DC6010995892B79F786
:10055000C501DF91CF911F910F91FF90EF90DF9038
:10056000CF90BF90AF90089508950895FC01538DEA
:10057000448D252F30E0842F90E0821B930B54177D
:1005800010F0CF96089501970895FC01918D828D0A
:10059000981761F0A28DAE0FBF2FB11D5D968C91A3
:1005A000928D9F5F9F73928F90E008958FEF9FEFE2
:1005B0000895FC01918D828D981731F0828DE80F9E
:1005C000F11D858D90E008958FEF9FEF0895FC0158
:1005D000918D228D892F90E0805C9F4F821B910925
:1005E0008F739927089589E692E00E94E70221E03F
:1005F000892B09F420E0822F089580E090E0892B78
:1006000029F00E94F30281110C9400000895FC016E
:10061000A48DA80FB92FB11DA35ABF4F2C91848D63
:1006200090E001968F739927848FA689B7892C93C0
:10063000A089B1898C91837080648C93938D848D13
:10064000981306C00288F389E02D80818F7D808316
:100650000895EF92FF920F931F93CF93DF93EC01D6
:1006600081E0888F9B8D8C8D98131AC0E889F98959
:10067000808185FF15C09FB7F894EE89FF8960835C
:10068000E889F98980818370806480839FBF81E0DD
:1006900090E0DF91CF911F910F91FF90EF9008951F
:1006A000F62E0B8D10E00F5F1F4F0F731127E02EFA
:1006B0008C8D8E110CC00FB607FCFACFE889F98932
:1006C000808185FFF5CFCE010E940703F1CFEB8D2E
:1006D000EC0FFD2FF11DE35AFF4FF0829FB7F89406
:1006E0000B8FEA89FB8980818062CFCFCF93DF9324
:1006F000EC01888D8823B9F0AA89BB89E889F9893A
:100700008C9185FD03C0808186FD0DC00FB607FC6E
:10071000F7CF8C9185FFF2CF808185FFEDCFCE01A1
:100720000E940703E9CFDF91CF91089585ED809373
:10073000BC008091BC0084FDFCCF1092440208955F
:100740002091D201260F3327331F21323105ECF4DB
:1007500020914402FC0190E080E0243069F082E0C6
:100760000895A091D2012191AC014E545E4FA40F87
:10077000B52FB11D2C930196861798F38091D20165
:10078000680F6093D20180E0089581E0089562E0EF
:10079000FC0182810C94E601CF93DF93EC018A8106
:1007A0000E948F01388121E03817190609F420E0F2
:1007B000822FDF91CF9108950F931F93CF93DF93F3
:1007C000EC011B820E9479020C811D812E813F81E8
:1007D000601B710B820B930B688779878A879B87D5
:1007E0008A810E948F0128812817190619F48981AE
:1007F0008823D9F088859985AA85BB85843691059B
:10080000A105B10594F081E089838A810E948F015E
:1008100028812817190649F489818B8319820E943F
:1008200079026C837D838E839F838B81DF91CF914F
:100830001F910F9108950895E091FA018091F901B7
:10084000E81730F4F0E0EE56FE4F808190E0089516
:100850008FEF9FEF08959091FA018091F9012FEFAA
:100860003FEF981748F4E92FF0E0EE56FE4F208155
:1008700030E09F5F9093FA01C90108958091F901DA
:100880009091FA01891B990B0895CF92DF92EF9214
:10089000FF920F931F93CF93DF937C01CB018A01CB
:1008A00020914502222389F0EB016B01C40ED51E75
:1008B000CC15DD0569F06991D701ED91FC910190AE
:1008C000F081E02DC7010995F3CF642F0E94A003AA
:1008D000C801DF91CF911F910F91FF90EF90DF90B2
:1008E000CF900895CF93DF931F92CDB7DEB7698382
:1008F000209145022223F9F020916802203258F01D
:1009000021E030E0FC013383228390E080E00F900F
:10091000DF91CF91089580914602E82FF0E0E95BE6
:10092000FD4F998190838F5F809346028093680288
:1009300081E090E0ECCF61E0CE0101960E94A0033F
:10094000F7CF682F86E093E00C94720481E08093E7
:10095000450288E080936702109246021092680276
:1009600080910401909105016AE070E00E94631596
:10097000CB010E94A104809102019091030164E6E1
:1009800070E00E946315CB010E94A10480910001D8
:10099000909101010E94A1040C940901FC012481A1
:1009A00031E0309345022093670210924602109284
:1009B00068028385862B90E00E94A1040C940901B3
:1009C00090E080E0089561E08CE00E94B80164E668
:1009D00070E080E090E00E94470260E08CE00C94C0
:1009E000B801DC01ED91FD918081ED91FD91908147
:1009F000ED91FD916C9163708E2309F064609F23EB
:100A000009F06860EEE0F5E0E60FF11D659565958B
:100A10006D936D917D918D919D91099423C01AC024
:100A200012C016C010C01EC009C014C013C006C03A
:100A300019C009C00DC007C00DC014C0625070407D
:100A4000804090400BC0615070408040904006C094
:100A50006E5F01C06F5F7F4F8F4F9F4F9E938E934E
:100A60007E936E93089580911203909113030C94DA
:100A7000F10480911403909115030C94F1040F93E9
:100A80001F93CF938C01C62F0E94CE046C2F6460FD
:100A9000C8010E94CE046C2F6B7FC8010E94CE0457
:100AA00083EC90E00197F1F7CF911F910F9108959A
:100AB0000F931F93CF93DF938C01D62FC42F607FAA
:100AC000642B0E943F0580E1D89FB00111246C2B5C
:100AD000C801DF91CF911F910F910C943F05CF93E7
:100AE000DF93CDB7DEB728970FB6F894DEBF0FBE01
:100AF000CDBF98E0E0E1F1E0DE01119601900D92AA
:100B00009A95E1F790918F03961708F46FEF262FCF
:100B100030E0220F331F41E050E04C0F5D1F240FE7
:100B2000351FF9016081680F606840E086E893E056
:100B300028960FB6F894DEBF0FBECDBFDF91CF91E0
:100B40000C94580541E00E94580581E090E008951A
:100B5000FC0101900020E9F73197AF01481B590BC8
:100B6000BC0186E893E00C9487020F931F93CF9308
:100B7000DF938C01EB01FC01808191810097E1F012
:100B80006881798161157105A9F0428153812C81B9
:100B90003D814217530770F00E94BD178C819D81E3
:100BA000F801958384831D821C82DF91CF911F9170
:100BB0000F9108950E946E1688819981F8019183A2
:100BC00080838A819B81938382838C819D8195839D
:100BD0008483198218821B821A82E5CFCF93DF9318
:100BE000EC0188819981009711F00E946E1619829C
:100BF00018821D821C821B821A82DF91CF91089578
:100C0000FC0180819181009711F00C946E1608957B
:100C10000F931F93CF93DF93EC0188819981009705
:100C200059F02A813B812617370730F081E0DF91A8
:100C3000CF911F910F9108958B016F5F7F4F0E949D
:100C4000F716009759F0998388831B830A832C81B8
:100C50003D81232B59F7FC011082E8CF80E0E7CFDC
:100C6000EF92FF920F931F93CF93DF93611571055E
:100C700041F480E0DF91CF911F910F91FF90EF90B1
:100C8000089541155105B1F07B01EC010C811D81E6
:100C9000040F151FB8010E940806882351F328810C
:100CA00039818C819D81B701820F931F0E94BD17EE
:100CB0001D830C8381E0DECFCF93DF93EC01FB013A
:100CC00001900020E9F73197AF01461B570B0E94B6
:100CD0003006811103C0CE010E94EE05CE01DF91E6
:100CE000CF910895CF93DF93EC01FB0144815581AF
:100CF000608171810E943006811103C0CE010E9483
:100D0000EE05CE01DF91CF910895EF92FF920F9300
:100D10001F93CF93DF93EC017B018A01BA010E94FC
:100D2000080681110BC0CE010E94EE05CE01DF91B5
:100D3000CF911F910F91FF90EF9008951D830C8329
:100D4000B701888199810E94BD17F0CFFB01019006
:100D50000020E9F73197AF01461B570B0C9485062D
:100D60000F931F93CF93DF93CDB7DEB762970FB684
:100D7000F894DEBF0FBECDBF8C01CB01F80111820C
:100D8000108213821282158214824AE0BE016F5FC4
:100D90007F4F0E944010BE016F5F7F4FC8010E94CD
:100DA000A60662960FB6F894DEBF0FBECDBFDF91E8
:100DB000CF911F910F910895CF93DF93EC01FB0129
:100DC0008617970749F0608171816115710541F0BF
:100DD000448155810E948506CE01DF91CF9108950F
:100DE0000E94EE05F9CFFC0111821082138212825B
:100DF00015821482FB0101900020E9F73197AF01C1
:100E0000461B570B0C948506FF920F931F93CF93AD
:100E1000DF93EC01F62E08811981C8010E94FC13B2
:100E2000F81621F06F2DC8010E940414CE01DF9145
:100E3000CF911F910F91FF9008951F920F920FB6BF
:100E40000F9211242F933F938F939F93AF93BF9350
:100E50008091160290911702A0911802B091190288
:100E60003091150223E0230F2D3758F50196A11D6F
:100E7000B11D209315028093160290931702A09340
:100E80001802B093190280911A0290911B02A0914E
:100E90001C02B0911D020196A11DB11D80931A0282
:100EA00090931B02A0931C02B0931D02BF91AF91BF
:100EB0009F918F913F912F910F900FBE0F901F9098
:100EC000189526E8230F0296A11DB11DD2CF1F92BF
:100ED0000F920FB60F9211242F933F934F935F936E
:100EE0006F937F938F939F93AF93BF93EF93FF93F2
:100EF000E0910801F09109010995FF91EF91BF91EF
:100F0000AF919F918F917F916F915F914F913F91A1
:100F10002F910F900FBE0F901F9018951F920F9258
:100F20000FB60F9211242F933F934F935F936F93BC
:100F30007F938F939F93AF93BF93EF93FF93E09132
:100F40000601F09107010995FF91EF91BF91AF91D3
:100F50009F918F917F916F915F914F913F912F91D1
:100F60000F900FBE0F901F9018951F920F920FB603
:100F70000F9211242F933F934F935F936F937F931F
:100F80008F939F93AF93BF93EF93FF9389E692E084
:100F90000E940703FF91EF91BF91AF919F918F91B5
:100FA0007F916F915F914F913F912F910F900FBE65
:100FB0000F901F9018951F920F920FB60F92112449
:100FC0002F938F939F93EF93FF93E0917902F0918A
:100FD0007A028081E0917F02F091800282FD1BC045
:100FE0009081809182028F5F8F732091830282179C
:100FF00041F0E0918202F0E0E759FD4F958F809338
:101000008202FF91EF919F918F912F910F900FBED0
:101010000F901F9018958081F4CF1F920F920FB6FA
:101020000F9211242F933F934F935F936F937F936E
:101030008F939F93AF93BF93EF93FF938091B900EA
:10104000887F803609F44AC0F0F5883209F4A7C0D9
:1010500018F5803109F49BC0B8F4882309F4F9C06D
:10106000883009F494C0FF91EF91BF91AF919F91A7
:101070008F917F916F915F914F913F912F910F9041
:101080000FBE0F901F901895883109F488C08032E8
:1010900051F78093420214C0803409F49DC040F49B
:1010A0008033B9F38833F9F68093420285ECB0C0FF
:1010B000803509F485C0883509F496C0883499F6DE
:1010C0000E949603D0CF883909F48CC038F5883750
:1010D00029F050F4883611F0803729F683E08093A8
:1010E00044021092F40157C0883809F47BC080395B
:1010F00019F0803809F0B7CF8091F401803208F000
:1011000071C0E091F40181E08E0F8093F401809131
:10111000BB00F0E0EC52FE4F80833DC0803B39F0D5
:10112000E0F4803A09F479C0883A09F09CCF84E071
:10113000809344021092D3011092D201E091F70102
:10114000F091F80109958091D20181110FC081E0E1
:101150008093D2011092B20109C0803C09F4A6CF5D
:10116000883C09F4A3CF883B09F07DCFE091D301FF
:1011700081E08E0F8093D301F0E0EE54FE4F80812A
:101180008093BB009091D3018091D20129C08091BE
:101190001F028093BB0085EC8093BC0064CF9091CC
:1011A000410280914002981758F5E091410281E098
:1011B0008E0F80934102F0E0E05EFD4F8081E9CF29
:1011C000E091410281E08E0F809341028091BB004B
:1011D000F0E0E05EFD4F80839091410280914002FB
:1011E0009817C8F285E8D8CFE091410281E08E0FD0
:1011F000809341028091BB00F0E0E05EFD4F808370
:101200008091430281115CCF81E080931E0284EAC9
:101210008093BC001092440226CF85EC8093BC00E2
:10122000109244028091F401803230F4E091F40194
:10123000F0E0EC52FE4F10826091F40170E0E0911A
:10124000F501F091F60184ED91E009951092F40119
:101250000ACF1092420234CFCF93DF9310926C02E8
:1012600010926B0288EE93E0A0E0B0E080936D02F4
:1012700090936E02A0936F02B09370022CE131E064
:1012800030936A022093690225EC30E030937602B5
:101290002093750224EC30E030937802209377029B
:1012A00020EC30E030937A022093790221EC30E098
:1012B00030937C0220937B0222EC30E030937E025C
:1012C00020937D0226EC30E03093800220937F0251
:1012D0001092820210928302109284021092850270
:1012E000109209031092080380930A0390930B0352
:1012F000A0930C03B0930D038EE291E0909307034B
:101300008093060362E083E00E94E60162E082E0EF
:101310000E94E601EBEAF1E0E491F0E0EE0FFF1F3E
:10132000E256FE4FA591B491B0939303A09392031C
:10133000EDE8F1E0449140939603EAEAF1E0E491AC
:10134000F0E0EE0FFF1FE256FE4FC591D491D0930F
:101350009503C0939403ECE8F1E0E491E0939703E4
:101360001092990310929A0310929B0310929C037F
:101370002BE33FE1C9010197F1F79C91842F892369
:1013800091E009F490E08881E82309F0926022E975
:1013900033E090939803309315032093140389E36B
:1013A00095E0909309018093080180916900837F03
:1013B000846080936900E99A81E080939D03309373
:1013C00013032093120383E395E090930701809326
:1013D0000601809169008C7F816080936900E89AA2
:1013E00082E080939D03109289031092880320E489
:1013F00031E0309387032093860397E290938A032A
:1014000090E190938E0380938F031092900388E075
:101410008093910395E09093780310927703109254
:101420007A0310927B0310927C0310927D0310923A
:101430007E0310927F03109280031092810310921A
:10144000820310928303109284031092850396E026
:10145000909368031092670310926A0310926B03D3
:1014600010926C0310926D0310926E0310926F0332
:101470001092700310927103109272031092730312
:10148000109274031092750397E090935803109292
:10149000570310925A0310925B0310925C03109250
:1014A0005D0310925E0310925F031092600310922E
:1014B000610310926203109263031092640310920E
:1014C0006503809348031092470310924A031092D9
:1014D0004B0310924C0310924D0310924E03109246
:1014E0004F03109250031092510310925203109226
:1014F0005303109254031092550389E080933803EC
:101500001092370310923A0310923B0310923C035F
:1015100010923D0310923E0310923F03109240033D
:10152000109241031092420310924303109244031D
:10153000109245038BE080932803109227031092AA
:101540002A0310922B0310922C0310922D03109259
:101550002E0310922F031092300310923103109239
:1015600032031092330310923403109235038AE051
:10157000809318031092170310921A0310921B0302
:1015800010921C0310921D0310921E0310921F0351
:101590001092200310922103109222031092230331
:1015A0001092240310922503DF91CF910895CF93D9
:1015B000DF93CDB7DEB7C054D1090FB6F894DEBFC4
:1015C0000FBECDBF789484B5826084BD84B5816040
:1015D00084BD85B5826085BD85B5816085BD8091FE
:1015E0006E00816080936E00109281008091810076
:1015F000826080938100809181008160809381006E
:10160000809180008160809380008091B10084602F
:101610008093B1008091B00081608093B000809190
:101620007A00846080937A0080917A00826080934F
:101630007A0080917A00816080937A0080917A00AC
:10164000806880937A001092C100E0917902F09155
:101650007A0282E08083E0917502F0917602108236
:10166000E0917702F09178028FEC808310928102F2
:10167000E0917D02F0917E0286E08083E0917B0222
:10168000F0917C02808180618083E0917B02F09107
:101690007C02808188608083E0917B02F0917C02F3
:1016A000808180688083E0917B02F0917C02808160
:1016B0008F7D80831092FA011092F90110924602F8
:1016C000109268021092440281E0809343021092CB
:1016D0001E0261E082E10E94B80161E083E10E94A4
:1016E000B8018091B9008E7F8093B9008091B900D4
:1016F0008D7F8093B90088E48093B80085E480935F
:10170000BC0084EB92E09093F8018093F70185EBA5
:1017100092E09093F6018093F50110928B038091F3
:101720008F03823018F098E090938B039091900390
:10173000992339F0813029F480918B038460809360
:101740008B0362E370E080E090E00E9447026091CA
:10175000910386E893E00E94CE0468EE73E080E097
:1017600090E00E94470260E386E893E00E943F0514
:101770000BE416E4C8010197F1F760E386E893E013
:101780000E943F05C8010197F1F760E386E893E006
:101790000E943F0583E592E00197F1F760E286E859
:1017A00093E00E943F0560918B03606240E086E811
:1017B00093E00E94580584E080938C0340E06CE045
:1017C00086E893E00E94580540E061E086E893E0F7
:1017D0000E9458050BE31FE1C8010197F1F782E071
:1017E00080938D0340E066E086E893E00E94580510
:1017F00040E062E086E893E00E945805C801019746
:10180000F1F788E08093910360E086E893E00E941E
:10181000CE0461E08CE00E94E60161E08DE00E9470
:10182000E6011092260360E0809128030E94E60101
:101830001092160360E0809118030E94E60111E007
:101840001093760386E793E00E94C7031093660324
:1018500086E693E00E94C7031093560386E593E063
:101860000E94C7031093460386E493E00E94C703D7
:101870001093360386E393E00E94C7030E94E304BB
:1018800060E081E00E946F0588E491E00E94A80575
:101890008AE090E00E94FC132AE0829F70011124EC
:1018A000F0920501E09204018BE090E00E94FC13AD
:1018B00034E6839F800111241093030100930201F9
:1018C0008CE090E00E94FC1390E0909301018093E3
:1018D0000001F0920702E0920602109305020093C5
:1018E0000402909303028093020260ED77E080E0AF
:1018F00090E00E9447020E94A6040E94E30460E078
:1019000081E00E946F0589E591E00E94A80561E0F1
:1019100081E00E946F0589E691E00E94A80568EBCE
:101920007BE080E090E00E94470222E0222E312CF2
:10193000412C512C3BE0A32EB12C4CE0842E912C59
:101940007724739480919D03823008F01EC2F8942E
:1019500082E993E00E94F1046091990370919A03E7
:1019600080919B0390919C037894A20191010E9425
:10197000771569017A01C0921102D0921202E092A9
:101980001302F092140286E593E00E94CC038823B0
:1019900009F4FDC186E493E00E94CC038111F7C1F4
:1019A00086E393E00E94CC038111F1C10E94790289
:1019B00060930D0270930E0280930F0290931002B9
:1019C00070920C028091080290910902A0910A0283
:1019D000B0910B02C816D906EA06FB0609F02CC224
:1019E00086E793E00E94DC03882309F4C1C280915A
:1019F00006029091070290930501809304012091C3
:101A000004023091050230930301209302012091DA
:101A100002023091030230930101209300012AE079
:101A200030E03A8329836AE070E00E946315CE01BA
:101A300001960E940407809102019091030164E6DF
:101A400070E00E946315BA82A982CE0101960E94BD
:101A50000407609100019A828982CE0101960E945A
:101A600004070E94A60410920C020E94E3048091D5
:101A700006029091070290930102809300028091E8
:101A80000402909105029093FF018093FE018091E2
:101A90000202909103029093FD018093FC0168E69D
:101AA00071E0CE01CB960E94F30668E671E0CE01AC
:101AB000C5960E94F30668E671E0CE018F960E94FB
:101AC000F30668E671E0CE0189960E94F306609104
:101AD000000270910102CE0101960E94B006BE0183
:101AE0006F5F7F4FCE01CB960E94B505CE01019668
:101AF0000E9400066091FE017091FF01072E000C0C
:101B0000880B990B0E94DF1220E030E04AE754E492
:101B10000E94B6141CA21BA21EA21DA218A61FA2E0
:101B20008E010F5F1F4F22E044E00E9422100097B9
:101B300009F45DC2BC01CE0183960E94A606BE01D7
:101B40006D5D7F4FCE01C5960E94B505CE0183968F
:101B50000E94000689AD9AAD049728F0EDA9FEA970
:101B6000309709F049C21092FB01EBEFF1E083E7F7
:101B700080838091FC019091FD0180FD3FC297FD23
:101B80000196BC0175956795CE0101960E94B0063D
:101B900069E771E0CE0183960E94F306BE016F5F94
:101BA0007F4FCE0183960E94720665E671E00E9427
:101BB0005C06BC01CE018F960E94DC06CE018396A6
:101BC0000E940006CE0101960E9400066091FE016F
:101BD0007091FF01072E000C880B990B0E94DF12F9
:101BE00020E030E04AE754E40E94B6146B017C0127
:101BF0006091FC017091FD01072E000C880B990B80
:101C00000E94DF1220E030E040E05FE30E943E13DC
:101C1000A70196010E943E13A70196010E944A1453
:101C20009B01AC0160E070E080E792E40E94B61492
:101C30006B017C0120E030E0A9010E945E1520E0EC
:101C400030E040E05FE387FDF8C1C701B6010E94C4
:101C50004A140E9428151CA21BA21EA21DA218A68F
:101C60001FA22AE0AE014F5F5F4F0E944B10BE01E2
:101C70006F5F7F4FCE0183960E94A60662E871E0F7
:101C8000CE0101960E94F306BE016D5D7F4FCE012D
:101C900001960E947206BC01CE0189960E94DC0664
:101CA000CE0101960E940006CE0183960E94000696
:101CB00060E080E00E946F0567E871E0CE01019668
:101CC0000E94F306BE01655C7F4FCE0101960E9423
:101CD00072066BE871E00E945C06BE016B5C7F4F90
:101CE0000E947206FC01448155816081718186E801
:101CF00093E00E948702CE0101960E94000661E0F7
:101D000080E00E946F051A8219821C821B821E824B
:101D10001D82BE01615D7F4FCE0101960E94DC06EF
:101D2000BE01675D7F4FCE0101960E94720666E696
:101D300071E00E945C06FC014481558160817181E3
:101D400086E893E00E948702CE0101960E94000679
:101D5000CE0189960E940006CE018F960E94000651
:101D6000CE01C5960E940006CE01CB960E940006C9
:101D700080E090E0892B09F4E5CD0E94F3028823EE
:101D800009F4DECD0E940000DBCDF894E5CD86E5B8
:101D900093E00E94CC03882309F48FC086E593E08A
:101DA0000E94CC038111DBC086E493E00E94CC0347
:101DB0008111D5C086E393E00E94CC03882309F407
:101DC000CEC00E94790260930D0270930E02809340
:101DD0000F029093100270920C0280910802909171
:101DE0000902A0910A02B0910B02C816D906EA06B0
:101DF000FB0609F4F5CDF601E81BF90BCF012091A4
:101E0000020230910302C0920802D0920902E092CD
:101E10000A02F0920B02820F931F8930910514F091
:101E200088E090E08230910514F482E090E0909395
:101E300003028093020228C0B701A601481B590B78
:101E40006A0B7B0B24E1249FC001259F900D112478
:101E50002091060230910702C0920802D092090236
:101E6000E0920A02F0920B02820F931F893AE2E09D
:101E70009E0714F088EA92E097FF02C090E080E0AD
:101E8000909307028093060280910C028111A8CDE5
:101E900080910401909105019093010280930002CA
:101EA00080910201909103019093FF018093FE01C4
:101EB0008091000190910101EECD86E493E00E94B3
:101EC000CC03882309F46ACF86E393E00E94CC0315
:101ED000811164CF0E94790260930D0270930E020B
:101EE00080930F029093100270920C02809108026E
:101EF00090910902A0910A02B0910B02C816D9066E
:101F0000EA06FB0609F46CCDB701A601481B590B84
:101F10006A0B7B0B24E6249FC001259F900D1124A2
:101F20002091040230910502C0920802D092090269
:101F3000E0920A02F0920B02820F931F893BFBE0B2
:101F40009F0714F088EB9BE0803223E0920714F4A3
:101F500080E293E0909305028093040295CFC092B3
:101F60000802D0920902E0920A02F0920B028CCF92
:101F700086E693E00E94DC03882329F18091040126
:101F800090910501909307028093060280910201CF
:101F900090910301909305028093040280910001C7
:101FA0009091010190930302809302020E947902B2
:101FB00060930D0270930E0280930F0290931002B3
:101FC00010920C0254CD0E94790200910D021091E2
:101FD0000E0220910F0230911002601B710B820BD8
:101FE000930B60327E448105910540F640CDCE01D1
:101FF00083960E94EE05A3CD3396B9CDBC01615006
:10200000710977FDBC0175956795CE0101960E9417
:10201000B00669E771E0CE0183960E94F306BE0127
:102020006F5F7F4FCE0183960E9472066FE771E06B
:102030000E945C0667E671E0BACDC701B6010E9456
:10204000491407CEEF920F931F93CF93DF93E801CC
:1020500034E047FD34E1042E000C550B57FF03C05C
:10206000519541955109E32E022F242FAE010E9474
:102070009610CE01DF91CF911F910F91EF900895AF
:10208000BB274A3031F4992322F4BDE29095819523
:102090009F4F0C947D10BB272A3051F4992342F4B2
:1020A000BDE290958095709561957F4F8F4F9F4FC2
:1020B0000C945B10BB27FA01A62F621771058105EE
:1020C0009105330B30FB66F0AA27660F771F881F38
:1020D000991FAA1FA21710F0A21B63953850A9F7E9
:1020E000A05DAA3308F0A95DA19336F7B111B193B1
:1020F0001082CA010C94CD12BB27FB015527AA27D9
:10210000880F991FAA1FA41710F0A41B8395505184
:10211000B9F7A05DAA3308F0A95DA193009779F7FC
:10212000B111B1931192CB010C94CD12A9E0B0E0A2
:10213000ECE9F0E10C9418146A01F22EB02E102F85
:10214000FBE3AF2EA01608F41BE31F5F012F27E06F
:10215000AE014F5F5F4F0E94F511BC018981982F3E
:102160009970913009F43FC09BE2E1FC04C09E2DC0
:102170009170E0FC3AC05E2D5071E82FE87083FF4B
:1021800046C084E0911101C083E0EF2DE81B8F155C
:1021900008F0E0E0D6018E2F20E2552351F199237B
:1021A00029F0D6019C93C60101966C0196012D5F22
:1021B0003F4FE2FE24C08EE4D6018C9391E4119649
:1021C0009C93119712968C93D9018E2F90E28111D6
:1021D0001BC0E20FF32FF11D10828EEF9FEF2996A7
:1021E000ECE00C9434149DE2C6CF90E2C4CF2D9362
:1021F00081508111FCCFCE0ED11CE0E0D0CF8EE615
:10220000D6018C9391E6DBCF9D938150E0CF482F90
:10221000447082FF3DC084E0911101C083E08F15BE
:1022200010F4EF2DE81BD6018E2F20E2552309F183
:10223000992329F0D6019C93C60101966C01960161
:102240002D5F3F4FE2FE1BC089E4D6018C938EE4E4
:1022500011968C93119786E412968C93D9018E2F48
:1022600090E2882309F4B5CF9D938150FACF2D9346
:1022700081508111FCCFCE0ED11CE0E0D9CF89E690
:10228000D6018C938EE611968C93119786E6E4CF57
:102290009B0177FF02C030E020E0A1E0B0E09111A7
:1022A00002C0B0E0A0E0F9013196AE0FBF1F8B2C49
:1022B000912CBB2009F461C05401EFEFAE1ABE0AA5
:1022C000AA0DBB1DFA161B0619F014F04F2D4A1B60
:1022D000511188C0E3FC59C07601A42FB0E2A111CE
:1022E0004FC0C40ED11C992309F45BC040E0D60155
:1022F0001196F60190836D01552309F448C0012F12
:10230000060F9A81582F507184FF03C0913309F44E
:10231000015010160CF047C0093008F008E0EEE25A
:10232000FE2E5B01A01AB108850191948194910859
:102330002F3F320729F4D601FC92F60131966F0146
:102340006217730794F1021713077CF5DB01A21BD8
:10235000B30BAA24A394B12CAC0EBD1EAA0DBB1DB9
:1023600011968C9121503109D60111962815390505
:10237000F4F0F60180836D01DBCFB12CA12CA0CF4E
:10238000F701B1937F01A150AACF9111B0CFD6012F
:10239000942F50E302C05D9391509111FCCFC40E75
:1023A000D11C40E0ACCF01E0BACF80E3DBCF6217B5
:1023B000730731F4963388F4953311F4552369F09B
:1023C000F6018083FD01842F90E2811108C0A40FE3
:1023D000B11D1C9290E080E002CF81E3F1CF919398
:1023E0008150F3CF911183CF8ACF283008F027E0B6
:1023F0003327DA01990F311D87FD91600096610541
:10240000710539F432602E5F3D9330E32A95E1F790
:1024100008959F3F30F080387105610509F03C5FF9
:102420003C5F3D93913008F08068911DDF93CF931E
:102430001F930F93FF92EF92192F987F9695E92F94
:1024400096959695E90FFF27EE53FF4F992733276F
:10245000EE24FF24A701E70105900894079428F4CF
:10246000360FE71EF81E491F511D660F771F881F84
:10247000991F0694A1F70590079428F4E70EF81E1B
:10248000491F561FC11D770F881F991F661F06948D
:10249000A1F70590079428F4F80E491F561FC71F8F
:1024A000D11D880F991F661F771F0694A1F705900D
:1024B000079420F4490F561FC71FD81F990F661F96
:1024C000771F881F0694A9F784911095177041F023
:1024D000D695C79557954795F794E7941A95C1F700
:1024E000E8E6F0E068941590159135916591959125
:1024F00005907FE27395E118F10A430B560BC90B67
:10250000D009C0F7E10CF11E431F561FC91FD01D93
:102510007EF4703311F48A95E6CFE894015030F0E0
:10252000080F0AF40027021708F4202F2395022F22
:102530007A3328F079E37D932A95E9F710C07D93EB
:102540002A9589F606949795679537951795179468
:10255000E118F10A430B560BC90BD00998F02395EB
:102560007E9173957A3308F070E37C932013B8F76B
:102570007E9170617D9330F0839571E37D9370E37C
:102580002A95E1F71124EF90FF900F911F91CF91C1
:10259000DF91992787FD90950895DC01FC01672F55
:1025A00071917723E1F7329704C07C916D9370832A
:1025B0006291AE17BF07C8F30895E89409C097FB6E
:1025C0003EF490958095709561957F4F8F4F9F4F0A
:1025D0009923A9F0F92F96E9BB279395F69587954E
:1025E00077956795B795F111F8CFFAF4BB0F11F411
:1025F00060FF1BC06F5F7F4F8F4F9F4F16C08823B8
:1026000011F096E911C0772321F09EE8872F762FED
:1026100005C0662371F096E8862F70E060E02AF02E
:102620009A95660F771F881FDAF7880F969587951A
:1026300097F90895990F0008550FAA0BE0E8FEEFEF
:1026400016161706E807F907C0F012161306E40776
:10265000F50798F0621B730B840B950B39F40A266F
:1026600061F0232B242B252B21F408950A2609F44D
:10267000A140A6958FEF811D811D08950E945113E1
:102680000C94C2130E94B41338F00E94BB1320F0C4
:10269000952311F00C94AB130C94B11311240C94EA
:1026A000F6130E94D31370F3959FC1F3950F50E07A
:1026B000551F629FF001729FBB27F00DB11D639FF4
:1026C000AA27F00DB11DAA1F649F6627B00DA11D9A
:1026D000661F829F2227B00DA11D621F739FB00D40
:1026E000A11D621F839FA00D611D221F749F3327B0
:1026F000A00D611D231F849F600D211D822F762F49
:102700006A2F11249F5750409AF0F1F088234AF025
:10271000EE0FFF1FBB1F661F771F881F9150504091
:10272000A9F79E3F510580F00C94AB130C94F6135F
:102730005F3FE4F3983ED4F3869577956795B79518
:10274000F795E7959F5FC1F7FE2B880F911D969532
:10275000879597F9089597F99F6780E870E060E0A2
:1027600008959FEF80EC089500240A94161617062A
:1027700018060906089500240A9412161306140672
:1027800005060895092E0394000C11F4882352F0D5
:10279000BB0F40F4BF2B11F460FF04C06F5F7F4F8D
:1027A0008F4F9F4F089557FD9058440F551F59F074
:1027B0005F3F71F04795880F97FB991F61F09F3F2E
:1027C00079F087950895121613061406551FF2CF57
:1027D0004695F1DF08C0161617061806991FF1CFA7
:1027E00086957105610508940895E894BB276627CE
:1027F0007727CB0197F90895F999FECF92BD81BD56
:10280000F89A992780B50895262FF999FECF1FBA17
:1028100092BD81BD20BD0FB6F894FA9AF99A0FBE09
:10282000019608952F923F924F925F926F927F92FE
:102830008F929F92AF92BF92CF92DF92EF92FF92D0
:102840000F931F93CF93DF93CDB7DEB7CA1BDB0B7C
:102850000FB6F894DEBF0FBECDBF09942A88398821
:1028600048885F846E847D848C849B84AA84B98428
:10287000C884DF80EE80FD800C811B81AA81B98134
:10288000CE0FD11D0FB6F894DEBF0FBECDBFED0148
:1028900008955058BB27AA270E9461140C94C213B4
:1028A0000E94B41338F00E94BB1320F039F49F3F0C
:1028B00019F426F40C94B1130EF4E095E7FB0C9494
:1028C000AB13E92F0E94D31358F3BA1762077307AB
:1028D0008407950720F079F4A6F50C94F5130EF40F
:1028E000E0950B2EBA2FA02D0B01B90190010C0120
:1028F000CA01A0011124FF27591B99F0593F50F438
:10290000503E68F11A16F040A22F232F342F44278F
:10291000585FF3CF469537952795A795F040539587
:10292000C9F77EF41F16BA0B620B730B840BBAF057
:102930009150A1F0FF0FBB1F661F771F881FC2F7C2
:102940000EC0BA0F621F731F841F48F487957795D6
:102950006795B795F7959E3F08F0B0CF9395880F90
:1029600008F09927EE0F9795879508950E94CA144D
:102970000C94C2130E94BB1358F00E94B41340F091
:1029800029F45F3F29F00C94AB1351110C94F6130A
:102990000C94B1130E94D31368F39923B1F3552318
:1029A00091F3951B550BBB27AA2762177307840762
:1029B00038F09F5F5F4F220F331F441FAA1FA9F3F8
:1029C00035D00E2E3AF0E0E832D091505040E695E6
:1029D000001CCAF72BD0FE2F29D0660F771F881F47
:1029E000BB1F261737074807AB07B0E809F0BB0B3A
:1029F000802DBF01FF2793585F4F3AF09E3F51054E
:102A000078F00C94AB130C94F6135F3FE4F3983E0C
:102A1000D4F3869577956795B795F7959F5FC9F736
:102A2000880F911D9695879597F90895E1E0660FB7
:102A3000771F881FBB1F621773078407BA0720F030
:102A4000621B730B840BBA0BEE1F88F7E095089599
:102A50000E942F156894B1110C94F61308950E94EA
:102A6000DB1388F09F5798F0B92F9927B751B0F032
:102A7000E1F0660F771F881F991F1AF0BA95C9F702
:102A800014C0B13091F00E94F513B1E008950C9498
:102A9000F513672F782F8827B85F39F0B93FCCF34B
:102AA000869577956795B395D9F73EF4909580957F
:102AB000709561957F4F8F4F9F4F08950E941A1315
:102AC00008F48FEF089597FB072E16F4009407D0B3
:102AD00077FD09D00E94961507FC05D03EF490952D
:102AE00081959F4F0895709561957F4F0895052EAC
:102AF00097FB1EF400940E948E1557FD07D00E948C
:102B0000AA1507FC03D04EF40C948E1550954095F1
:102B1000309521953F4F4F4F5F4F08959095809589
:102B2000709561957F4F8F4F9F4F0895AA1BBB1BD8
:102B300051E107C0AA1FBB1FA617B70710F0A61BBD
:102B4000B70B881F991F5A95A9F780959095BC01DE
:102B5000CD010895A1E21A2EAA1BBB1BFD010DC0D9
:102B6000AA1FBB1FEE1FFF1FA217B307E407F5073D
:102B700020F0A21BB30BE40BF50B661F771F881F19
:102B8000991F1A9469F760957095809590959B01AF
:102B9000AC01BD01CF010895EE0FFF1F0590F49128
:102BA000E02D09940F931F93CF93DF93823091050B
:102BB00010F482E090E0E091A003F091A10330E0F6
:102BC00020E0B0E0A0E0309799F42115310509F438
:102BD0004AC0281B390B24303105D8F58A819B81E6
:102BE0006115710589F1FB0193838283FE0111C098
:102BF000408151810281138148175907E0F048173D
:102C0000590799F4109761F012960C931297139646
:102C10001C933296CF01DF91CF911F910F910895B0
:102C20000093A0031093A103F4CF2115310551F0B7
:102C30004217530738F0A901DB019A01BD01DF01FA
:102C4000F801C1CFEF01F9CF9093A1038093A003C6
:102C5000CDCFFE01E20FF31F8193919322503109F2
:102C600039832883D7CF20919E0330919F03232B54
:102C700041F420910C0130910D0130939F0320937A
:102C80009E0320910A0130910B012115310541F479
:102C90002DB73EB740910E0150910F01241B350B0B
:102CA000E0919E03F0919F03E217F307A0F42E1B1F
:102CB0003F0B2817390778F0AC014E5F5F4F2417A0
:102CC000350748F04E0F5F1F50939F0340939E03BC
:102CD000819391939FCFF0E0E0E09CCFCF93DF937F
:102CE0000097E9F0FC01329713821282A091A003B1
:102CF000B091A103ED0130E020E01097A1F4208114
:102D00003181820F931F20919E0330919F032817DA
:102D1000390709F061C0F0939F03E0939E03DF91B0
:102D2000CF910895EA01CE17DF07E8F54A815B816C
:102D30009E0141155105B1F7E901FB83EA834991F1
:102D40005991C40FD51FEC17FD0761F48081918163
:102D50000296840F951FE90199838883828193816C
:102D60009B838A83F0E0E0E012968D919C9113970B
:102D70000097B9F52D913C911197CD010296820FE4
:102D8000931F20919E0330919F032817390739F62E
:102D9000309751F51092A1031092A003B0939F03B6
:102DA000A0939E03BCCFD383C28340815181840F03
:102DB000951FC817D90761F44E5F5F4F88819981CD
:102DC000480F591F518340838A819B81938382835B
:102DD0002115310509F0B0CFF093A103E093A003D2
:102DE0009ECFFD01DC01C0CF13821282D7CFB0E0AD
:102DF000A0E0EDEFF6E10C9414148C01009751F46F
:102E0000CB010E94D2158C01C801CDB7DEB7E0E13D
:102E10000C943014FC01E60FF71F9C01225031097D
:102E2000E217F30708F49DC0D901CD91DC91119709
:102E3000C617D70798F0C530D10530F3CE010497F7
:102E40008617970708F3C61BD70B2297C193D19318
:102E50006D937C93CF010E946E16D6CF5B01AC1AA6
:102E6000BD0A4C018C0E9D1EA091A003B091A10340
:102E7000512C412CF12CE12C109731F580919E03BF
:102E800090919F038815990509F05CC04616570676
:102E900008F058C080910A0190910B01009741F40D
:102EA0008DB79EB740910E0150910F01841B950B79
:102EB000E817F90708F055C0F0939F03E0939E03CD
:102EC000F90171836083A0CF8D919C911197129627
:102ED0006C90129713967C901397A815B90559F525
:102EE0006C0142E0C40ED11CCA14DB0420F1AC0119
:102EF0004A195B09DA011296159780F06282738293
:102F000051834083D9016D937C93E114F10471F0F6
:102F1000D7011396FC93EE93129776CF22968C0FDF
:102F20009D1FF90191838083F301EFCFF093A103FB
:102F3000E093A00369CF4816590608F42C017D01DF
:102F4000D3019ACFCB010E94D2157C01009749F0A2
:102F5000AE01B8010E94B417C8010E946E16870125
:102F600053CF10E000E050CFFB01DC0102C0019024
:102F70000D9241505040D8F70895FB01DC010190BB
:0C2F80000D920020E1F70895F894FFCFB7
:102F8C000200E8036400850285020000A2038000B1
:102F9C0000004000140054000000000029038702C8
:102FAC00B6027603E702C502D902000000007204E3
:102FBC004504E0041B043E042B041C040000000028
:102FCC00A2058702E0048602202053544152544942
:102FDC004E472E2E2E20202000202020202052452F
:102FEC00414459202020202000434845434B205386
:102FFC00455454494E4753200049453D313A002E23
:10300C00350042504D3D0054563D006D6C205449E6
:02301C003D0075
:00000001FF
