:100000000C9462000C9406070C94DF060C948A0092
:100010000C948A000C948A000C948A000C948A0038
:100020000C948A000C948A000C948A000C948A0028
:100030000C948A000C948A000C948A000C948A0018
:100040000C9495060C948A000C9453070C942D077D
:100050000C948A000C948A000C948A000C948A00F8
:100060000C9485070C948A000000000024002700EF
:100070002A0000000000250028002B0000000008D6
:10008000000201000003040700000000000000005F
:10009000010204081020408001020408102001021F
:1000A000040810200000000023002600290004049A
:1000B0000404040404040202020202020303030310
:1000C0000303A40811241FBECFEFD8E0DEBFCDBFCD
:1000D00023E0AAE4B1E001C01D92A634B207E1F723
:1000E00011E0A0E0B1E0EEE8F6E202C005900D926A
:1000F000AA34B107D9F710E0C2E6D0E004C02197D6
:10010000FE010E943F13C136D107C9F70E942B0A96
:100110000C9445130C940000833081F028F4813056
:1001200099F08230A9F008958730A9F08830C9F09D
:100130008430B1F4809180008F7D03C08091800075
:100140008F7780938000089584B58F7784BD08955C
:1001500084B58F7DFBCF8091B0008F778093B00006
:1001600008958091B0008F7DF9CFCF93DF93282F32
:1001700030E0F901E458FF4F8491F901E057FF4F57
:10018000D491F901E255FF4FC491CC23A1F0811124
:100190000E948C00EC2FF0E0EE0FFF1FEC55FF4F9C
:1001A000A591B491EC91ED2381E090E009F480E019
:1001B000DF91CF91089580E090E0FACF1F93CF9325
:1001C000DF93282F30E0F901E458FF4F8491F901C3
:1001D000E057FF4FD491F901E255FF4FC491CC2372
:1001E000A9F0162F81110E948C00EC2FF0E0EE0F89
:1001F000FF1FEE58FF4FA591B4918FB7F894EC9183
:10020000111108C0D095DE23DC938FBFDF91CF9111
:100210001F910895DE2BF8CFCF93DF9390E0FC0180
:10022000E057FF4F249182559F4FFC018491882312
:10023000C9F090E0880F991FFC01E859FF4FA59184
:10024000B491FC01EE58FF4FC591D49161110DC0DE
:100250009FB7F8948C91209582238C9388812823D2
:1002600028839FBFDF91CF910895623051F49FB7EB
:10027000F8943C91822F809583238C93E8812E2BD8
:10028000EFCF8FB7F894EC912E2B2C938FBFEACF42
:100290001F93CF93DF93182FEB0161E00E940C01B5
:1002A000209739F460E0812FDF91CF911F910C945A
:1002B000DE00CF3FD10511F461E0F5CFE12FF0E092
:1002C000E458FF4FE491E33031F140F4E130B1F014
:1002D000E230E1F0C038D1057CF7E4CFE73029F116
:1002E000E83059F1E430B1F780918000806280936A
:1002F0008000D0938B00C0938A0004C084B58068CE
:1003000084BDC7BDDF91CF911F91089584B58062F0
:1003100084BDC8BDF7CF8091800080688093800045
:10032000D0938900C0938800EDCF8091B0008068A1
:100330008093B000C093B300E5CF8091B00080629D
:100340008093B000C093B400DDCF3FB7F8948091A4
:10035000230290912402A0912502B091260226B595
:10036000A89B05C02F3F19F00196A11DB11D3FBFED
:10037000BA2FA92F982F8827BC01CD01620F711DBC
:10038000811D911D42E0660F771F881F991F4A95B6
:10039000D1F708952FB7F89460911F027091200251
:1003A00080912102909122022FBF08950F931F93F5
:1003B0001092F7020E94CA010091F8021091F9020E
:1003C0002091FA023091FB02601B710B820B930BA0
:1003D0006093FC027093FD028093FE029093FF02F3
:1003E0008091F6020E94B5002091F40228171906A8
:1003F00021F48091F502882349F18091FC029091CB
:10040000FD02A091FE02B091FF0284369105A10584
:10041000B105E4F081E08093F5028091F6020E943C
:10042000B5002091F4022817190681F48091F50295
:100430008093F7021092F5020E94CA016093F802BD
:100440007093F9028093FA029093FB028091F70275
:100450001F910F9108950895AF92BF92CF92DF92AE
:10046000EF92FF920F931F93CF93DF936C017B0169
:100470008B01040F151FEB015E01AE18BF08C017FA
:10048000D10759F06991D601ED91FC910190F0816D
:10049000E02DC6010995892B79F7C501DF91CF9130
:1004A0001F910F91FF90EF90DF90CF90BF90AF9092
:1004B00008950895CF93DF93AC01E091DC01F091B2
:1004C000DD013097F1F09091DB018091DA0198170E
:1004D000C0F090E0292F30E02617370754F4D901F7
:1004E000A65BBE4F240F351FE90128812C939F5F27
:1004F000F1CF1092DB016093DA01CB01DF91CF9154
:100500000994DF91CF910895FC01538D448D252FDF
:1005100030E0842F90E0821B930B541710F0CF969D
:10052000089501970895FC01918D828D981761F0CF
:10053000A28DAE0FBF2FB11D5D968C91928D9F5FE6
:100540009F73928F90E008958FEF9FEF0895FC01C5
:10055000918D828D981731F0828DE80FF11D858D78
:1005600090E008958FEF9FEF0895FC01918D228D0B
:10057000892F90E0805C9F4F821B91098F73992790
:10058000089587E292E00E94B50221E0892B09F4E8
:1005900020E0822F089580E090E0892B29F00E94CE
:1005A000C10281110C9400000895FC01A48DA80FD4
:1005B000B92FB11DA35ABF4F2C91848D90E00196A5
:1005C0008F739927848FA689B7892C93A089B189C5
:1005D0008C91837080648C93938D848D981306C066
:1005E0000288F389E02D80818F7D80830895EF92CA
:1005F000FF920F931F93CF93DF93EC0181E0888FDD
:100600009B8D8C8D98131AC0E889F989808185FFAC
:1006100015C09FB7F894EE89FF896083E889F9894E
:1006200080818370806480839FBF81E090E0DF9150
:10063000CF911F910F91FF90EF900895F62E0B8DA3
:1006400010E00F5F1F4F0F731127E02E8C8D8E115E
:100650000CC00FB607FCFACFE889F989808185FFC5
:10066000F5CFCE010E94D502F1CFEB8DEC0FFD2F1F
:10067000F11DE35AFF4FF0829FB7F8940B8FEA8980
:10068000FB8980818062CFCFCF93DF93EC01888D8F
:100690008823B9F0AA89BB89E889F9898C9185FDFD
:1006A00003C0808186FD0DC00FB607FCF7CF8C918B
:1006B00085FFF2CF808185FFEDCFCE010E94D5026C
:1006C000E9CFDF91CF91089585ED8093BC008091B3
:1006D000BC0084FDFCCF1092D701089520918A01BF
:1006E000260F3327331F21323105ECF42091D70137
:1006F000FC0190E080E0243069F082E00895A09150
:100700008A012191AC0146595E4FA40FB52FB11D4E
:100710002C930196861798F380918A01680F609355
:100720008A0180E0089581E008950895E091DB0159
:100730008091DA01E81730F4F0E0E65BFE4F80814B
:1007400090E008958FEF9FEF08959091DB018091E5
:10075000DA012FEF3FEF981748F4E92FF0E0E65B5E
:10076000FE4F208130E09F5F9093DB01C901089527
:100770008091DA019091DB01891B990B0895CF9349
:10078000DF93CB01EA01642F0E946E03CE01DF915B
:10079000CF910895CF93DF931F92CDB7DEB76983D2
:1007A00061E0CE0101960E946E0381E090E00F901F
:1007B000DF91CF91089590E080E008958F929F920D
:1007C000AF92BF92CF92DF92EF92FF92CF93DF93DF
:1007D000C091E001D091E101D0930502C0930402E1
:1007E0008091DE019091DF01C89FB001C99F700D1B
:1007F000D89F700D1124072E000C880B990B0E94B6
:10080000481020E030E040E05FE30E94A71020E0C5
:1008100030E040E05FE30E94A7100E945A126B0193
:100820007093FB016093FA017093F9016093F801F2
:100830006091E2017091E301072E000C880B990B87
:100840000E94481020E030E04AE254E40E94E8119F
:1008500022E538EB4EE15FE30E94A710609312029D
:1008600070931302809314029093150220E030E0FD
:100870004AE754E40E94A7104B015C01BE01DD0F62
:10088000880B990B0E9448109B01AC01C501B40173
:100890000E94E81160930E0270930F028093100281
:1008A00090931102B601DD0C880B990B0E94481041
:1008B0009B01AC01C501B4010E94E81190586093FE
:1008C000FC017093FD018093FE019093FF01DF9185
:1008D000CF91FF90EF90DF90CF90BF90AF909F901F
:1008E0008F900895DC01ED91FD918081ED91FD9156
:1008F0009081ED91FD916C9163708E2309F064609D
:100900009F2309F06860EFE8F4E0E60FF11D6595BC
:1009100065956D936D917D918D919D91099423C005
:100920001AC012C016C010C01EC009C014C013C027
:1009300006C019C009C00DC007C00DC014C0625068
:100940007040804090400BC06150704080409040AB
:1009500006C06E5F01C06F5F7F4F8F4F9F4F9E93AA
:100960008E937E936E9308958091D0029091D102E0
:100970000C9472048091D2029091D3020C94720470
:10098000FC0101900020E9F73197AF01481B590B9A
:10099000BC0187E292E00C942C028F929F92AF925E
:1009A000BF920F931F93CF93DF93CDB7DEB7A1977D
:1009B0000FB6F894DEBF0FBECDBF19A2423008F4C7
:1009C0004AE08E010F5D1F4F842E912CB12CA12C7B
:1009D000A50194010E940913E62FB901CA01EA306A
:1009E000F4F4E05DD801EE938D01232B242B252B0D
:1009F00079F790E080E0109719F0CD010E94C004D3
:100A0000A1960FB6F894DEBF0FBECDBFDF91CF9198
:100A10001F910F91BF90AF909F908F900895E95CC8
:100A2000E1CFCF92DF92EF92FF92CF93DF936C01F1
:100A3000990FEE08FF08F7FE19C06DE287E292E019
:100A40000E94F702EC0166277727CB016C197D091C
:100A50008E099F094AE00E94CD048C0F9D1FDF91F3
:100A6000CF91FF90EF90DF90CF9008954AE0C701BB
:100A7000B601DF91CF91FF90EF90DF90CF900C9473
:100A8000CD04FF920F931F93CF93DF93EC01F62ECB
:100A900008811981C8010E946511F81621F06F2D97
:100AA000C8010E946D11CE01DF91CF911F910F916E
:100AB000FF9008954F925F926F927F928F929F92D4
:100AC000AF92BF92CF92DF92EF92FF92CF93DF93DC
:100AD00000D0CDB7DEB784EC92E00E94A5037C0184
:100AE0002AE02E9DC0012F9D900D11249093E301CB
:100AF0008093E20184EC92E00E94A50324E6AC011D
:100B0000249FC001259F900D11249093E1018093B3
:100B1000E00184EC92E00E94A5039093DF018093B2
:100B2000DE018AE090E09A8389836E2DCE010196E2
:100B30000E9441058091E0019091E10164E670E03E
:100B40000E94F5128BE090E09A838983CE01019692
:100B50000E9441056091DE018CE090E09A838983D8
:100B6000CE0101960E9441050E94DE0388E291E0D9
:100B70000E94C0048091E2019091E3010E9411055E
:100B80008CE291E00E94C0048091E0019091E1012B
:100B90000E94110583E391E00E94C0046091DE0190
:100BA0007091DF01072E000C880B990B0E944810F2
:100BB00020E030E040E05FE30E94A7106B017C0181
:100BC0004B015C01AC019B010E94DB128823C9F040
:100BD0008AE391E00E94C00486E491E00E94C00490
:100BE0000F900F90DF91CF91FF90EF90DF90CF901B
:100BF000BF90AF909F908F907F906F905F904F903D
:100C0000089526013701E89477F82FEF3FEF4FE77B
:100C10005FE7C301B2010E94DB1281110DC02FEF0B
:100C20003FEF4FE75FE7C301B2010E944110181682
:100C30001CF48EE391E0CECF2FEF3FEF4FE75FE460
:100C4000C701B6010E94901218161CF482E491E0CC
:100C5000C1CF2FEF3FEF4FE75FECC701B6010E9416
:100C6000411087FDF3CF20E030E0A901C701B601B4
:100C70000E94411087FF0BC06DE287E292E00E9464
:100C8000F70246015701B7FAB094B7F8B0942AE0DA
:100C900037ED43EA5BE3C501B4010E947C114B01CF
:100CA0005C010E9461126B017C010E9446109B0155
:100CB000AC01C501B4010E947B114B015C014AE00B
:100CC000C701B6010E94CD046EE287E292E00E9465
:100CD000F70220E030E040E251E4C501B4010E9497
:100CE000A7104B015C010E9461126B01F12CE12CF9
:100CF0004AE0C701B6010E94CD04C701B6010E94B7
:100D000046109B01AC01C501B4010E947B1120E09B
:100D100030E040E251E40E94A7100E94611290E08E
:100D200080E04AE00E94CD0457CF1F920F920FB689
:100D30000F9211242F933F938F939F93AF93BF9361
:100D400080911F0290912002A0912102B091220275
:100D500030911E0223E0230F2D3758F50196A11D77
:100D6000B11D20931E0280931F0290932002A09336
:100D70002102B09322028091230290912402A0913B
:100D80002502B09126020196A11DB11D8093230278
:100D900090932402A0932502B0932602BF91AF91B5
:100DA0009F918F913F912F910F900FBE0F901F90A9
:100DB000189526E8230F0296A11DB11DD2CF1F92D0
:100DC0000F920FB60F9211242F933F934F935F937F
:100DD0006F937F938F939F93AF93BF93EF93FF9303
:100DE000E0910201F09103010995FF91EF91BF910C
:100DF000AF919F918F917F916F915F914F913F91B3
:100E00002F910F900FBE0F901F9018951F920F9269
:100E10000FB60F9211242F933F934F935F936F93CD
:100E20007F938F939F93AF93BF93EF93FF93E09143
:100E30000001F09101010995FF91EF91BF91AF91F0
:100E40009F918F917F916F915F914F913F912F91E2
:100E50000F900FBE0F901F9018951F920F920FB614
:100E60000F9211242F933F934F935F936F937F9330
:100E70008F939F93AF93BF93EF93FF9387E292E09B
:100E80000E94D502FF91EF91BF91AF919F918F91F9
:100E90007F916F915F914F913F912F910F900FBE76
:100EA0000F901F9018951F920F920FB60F9211245A
:100EB0002F938F939F93EF93FF93E0913702F091DD
:100EC00038028081E0913D02F0913E0282FD1BC01C
:100ED0009081809140028F5F8F7320914102821731
:100EE00041F0E0914002F0E0E95DFD4F958F809385
:100EF0004002FF91EF919F918F912F910F900FBE24
:100F00000F901F9018958081F4CF1F920F920FB60B
:100F10000F9211242F933F934F935F936F937F937F
:100F20008F939F93AF93BF93EF93FF938091B900FB
:100F3000887F803609F44AC0F0F5883209F4A7C0EA
:100F400018F5803109F49BC0B8F4882309F4F9C07E
:100F5000883009F494C0FF91EF91BF91AF919F91B8
:100F60008F917F916F915F914F913F912F910F9052
:100F70000FBE0F901F901895883109F488C08032F9
:100F800051F78093AD0114C0803409F49DC040F442
:100F90008033B9F38833F9F68093AD0185ECB0C0A6
:100FA000803509F485C0883509F496C0883499F6EF
:100FB0000E946403D0CF883909F48CC038F5883793
:100FC00029F050F4883611F0803729F683E08093B9
:100FD000D7011092AC0157C0883809F47BC0803922
:100FE00019F0803809F0B7CF8091AC01803208F059
:100FF00071C0E091AC0181E08E0F8093AC018091D3
:10100000BB00F0E0E457FE4F80833DC0803B39F0E9
:10101000E0F4803A09F479C0883A09F09CCF84E082
:101020008093D70110928B0110928A01E091D30135
:10103000F091D401099580918A0181110FC081E05E
:1010400080938A0110926A0109C0803C09F4A6CFFE
:10105000883C09F4A3CF883B09F07DCFE0918B0158
:1010600081E08E0F80938B01F0E0E659FE4F808186
:101070008093BB0090918B0180918A0129C080915F
:10108000D0018093BB0085EC8093BC0064CF90912D
:10109000CF018091CE01981758F5E091CF0181E002
:1010A0008E0F8093CF01F0E0E255FE4F8081E9CFB3
:1010B000E091CF0181E08E0F8093CF018091BB0042
:1010C000F0E0E255FE4F80839091CF018091CE01F8
:1010D0009817C8F285E8D8CFE091CF0181E08E0F54
:1010E0008093CF018091BB00F0E0E255FE4F8083FA
:1010F0008091D60181115CCF81E08093D50184EA93
:101100008093BC001092D70126CF85EC8093BC0061
:101110001092D7018091AC01803230F4E091AC01A3
:10112000F0E0E457FE4F10826091AC0170E0E09176
:10113000D101F091D2018CE891E009951092AC01B7
:101140000ACF1092AD0134CFCF93DF9310922A02D1
:101150001092290288EE93E0A0E0B0E080932B0289
:1011600090932C02A0932D02B0932E0228E031E040
:10117000309328022093270225EC30E0309334028C
:101180002093330224EC30E0309336022093350272
:1011900020EC30E0309338022093370221EC30E02D
:1011A00030933A022093390222EC30E030933C0233
:1011B00020933B0226EC30E030933E0220933D0228
:1011C0001092400210924102109242021092430289
:1011D0001092C7021092C6028093C8029093C9026F
:1011E000A093CA02B093CB028AE191E09093C5022A
:1011F0008093C40280E090E0ACE0B3E480932E03DF
:1012000090932F03A0933003B093310380E090E0DC
:10121000A0EFB2E48093320390933303A09334039E
:10122000B093350380E090E0A0E8BFE380933603FD
:1012300090933703A0933803B093390310923E0381
:1012400010923F03109240031092410380E090E01F
:10125000A0E0B0E48093220390932303A09324039F
:10126000B093250380E090E0A0E4B0E480932603EF
:1012700090932703A0932803B09329038AE097ED66
:10128000A3EABBE380932A0390932B03A0932C0340
:10129000B0932D0310921E0310921F03109220038F
:1012A0001092210310921603109217031092180344
:1012B0001092190362E082E00E940C0162E083E078
:1012C0000E940C01E0EBF0E0E491F0E0EE0FFF1F74
:1012D000EC55FF4FA591B491B0930703A09306037B
:1012E000E2E9F0E0449140930A03E1EBF0E0E4919D
:1012F000F0E0EE0FFF1FEC55FF4FC591D491D09356
:101300000903C0930803E3E9F0E0E491E0930B03E1
:1013100010920D0310920E0310920F0310921003FF
:101320002BE33FE1C9010197F1F79C91842F8923B9
:1013300091E009F490E08881E82309F0926026E0CA
:1013400033E090930C033093D1022093D00284EBCE
:1013500094E09093010180930001809169008C7F5B
:10136000816080936900E89A81E080931103309353
:10137000D3022093D2028AEB94E0909303018093EE
:10138000020180916900837F846080936900E99AFB
:1013900082E08093110385E08093040386E08093CC
:1013A00005038CE08093F6021092F5021092F80289
:1013B0001092F9021092FA021092FB021092FC02B3
:1013C0001092FD021092FE021092FF021092000392
:1013D0001092010310920203109203038BE080939A
:1013E000E6021092E5021092E8021092E9021092D1
:1013F000EA021092EB021092EC021092ED021092AF
:10140000EE021092EF021092F0021092F10210928E
:10141000F2021092F3028AE08093D6021092D50273
:101420001092D8021092D9021092DA021092DB02C6
:101430001092DC021092DD021092DE021092DF02A6
:101440001092E0021092E1021092E2021092E30286
:10145000DF91CF910895CF93DF93CDB7DEB72A9771
:101460000FB6F894DEBF0FBECDBF789484B582600E
:1014700084BD84B5816084BD85B5826085BD85B538
:10148000816085BD80916E00816080936E001092B6
:101490008100809181008260809381008091810031
:1014A00081608093810080918000816080938000C2
:1014B0008091B10084608093B1008091B000816020
:1014C0008093B00080917A00846080937A0080914C
:1014D0007A00826080937A0080917A0081608093A4
:1014E0007A0080917A00806880937A001092C1001F
:1014F000E0913702F091380282E08083E09133027C
:10150000F09134021082E0913502F09136028FECB6
:10151000808310923F02E0913B02F0913C0286E012
:101520008083E0913902F0913A028081806180836A
:10153000E0913902F0913A02808188608083E091E5
:101540003902F0913A02808180688083E09139020B
:10155000F0913A0280818F7D808321E02093F40214
:1015600062E08091F6020E940C011092E40260E0B9
:101570008091E6020E940C011092D40260E08091FA
:10158000D6020E940C011092DB011092DA01109237
:10159000D9011092D8011092D70131E03093D601D1
:1015A0001092D50161E082E10E94DE0061E083E1FA
:1015B0000E94DE008091B9008E7F8093B9008091F7
:1015C000B9008D7F8093B90088E48093B80085E4EA
:1015D0008093BC0089E592E09093D4018093D3017D
:1015E0008AE592E09093D2018093D10180E18093CB
:1015F000BA008AE595E09093DD018093DC018AE0F2
:1016000090E00E9465114AE0849FC00111249093EC
:10161000E3018093E2018BE090E00E94651154E6C3
:10162000859FC00111249093E1018093E0018CE03B
:1016300090E00E94651190E09093DF018093DE01BD
:101640000E94DE0361E0809104030E940C0161E0CE
:10165000809105030E940C0160E0809104030E94C8
:10166000DE0060E0809105030E94DE0060E0809172
:1016700005030E94DE0068EC70E0809104030E9484
:1016800048018091D6020E94B5002091D40228170B
:10169000190661F360E0809104030E94DE0060E0BF
:1016A000809105030E94DE000E94A5014B015C01B0
:1016B00084EFC82EDD24D394E12CF12C0E94A501E7
:1016C000681979098A099B09683E7340810591056B
:1016D000A8F381E0C81AD108E108F10898EE890E54
:1016E00093E0991EA11CB11CC114D104E104F104C2
:1016F00029F7F89410920D0310920E0310920F0325
:1017000010921003789480911103823008F086C102
:10171000F89486E093E00E94720480910D0390910A
:101720000E03A0910F03B091100378948093EC0105
:101730009093ED01A093EE01B093EF010E94CA01D6
:101740006093060270930702809308029093090247
:101750000E94CA016093F4017093F5018093F60131
:101760009093F70111E080911D02811159C11092EF
:10177000190210921A0210921B0210921C020E946F
:10178000D601811110931D020E94CA01C090F4017C
:10179000D090F501E090F601F090F7019B01AC01CB
:1017A0002C193D094E095F0969017A01C092F001C7
:1017B000D092F101E092F201F092F3013AE0C31607
:1017C000D104E104F1040CF473C06093F40170934C
:1017D000F5018093F6019093F70180911103823017
:1017E00008F052C2F89486E093E00E947204C09020
:1017F0000D03D0900E03E0900F03F0901003789447
:101800008091EC019091ED01A091EE01B091EF017A
:10181000A7019601281B390B4A0B5B0BCA01B901C2
:101820000E94481020E030E44CE055E40E94E811AA
:101830004B015C01AC019B016091000270910102BF
:1018400080910202909103020E947C116093000239
:1018500070930102809302029093030220E030E033
:101860004AE754E4C501B4010E94A7104B015C0192
:101870006091F0017091F1018091F2019091F3017A
:101880000E9448109B01AC01C501B4010E94E811FF
:101890006093E8017093E9018093EA019093EB0172
:1018A000C092EC01D092ED01E092EE01F092EF01D6
:1018B00020910002309101024091020250910302F6
:1018C0006091190270911A0280911B0290911C0282
:1018D0000E947B116B017C0120E030E0A9010E9495
:1018E000901218160CF0D2C12DEC3CEC4CE85FE3E2
:1018F000C701B6010E94411087FDDEC14091F00191
:101900005091F1015A874987C0921603D09217036C
:10191000E0921803F092190320E030E0A901C7011A
:10192000B6010E949012A701960118160CF05058AB
:1019300080912A0390912B03A0912C03B0912D0349
:101940008D839E83AF83B887809126039091270370
:10195000A0912803B091290389839A83AB83BC8328
:101960006D817E818F8198850E94901287FDA6C22D
:1019700010921A0310921B0310921C0310921D0365
:1019800080901E0390901F03A0902003B09021032D
:10199000C0901A03D0901B03E0901C03F0901D032D
:1019A000A985BA85BD01BB0F880B990B0E94481011
:1019B0002B013C012FE632E143E85AE369817A8149
:1019C0008B819C810E94A7109B01AC01C301B201D5
:1019D0000E94A7102B013C019601A701C501B4018B
:1019E0000E949012A301920118160CF0E9C2C501E1
:1019F000B4010E947B11B62E072F8D839983262F69
:101A0000372FAC01B601C7010E94901218160CF0D6
:101A1000E8C2BC2C0D2DED82F982E3C2F8947DCE94
:101A20008091F6020E94B5002091F4022817190651
:101A300009F49DC00E94CA01C0900003D090010328
:101A4000E0900203F09003036C197D098E099F0951
:101A5000683B7B40810591050CF094C08091180291
:101A6000882341F00E94D601882321F010921802A9
:101A700010921D02809116029091170281309105FB
:101A800009F48EC08230910509F4D1C0892B09F088
:101A90007BCEC0901202D0901302E0901402F0901E
:101AA0001502C0921902D0921A02E0921B02F09223
:101AB0001C0280910E0290910F02A0911002B09131
:101AC000110280930A0290930B02A0930C02B09330
:101AD0000D020E94CA018090060290900702A09019
:101AE0000802B0900902AB01BC01481959096A0902
:101AF0007B098091040290910502092E000CAA0B2B
:101B0000BB0B481759076A077B0700F520910002B5
:101B1000309101024091020250910302C701B601C7
:101B20000E947B116B017C0120E030E0A9010E9442
:101B30009012181654F52AE037ED43E25DE3C70131
:101B4000B6010E94411018160CF41ECE0E94CA0164
:101B50006093060270930702809308029093090233
:101B600021E030E030931702209316020DCE0E9440
:101B7000CA01609300037093010380930203909362
:101B800003036CCF1093180269CF2AE037ED43E2CC
:101B90005DEBC701B6010E94901287FDF5CDD6CF4F
:101BA0001092190210921A0210921B0210921C023B
:101BB0008091FC019091FD01A091FE01B091FF0187
:101BC00080930A0290930B02A0930C02B0930D0233
:101BD0000E94CA01C0900602D0900702E09008025D
:101BE000F0900902AB01BC014C195D096E097F0937
:101BF0008091FA019091FB01092E000CAA0BBB0BFE
:101C0000481759076A077B0708F4BECD0E94CA012E
:101C10006093060270930702809308029093090272
:101C200042E050E05093170240931602ADCD0E945F
:101C3000CA01C0900602D0900702E0900802F0901E
:101C40000902AB01BC014C195D096E097F09809145
:101C5000F8019091F901092E000CAA0BBB0B481753
:101C600059076A077B0708F48FCD0E94CA01609369
:101C70000602709307028093080290930902109263
:101C800017021092160280CDF894B1CD2DEC3CECE9
:101C90004CE85FEBC701B6010E94901218160CF0D9
:101CA0002DCE2DEC3CEC4CE45DEBC701B6010E945F
:101CB000411087FF23CE0BC02DEC3CEC4CE45DE3E0
:101CC000C701B6010E94901218160CF017CE809131
:101CD0000A0290910B02A0910C02B0910D02809328
:101CE000E4019093E501A093E601B093E70126E6B5
:101CF00036E646EA5FE36091E4017091E501809188
:101D0000E6019091E7010E94A7106093E4017093AF
:101D1000E5018093E6019093E701C090F001D09037
:101D2000F101E090F201F090F3012091E80130918F
:101D3000E9014091EA015091EB010E947B112B01D6
:101D40003C0140923A0350923B0360923C037092F4
:101D50003D03C701B6010E944810A30192010E94F1
:101D6000A71020E030E04AE754E40E94E8112091F7
:101D70003E0330913F0340914003509141030E9444
:101D80007C11362E072F8D839983C0903603D09017
:101D90003703E0903803F090390346015701B7FA52
:101DA000B094B7F8B094A70196010E94901218164B
:101DB00024F43C2C0D2DED82F982232D302F4D8102
:101DC0005981C501B4010E949012181624F4382CD0
:101DD000092DAD82B982832D902FAD81B981809379
:101DE0003E0390933F03A0934003B093410320919F
:101DF0002E0330912F034091300350913103C301E2
:101E0000B2010E94A7106B017C0120913203309136
:101E100033034091340350913503632D702F8D812E
:101E200099810E94A7109B01AC01C701B6010E94D5
:101E30007C116B017C01C0924203D0924303E0927B
:101E40004403F092450320E030E04FE753E40E9462
:101E5000901218160CF4E7C020E030E04FE753EC86
:101E6000C701B6010E94411087FDE2C020E030E0CA
:101E7000A901C701B6010E94901220E030E040E0C5
:101E80005FE387FDCBC0C701B6010E947C110E94B1
:101E90005A120E9448100E945A126B01CB01181668
:101EA00019060CF0CAC0B601809105030E944801D2
:101EB00060E0809104030E94DE00CEC08090220387
:101EC00090902303A0902403B090250320E030E0FD
:101ED000A901C701B6010E9490121816DCF526E68A
:101EE00036E646EE5FE369817A818B819C810E94B0
:101EF000A7102B013C012D813E814F815885C701E0
:101F0000B6010E947B119B01AC01C301B2010E948A
:101F1000A7100E949B12D62EE72EF82E092F262FEF
:101F2000372F482F592FC501B4010E94411087FF58
:101F300004C0D82CE92CFA2C0B2D8D2D9E2DAF2D05
:101F4000B02F80931A0390931B03A0931C03B093AC
:101F50001D0316CD26E636E646EE5FEB69817A81F3
:101F60008B819C810E94A7102B013C012D813E8119
:101F70004F815885C701B6010E947C119B01AC01BD
:101F8000C301B2010E94A7100E949B126B017C0149
:101F9000AC019B01C501B4010E94411087FD0DC039
:101FA000F7FAF094F7F8F094C0921A03D0921B035A
:101FB000E0921C03F0921D03E3CC75016401F0CFA5
:101FC000C501B4010E947C11B62E072F8D83998321
:101FD000262F372FAC01B601C7010E94411087FDA3
:101FE00018CD8B2D902FAD81B98180931A039093DA
:101FF0001B03A0931C03B0931D0380911A039091BF
:102000001B03A0911C03B0911D0380931E039093AA
:102010001F03A0932003B093210361CEC701B60133
:102020000E947B1134CF60E070E08FE793E433CF00
:1020300060E070E08FE793EC2ECF60E0892BC9F071
:10204000809105030E94DE00662777276C197D09C1
:10205000809104030E94480120E030E0232B09F422
:1020600082CB0E94C102882309F47DCB0E9400002C
:102070007ACB809104030E94DE0060E0809105032A
:102080001ACF0E94831008F481E00895E89409C0F3
:1020900097FB3EF490958095709561957F4F8F4F9B
:1020A0009F4F9923A9F0F92F96E9BB279395F695B1
:1020B000879577956795B795F111F8CFFAF4BB0F2F
:1020C00011F460FF1BC06F5F7F4F8F4F9F4F16C093
:1020D000882311F096E911C0772321F09EE8872F1D
:1020E000762F05C0662371F096E8862F70E060E0D9
:1020F0002AF09A95660F771F881FDAF7880F969552
:10210000879597F90895990F0008550FAA0BE0E8F5
:10211000FEEF16161706E807F907C0F012161306A9
:10212000E407F50798F0621B730B840B950B39F4E9
:102130000A2661F0232B242B252B21F408950A264F
:1021400009F4A140A6958FEF811D811D08950E947D
:10215000BA100C942B110E941D1138F00E9424110A
:1021600020F0952311F00C9414110C941A111124E1
:102170000C945F110E943C1170F3959FC1F3950F71
:1021800050E0551F629FF001729FBB27F00DB11DFB
:10219000639FAA27F00DB11DAA1F649F6627B00D8B
:1021A000A11D661F829F2227B00DA11D621F739F74
:1021B000B00DA11D621F839FA00D611D221F749F82
:1021C0003327A00D611D231F849F600D211D822FC9
:1021D000762F6A2F11249F5750409AF0F1F08823F0
:1021E0004AF0EE0FFF1FBB1F661F771F881F91501D
:1021F0005040A9F79E3F510580F00C9414110C94A7
:102200005F115F3FE4F3983ED4F386957795679529
:10221000B795F795E7959F5FC1F7FE2B880F911D46
:102220009695879597F9089597F99F6780E870E0EC
:1022300060E008959FEF80EC089500240A9416163C
:10224000170618060906089500240A9412161306A4
:10225000140605060895092E0394000C11F4882332
:1022600052F0BB0F40F4BF2B11F460FF04C06F5F4E
:102270007F4F8F4F9F4F089557FD9058440F551F24
:1022800059F05F3F71F04795880F97FB991F61F0F8
:102290009F3F79F087950895121613061406551F6F
:1022A000F2CF4695F1DF08C0161617061806991FDB
:1022B000F1CF86957105610508940895E894BB27D0
:1022C00066277727CB0197F90895F999FECF92BD3C
:1022D00081BDF89A992780B50895262FF999FECFE8
:1022E0001FBA92BD81BD20BD0FB6F894FA9AF99A33
:1022F0000FBE019608955058BB27AA270E9493113C
:102300000C942B110E941D1138F00E94241120F012
:1023100039F49F3F19F426F40C941A110EF4E09549
:10232000E7FB0C941411E92F0E943C1158F3BA17E3
:10233000620773078407950720F079F4A6F50C94DB
:102340005E110EF4E0950B2EBA2FA02D0B01B901F2
:1023500090010C01CA01A0011124FF27591B99F01B
:10236000593F50F4503E68F11A16F040A22F232F27
:10237000342F4427585FF3CF469537952795A79577
:10238000F0405395C9F77EF41F16BA0B620B730B1E
:10239000840BBAF09150A1F0FF0FBB1F661F771F8F
:1023A000881FC2F70EC0BA0F621F731F841F48F444
:1023B000879577956795B795F7959E3F08F0B0CFCD
:1023C0009395880F08F09927EE0F979587950895B4
:1023D0000E94FC110C942B110E94241158F00E94B1
:1023E0001D1140F029F45F3F29F00C941411511194
:1023F0000C945F110C941A110E943C1168F39923FC
:10240000B1F3552391F3951B550BBB27AA276217F0
:102410007307840738F09F5F5F4F220F331F441FFD
:10242000AA1FA9F335D00E2E3AF0E0E832D0915031
:102430005040E695001CCAF72BD0FE2F29D0660F1E
:10244000771F881FBB1F261737074807AB07B0E861
:1024500009F0BB0B802DBF01FF2793585F4F3AF067
:102460009E3F510578F00C9414110C945F115F3F5E
:10247000E4F3983ED4F3869577956795B795F795ED
:102480009F5FC9F7880F911D9695879597F90895D5
:10249000E1E0660F771F881FBB1F62177307840771
:1024A000BA0720F0621B730B840BBA0BEE1F88F780
:1024B000E09508950E9461126894B1110C945F1127
:1024C00008950E94441188F09F5798F0B92F9927DA
:1024D000B751B0F0E1F0660F771F881F991F1AF00F
:1024E000BA95C9F714C0B13091F00E945E11B1E005
:1024F00008950C945E11672F782F8827B85F39F004
:10250000B93FCCF3869577956795B395D9F73EF4A7
:1025100090958095709561957F4F8F4F9F4F08954F
:102520000E94831008F48FEF089519F416F40C94A8
:102530001A110C94E0120E944411B8F39923C9F3C4
:10254000B6F39F57550B87FF0E94EE120024A0E6BA
:1025500040EA900180585695979528F4805C660F64
:10256000771F881F20F026173707480730F4621BB3
:10257000730B840B202931294A2BA69517940794B5
:10258000202531254A2758F7660F771F881F20F02E
:1025900026173707480730F4620B730B840B200DA6
:1025A000311D411DA09581F7B901842F9158880FE5
:1025B0009695879508950E948310880B990B08952E
:1025C0009F3F31F0915020F4879577956795B795A7
:1025D000880F911D9695879597F9089591505040D1
:1025E000660F771F881FD2F7089597FB072E16F402
:1025F000009407D077FD09D00E942B1307FC05D06B
:102600003EF4909581959F4F0895709561957F4F09
:102610000895A1E21A2EAA1BBB1BFD010DC0AA1F23
:10262000BB1FEE1FFF1FA217B307E407F50720F03B
:10263000A21BB30BE40BF50B661F771F881F991FB6
:102640001A9469F760957095809590959B01AC01FF
:10265000BD01CF010895AA1BBB1B51E107C0AA1FF2
:10266000BB1FA617B70710F0A61BB70B881F991F33
:102670005A95A9F780959095BC01CD010895EE0F6C
:0E268000FF1F0590F491E02D0994F894FFCF10
:10268E002B022B0200000000F7022C0284024403EE
:10269E00B5029302A70200000000CA03BF03DB03CA
:1026AE009503B803A503960354563A00207C205494
:1026BE00493A00207C2049453A006E616E00696EF1
:0A26CE0066006F7666000D0A00003A
:00000001FF
